:100000000A128A1112280134FE00030EF8000408B7
:10001000F9000A08FA00831203137F08FB000A1292
:100020008A11342E0A128A111528831603130A1214
:100030008A15BC230A128A11E3000A128A15BD230D
:100040000A128A11E400831203130A128A11032090
:100050000A128A11EF00831790308400EF300A12E1
:100060008A15C6230A128A11103084006F300A12D2
:100070008A15C6230A128A118313A0308400E33044
:100080000A128A15C623EC01ED01EE01FC01FD0107
:1000900083010A128A114C280A128A1538260A127C
:1000A0008A110A128A114A250A128A110A128A151D
:1000B00070270A128A1183120313861002308312EA
:1000C0000313E3008630E2009830E100E10B66287C
:1000D000E20B6628E30B66280000831203138614E4
:1000E000023083120313E3008630E2009830E1000F
:1000F000E10B7828E20B7828E30B782800008312C4
:100100000313A00101300A128A1537250A128A1139
:1001100083120313A00102300A128A1537250A122E
:100120008A1183120313A00103300A128A1537259E
:100130000A128A11831203138610023083120313EA
:10014000E3008630E2009830E100E10BA528E20BE5
:10015000A528E30BA52800008312031386140230A0
:1001600083120313E3008630E2009830E100E10BD4
:10017000B728E20BB728E30BB7280000831203135C
:10018000061869296730E1006108A4006830E200C0
:100190006208A5006930E3006308A6006A30E40045
:1001A0006408A7006B30E5006508A80066300A12F5
:1001B0008A1111230A128A11831203136608E100BF
:1001C0006108B50001300A128A11F8260A128A1154
:1001D000413083120313E200ED30E100E10BEE2821
:1001E000E20BEE28F328831203136708E10061088D
:1001F000B50002300A128A11F8260A128A1141301B
:1002000083120313E200ED30E100E10B0529E20B5C
:1002100005290A29831203136808E1006108B50063
:1002200003300A128A11F8260A128A114130831209
:100230000313E200ED30E100E10B1C29E20B1C2965
:100240002129831203136908E1006108B500043015
:100250000A128A11F8260A128A11413083120313F6
:10026000E200ED30E100E10B3329E20B33293829BC
:10027000831203136A08E1006108B50005300A1211
:100280008A11F8260A128A11413083120313E20000
:10029000ED30E100E10B4A29E20B4A294F29831294
:1002A00003136B08E1006108B50006300A128A11D9
:1002B000F8260A128A110D3083120313E3002D3041
:1002C000E200D730E100E10B6329E20B6329E30B85
:1002D00063290A128A15D7230A128A11003A031DCC
:1002E00076290A128A11FC270A128A110A128A1523
:1002F000D7230A128A11013A031D83290A128A158B
:100300007F240A128A110A128A15D7230A128A1127
:10031000023A031D90290A128A15EC230A128A1147
:100320000A128A15D7230A128A11043A031D9D293D
:100330000A128A1515240A128A110A128A15D7235D
:100340000A128A11053A031DAA290A128A153724AE
:100350000A128A11831203136E08031DB4290A12AC
:100360008A15DC250A128A1183120313061EBE2881
:100370006E080319BE280A128A159A260A128A11D3
:10038000BE2883120313BC003C0884002C30831366
:100390000006031D08003C08033E840037300006B9
:1003A000031D0800F42A07150A30A0000030A10040
:1003B0000A128A159E240A128A1183120313071146
:1003C0000530A0000030A1000A128A159E24080002
:1003D00087140A30A0000030A1000A128A159E245A
:1003E0000A128A118312031387100530A00000300F
:1003F000A1000A128A159E24080086100A30A00067
:100400000030A1000A128A159E240A128A11831252
:10041000031386140530A0000030A1000A128A15CB
:100420009E240800831203133C08023E84008313B9
:100430000008013A0319D329033A0319E829013ABC
:100440000319FD29102B08003C08023E840000031C
:10045000031D452A0A128A15D7230A128A11063A61
:10046000031D452A0130FC000030FD0083160313F4
:10047000D901DA01643083120313A0000030A10017
:100480000A128A159E240A128A11831203133C0849
:10049000023E8400023083130006031D08000A1286
:1004A0008A15D7230A128A11073A031D0800013062
:1004B000FC000030FD0083160313D901DA0164301B
:1004C00083120313A0000030A1000A128A159E2493
:1004D0000800831203133C08023E840083130008C3
:1004E000031D080000300A128A15E5240A128A1139
:1004F00083120313BB003B08B50003300A128A11B4
:10050000F8260800831203133C08023E840083137C
:100510000008031D080003300A128A15E5240A1298
:100520008A1183120313BB003B08B50004300A1282
:100530008A11F8260800831203133C08023E840047
:1005400083130008031D080000300A128A15C12415
:100550000A128A1183120313BB003B08B500053051
:100560000A128A11F8260800831203133C08023E7F
:10057000840083130008031D08006F03031DC72AAE
:10058000B501B50A06300A128A11F826080083124E
:100590000313B50106300A128A11F82608008312E7
:1005A00003133C08023E840083130008031D080067
:1005B0000A128A150E250A128A11831203136D0876
:1005C0000319E92AB501B50A07300A128A11F8267B
:1005D0000800023083120313BB003B08B50007304C
:1005E0000A128A11F8260800831203133C0A8400B9
:1005F00083130008013A0319122A033A0319242A23
:10060000013A0319692A073A0319822A013A0319A0
:100610009B2A033A0319B42A013A0319CF2A102B53
:10062000080083120313B100081213300A128A154E
:10063000F9230A128A1101300A128A15F9230A12C3
:100640008A110A128A15BE230A128A117F3983126F
:100650000313A9002908B2000A128A15BE230A1240
:100660008A117F3983120313A9002908B3000A12E3
:100670008A15BE230A128A113F3983120313A90077
:100680002908B4000A128A15BE230A128A1183129D
:100690000313A9002908B7000A128A15BE230A12FB
:1006A0008A113F3983120313A9002908B7000A12DF
:1006B0008A15BE230A128A111F3983120313A90057
:1006C0002908B5000A128A15BE230A128A1183125C
:1006D0000313A9002908B60008163208A90004303F
:1006E0000310A90CFF3E031D702B29080739AA002F
:1006F0002A08AB0032080F39A9002908B2000A30D5
:10070000A9002908A0002B080A128A11E9270A1259
:100710008A11831203133207AA00310884002A08C1
:10072000831380003308A90004300310A90CFF3E96
:10073000031D952B29080739AA002A08AC003308A5
:100740000F39A9002908B3000A30A9002908A00020
:100750002C080A128A11E9270A128A11831203133C
:100760003307AA00240884002A0883138000340871
:10077000A90004300310A90CFF3E031DBA2B290861
:100780000339AA002A08AD0034080F39A900290846
:10079000B4000A30A9002908A0002D080A128A1105
:1007A000E9270A128A11831203133407AA002508C5
:1007B00084002A08831380003708A900043003103E
:1007C000A90CFF3E031DDF2B29080339AA002A08C4
:1007D000AE0037080F39A9002908B7000A30A90070
:1007E0002908A0002E080A128A11E9270A128A1184
:1007F000831203133707AA00260884002A088313EC
:1008000080003508A90004300310A90CFF3E031D29
:10081000042C29080139AA002A08AF0035080F392D
:10082000A9002908B5000A30A9002908A0002F084E
:100830000A128A11E9270A128A1183120313350753
:10084000AA00270884002A08831380003608A9001C
:1008500004300310A90CFF3E031D292C29080F3971
:10086000AA002A08B00036080F39A9002908B600E6
:100870000A30A9002908A00030080A128A11E927C5
:10088000831203133607AA00280884002A0883135A
:100890008000080083120313B101B201EC0183163A
:1008A0000313D701D801063083120313B0001330AD
:1008B000AF00AD30AE00AE0B5B2CAF0B5B2CB00BC2
:1008C0005B2C83120313B301B4013408803AFF0098
:1008D00080307F02031D6E2C0D3033020318482D2B
:1008E0008312031333080E3E84000A128A15002077
:1008F0000A128A11AE002E08A70006300A128A15C5
:1009000049240A128A11831203133308013E84001A
:100910000A128A1500200A128A11AE002E08A700BA
:1009200007300A128A1549240A128A118312031306
:1009300033081B3E84000A128A1500200A128A110D
:10094000AE002E08A70008300A128A1549240A12A0
:100950008A118312031333080E3E84000A128A158B
:1009600000200A128A11AE002E08A70009300A12D0
:100970008A1549240A128A11831203133308013E8F
:1009800084000A128A1500200A128A11AE002E086D
:10099000A7000A300A128A1549240A128A11831202
:1009A000031333081B3E84000A128A1500200A1222
:1009B0008A11AE002E08A7000B300A128A154924AE
:1009C0000A128A110E300A128A1563240A128A1139
:1009D000023883120313AE002E08A7000E300A124D
:1009E0008A1549240A128A1140300A128A150127F1
:1009F0000A128A1183120313B101B2018312031385
:100A00003208803AFF0080307F02031D092D053037
:100A100031020318352D0E300A128A1563240A128A
:100A20008A1102390319242D83120313EC01EC0AF5
:100A3000340883160313D800831203133308831674
:100A40000313D70001300800013083120313B107EC
:100A50000318B20A0030B207C73083120313AE0086
:100A6000312DAE0B302D342DFE2C013083120313AB
:100A7000B3070318B40A0030B4073408803AFF0003
:100A800080307F02031D462D0D303302031C702C75
:100A900000300800303083120313B5003508A7007A
:100AA00000300A128A1549240A128A11A8308312CA
:100AB0000313B5003508A70001300A128A1549242E
:100AC0000A128A11093083120313B5003508A700F2
:100AD00002300A128A1549240A128A110730831239
:100AE0000313B5003508A70003300A128A154924FC
:100AF0000A128A110A3083120313B5003508A700C1
:100B000005300A128A1549240A128A11B930831253
:100B10000313B5003508A7000D300A128A154924C1
:100B20000A128A11113083120313B5003508A70089
:100B30000E300A128A1549240A128A11A330831230
:100B40000313B5003508A70010300A128A1549248E
:100B50000A128A113E3083120313B5003508A7002C
:100B600012300A128A1549240A128A11533083124C
:100B70000313B5003508A70016300A128A15492458
:100B80000A128A11593083120313B5003508A700E1
:100B900017300A128A1549240A128A114E3083121C
:100BA0000313B5003508A70018300A128A15492426
:100BB0000A128A11433083120313B5003508A700C7
:100BC00019300A128A1549240A128A1172308312C6
:100BD0000313B5003508A7001A300A128A154924F4
:100BE0000A128A113C3083120313B5003508A7009E
:100BF0001B300A128A1549240A128A118030831286
:100C00000313B5003508A7001F300A128A154924BE
:100C10000A128A1100300A128A1563240A128A11F4
:100C2000013883120313B5003508A70000300A12FB
:100C30008A1549240A128A110A128A114A240A12B0
:100C40008A11013A031D2F2E013083120313A600CF
:100C50000030A7000A128A1567250A128A1100308F
:100C60000A128A1501270800861A4C2E7C087D047A
:100C7000031D4C2E0A128A15CE230A128A11F50082
:100C80000230750203184C2E0130FC000030FD00CC
:100C900083160313D901DA01831203130C1CEB2E04
:100CA00010100B308F00DB308E007C037D04031DA1
:100CB0007F2E831603136408F6006308F500031003
:100CC000F50DF60D5A08803AF7007608803A77025B
:100CD000031D6C2E7508590203187F2E01308316F0
:100CE0000313D9070318DA0A0030DA078312031353
:100CF00087187C2E87149D2E871C9D2E9C2E7C038E
:100D00007D04031D9D2E831603136408F6006308FB
:100D1000F5000310F50DF60D5A08803AF700760835
:100D2000803A7702031D962E75085902031C9D2EEA
:100D3000FC01FD0183120313871001308316031396
:100D4000DD070318DE0A0030DE075E08803AFF0088
:100D500080307F02031DAE2E02305D02031CBF2EC9
:100D600083160313DD01DE010130E1070318E20AF7
:100D70000030E2070A128A159A250A128A11831690
:100D800003136208803AFF0080307F02031DCA2EE1
:100D90003C306102031CD62E83160313E101E201ED
:100DA0000130DF070318E00A0030E0078316031361
:100DB0006008803AFF0080307F02031DE12E3C3046
:100DC0005F02031CE72E83160313DF01E001831289
:100DD000031310140C100B108B177B08FF007A08FC
:100DE0008A0079088400780E8300FE0E7E0E0900CA
:100DF00083120313BA000430A0000030A1000530B4
:100E0000A2000030A3000A128A1525240A128A11B2
:100E100083120313B801B90120300A128A15012781
:100E20000A128A110D3083120313B700FB30B6008B
:100E3000B60B182FB70B182F0E300A128A15632421
:100E40000A128A11023883120313B6003608A7006B
:100E50000E300A128A1549240A128A1140300A12E9
:100E60008A1501270A128A110E300A128A15632484
:100E70000A128A110239031D472F831603135608DD
:100E80000319342F0A128A114A240A128A11803057
:100E90000A128A1501270A128A11A5308312031338
:100EA000B600B60B512F542F53300A128A15E02387
:100EB0000A128A1159300A128A15E0230A128A117D
:100EC0004E300A128A15E0230A128A1143300A12A0
:100ED0008A15E0230A128A112C300A128A15E0239F
:100EE0000A128A11831203133A080A128A15E023A0
:100EF0000A128A118312031335080A128A15E02395
:100F00000A128A1137300A128A15E0230A128A114E
:100F100083120313061A912F83160313560803191D
:100F2000882F023083120313B600B60B952F0000F2
:100F300000300A128A1501270A128A11C73083125B
:100F40000313B600A32FB60BA22FA62F08001E3046
:100F50008316031361066204031DB72F8312031364
:100F60000719B72F0A128A150E250A128A11831241
:100F700003136D030319851CCC2F0719CC2F0715FC
:100F80000030A000A1007830A2000030A3000A12B7
:100F90008A1525240A128A1183160313520803198D
:100FA00008000A128A150E250A128A1183120313E9
:100FB0006D08031D851CE72F0030A000A1007830CC
:100FC000A2000030A3000A128A1525240800071188
:100FD000080083120313A300A201231CF32F20088F
:100FE000A1002108A2070310A00D0310A30C2308E1
:100FF000031DED2F220808000A128A11A7270800F6
:1010000008308A000408840A820700343F344734D9
:101010004F3457345F3477347E347F3486348734AA
:10102000373467346F344F34593463346D34773424
:1010300095349F349F34A934A934453481348B349A
:1010400018341B341E34213424342D347B34303492
:0A1050007E343334153427342A347B
:101778005834023400300A128A15F92383120313ED
:101788001308080064008001840A04060319003461
:101798000406C72B8312031306090739F0007008E3
:1017A800F100063008008312031306090739A00068
:1017B8002008A1000630080083120313A300851235
:1017C80023080A128A15F9238312031385160800C1
:1017D8000A128A11A7270A128A1583120313071DF2
:1017E800F72B871408008710080083120313A20040
:1017F8001308A0002008A1008C11220893008C1D5A
:10180800032C8C1108008312031385120A128A15FF
:10181800BE2383120313A3002308A40085162408FB
:10182800080083120313861A212CB501B50A023069
:101838000A128A11F8260A128A150A128A11A7278B
:101848000800831203132008A4002407C83E84005C
:10185800220883138000840A230880002008D23ECF
:1018680084008001080083120313861A452C023075
:10187800BB003B08B50002300A128A11F8260A128A
:101888008A150A128A11A727080083120313AA00CF
:1018980005122A08A8002807A9002908AA002A086A
:1018A8000A128A15F9230A128A15831203132708C4
:1018B8000A128A15F92383120313051608008312E6
:1018C8000313A60005122608A30023074038A40026
:1018D8002408A60026080A128A15F9230A128A156E
:1018E8000A128A15BE2383120313A3002308A50036
:1018F8000516250808001E308316031361066204C6
:10190800031D8F2C8312031307198F2C0A128A15B3
:101918000E250A128A157C037D04031D9A2C831256
:1019280003136D03031D9A2C071508008312031374
:101938000711080083120313A401A5012508803AA2
:10194800A2002108803A2202031DAC2C20082402A0
:1019580003180800823083120313A300DD30A200AD
:10196800A20BB42CA30BB42C013083120313A407CD
:101978000318A50A0030A507A22C83120313A1009F
:10198800C72C831203136400831603178C18C52C05
:10199800831203132108831203178D003F3083122B
:1019A8000313A0002008831603178C050C140310DA
:1019B8000C180314003003180130831203170C08A5
:1019C800080083120313A7002708A600A60DA60D7A
:1019D8001F082606C33926069F001F140130A000E1
:1019E8000030A1000A128A159E240A128A15831251
:1019F80003139F140130A0000030A1000A128A15B9
:101A08009E240A128A15831203139F18072D1F108C
:101A18001E0808008312031307106F03031D1B2DF4
:101A280003300A128A15E5240A128A15212D00307E
:101A38000A128A15C1240A128A1583120313A800F0
:101A48002808A90000300A128A15E5240A128A1506
:101A58008312031329020318342DED01ED0A352DE5
:101A6800ED010710080083120313A2008316031761
:101A78008C183A2D831203132208831203178D0042
:101A8800831203132008831203178C003F3083123C
:101A98000313A1002108831603178C05831203136F
:101AA80003108B1B03148B13831603170C15553067
:101AB8008D00AA308D008C140C1183120313031CA3
:101AC80008008B170800013083120313A9000030A7
:101AD800AA002708803AA8002A08803A2802031D8D
:101AE800772D29082602031C080083120313871484
:101AF8000230A0000030A1000A128A159E240A12A2
:101B08008A158312031387100630A0000030A10045
:101B18000A128A159E240A128A15013083120313A9
:101B2800A9070318AA0A0030AA076D2DF301F401CA
:101B38007408803AFF0080307F02031DA52D053010
:101B48007302031808007308F0007007C83E840089
:101B580083130008F100840A0008F2007208803A32
:101B6800FF0080307F02031DBB2D01307102031C72
:101B7800CF2D7308F0007007C83E8400FF30831330
:101B88008007840F00080318000AFF00FF307F0752
:101B980080008403D52D7308D23E8400831380010E
:101BA800800A0130F3070318F40A0030F4079C2D6B
:101BB800023083120313A0000030A1000530A200F8
:101BC8000030A3000A128A1525240A128A1520302B
:101BD8000A128A1501270A128A150D308312031377
:101BE800B600FB30B500B50BF72DB60BF72D0E3050
:101BF8000A128A1563240A128A15023883120313FB
:101C0800B5003508A7000E300A128A1549240A12B1
:101C18008A1540300A128A1501270A128A150E30D1
:101C28000A128A1563240A128A150239031D262E00
:101C38008316031354080319132E0A128A114A240F
:101C48000A128A1560300A128A1501270A128A15A3
:101C5800A53083120313B500B50B302E332E831233
:101C68000313EE01EE0A0800831603130F178F16ED
:101C78000F120F148312031385018601870188014F
:101C880089010B308316031385003D308600103020
:101C980087000730880007308900831603178801FA
:101CA80089010814881588160817881709148316D7
:101CB8000313811315148312061C5F2E8316031356
:101CC80095168312861E652EF0309405141283161D
:101CD8000313141794138312031394168316031310
:101CE8008C11831203138516051608168815861499
:101CF8008B150B17831603130C148B17961630309D
:101D08008312031390000B308F00DB308E00101409
:101D18001F139F13831603139F139F121F12E101B2
:101D2800E201DD01DE01DF01E0010800033083127A
:101D38000313A0000030A1000530A2000030A3006A
:101D48000A128A1525240A128A1520300A128A15C1
:101D580001270A128A1583120313EE01DD01DE0141
:101D6800DF01E0016008803AFF0080307F02031D38
:101D7800BF2E1E305F020318E32E831203135F0881
:101D88003F3E8400831380010130DF070318E00A17
:101D98000030E007B62E0A128A1507240A128A159F
:101DA80083120313BD005D083F3E84003D08831382
:101DB80080000130DD070318DE0A0030DE078312D9
:101DC8000313861DEC2E8316031355080319CF2E13
:101DD8000D3083120313BE00FB30BD00BD0BF22E85
:101DE800BE0BF22E00300A128A1501270A128A1534
:101DF8003F300A128A11C121080083120313AC0074
:101E0800051200300A128A1563240A128A158312F1
:101E18000313AB002B08AD00592F2D081F3980384C
:101E2800AB002B08A70000300A128A1549240A12B1
:101E38008A156C2F831203132D081F396038AB00E5
:101E48002B08A70000300A128A1549240A128A159D
:101E58006C2F831203132D081F394038AB002B0851
:101E6800A70000300A128A1549240A128A156C2F15
:101E7800831203132D081F392038AB002B08A70045
:101E880000300A128A1549240A128A156C2F831207
:101E980003132D081F39AB002B08A70000300A12C6
:101EA8008A1549240A128A156C2F831203132C08E9
:101EB800003A03194B2F203A03193C2F603A0319B3
:101EC8002D2F203A03191E2FE03A0319112F6C2FDA
:101ED8008312031305160800831203130812123025
:101EE8000A128A15F9230A128A1501300A128A156C
:101EF800F9230A128A1500300A128A15F9230A12E0
:101F08008A158312031308160C3083120313A300D7
:101F1800A30B8C2F000083120313081212300A122D
:101F28008A15F9230A128A1502300A128A15F9232A
:101F38000A128A1500300A128A15F9230A128A151C
:101F48008312031308160C3083120313A300A30B88
:101F5800AB2F000083120313081212300A128A15DD
:101F6800F9230A128A1508300A128A15F9230A1267
:101F78008A1500300A128A15F9230A128A15831263
:101F8800031308160C3083120313A300A30BCA2FE4
:101F9800000083120313081212300A128A15F9235B
:101FA8000A128A1501300A128A15F9230A128A15AB
:101FB80080300A128A15F9230A128A15831203132C
:101FC800081683120313081213300A128A15F9230C
:101FD8000A128A1504300A128A15F9230A128A1578
:101FE8000A128A15BE230A128A1520390319E52F09
:081FF800831203130816080010
:02400E0014E0BC
:00000001FF
