:060000000A128A11122809
:10000800FE00030EF8000408F9000A08FA0083123B
:1000180003137F08FB000A128A1133280A128A1177
:1000280015280A128A11E2210A128A11E9000A1215
:100038008A11E3210A128A11EA000A128A11E421BC
:100048000A128A11FD0083132030840069300A12D5
:100058008A11DA21FC0183010A128A11C429861A3D
:100068004B285D085E04031D4B280A128A11D12112
:100078000A128A11F5000230750203184B28013064
:1000880083120313DD000030DE00DB01DC01831284
:1000980003130C1CE62810100B308F00DB308E0089
:1000A8005D035E04031D7A286A08F6006908F500F6
:1000B8000310F50DF60D5C08803AF7007608803AD3
:1000C8007702031D692875085B0203187A28013036
:1000D80083120313DB070318DC0A0030DC078718D8
:1000E800772887149828871C982897288312031341
:1000F8005D035E04031D98286A08F6006908F50088
:100108000310F50DF60D5C08803AF7007608803A82
:100118007702031D912875085B02031C9828831237
:100128000313DD01DE018710013083120313E10799
:100138000318E20A0030E2076208803AFF008030C4
:100148007F02031DA92802306102031CBA2883120A
:100158000313E101E2010130E5070318E60A003064
:10016800E6070A128A1155210A128A11831203130B
:100178006608803AFF0080307F02031DC5283C30A6
:100188006502031CD12883120313E501E60101303F
:10019800E3070318E40A0030E40783120313640832
:1001A800803AFF0080307F02031DDC283C30630268
:1001B800031CE22883120313E301E40183120313EF
:1001C80010140C100B108B177B08FF007A088A009C
:1001D80079088400780E8300FE0E7E0E09008316CF
:1001E80003130F178F160F120F14831203138501B1
:1001F80086018701880189010B3083160313850066
:1002080036308600103087000730880007308900B4
:10021800831603178801890108148815881608179A
:100228008817891483160313811395148312861C67
:100238001A298316031395168312861E2029F03077
:1002480094051412831603131417941383120313BB
:100258009416831603138C1183120313851605163F
:10026800081688158B150B17831603130C1496168E
:1002780030308312031390000B308F00DB308E0078
:1002880010141F139F13831603139F139F121F121B
:1002980083120313E501E601E101E201E301E40150
:1002A8000800F301F4017408803AFF0080307F02EF
:1002B800031D602905307302031808007308F00055
:1002C8007007483E840083130008F100840A000880
:1002D800F2007208803AFF0080307F02031D762901
:1002E80001307102031C8A297308F0007007483E28
:1002F8008400FF3083138007840F00080318000A66
:10030800FF00FF307F078000840390297308523E66
:10031800840083138001800A0130F3070318F40A6C
:100328000030F407572901308A000408840A82073C
:1003380000343F3447344F3457345F3477347E3495
:100348007F3486348734373467346F344F345934C4
:1003580063346D34773495349F349F34A934A93489
:10036800453481348B3418341B341E3421342434FE
:100378002D347B3430347E343334153427342A34E6
:100388000A128A11F3200A128A11CB2987108312C4
:1003980003138618CA298714CB2983120313060965
:1003A8000739F0007008F100710808006400800146
:1003B800840A0406031900340406DB29583402347D
:0203C8000134FE
:02400E0014E0BC
:00000001FF
