:060000000A128A11122809
:10000800FE00030E83120313AE000408AF000A08B3
:10001800B0007F08B1000A128A11622E0A128A11F2
:1000280015280A128A157F210A128A11DB000A1282
:100038008A1580210A128A11DC000A128A15812188
:100048000A128A11DD00831790308400B8300A1232
:100058008A1596210A128A118313D0308400DB3066
:100068000A128A1596210A128A11463084005B30DA
:100078000A128A15962183010A128A113C2B8316CB
:100088000313A800280884002C3083130006031DDE
:1000980008002808033E840037300006031D0800C6
:1000A800AE298312031307150A30B2000030B300DB
:1000B8000A128A1518230A128A11831203130711C8
:1000C8000530B2000030B3000A128A151823080060
:1000D8008312031387140A30B2000030B3000A12E7
:1000E8008A1518230A128A11831203138710053000
:1000F800B2000030B3000A128A15182308008312D0
:10010800031386100A30B2000030B3000A128A15B1
:1001180018230A128A118312031386140530B200B9
:100128000030B3000A128A15182308008316031337
:100138002808023E840083130008013A0319552851
:10014800033A03196C28013A03198328D0290800B7
:100158002808023E84000003031DCB280A128A15D2
:10016800A7210A128A11063A031DCB2801308312EF
:100178000313CF000030D000CD01CE016430B200AF
:100188000030B3000A128A1518230A128A1183163E
:1001980003132808023E8400023083130006031D5F
:1001A80008000A128A15A7210A128A11073A031DA4
:1001B8000800013083120313CF000030D000CD01B6
:1001C800CE016430B2000030B3000A128A15182339
:1001D8000800831603132808023E840083130008CE
:1001E800031D080000300A128A15D2230A128A1148
:1001F80083160313A700270883120313C3000330D1
:100208000A128A1125270800831603132808023EBC
:10021800840083130008031D080003300A128A159E
:10022800D2230A128A1183160313A7002708831200
:100238000313C30004300A128A1125270800831605
:1002480003132808023E840083130008031D0800D6
:1002580000300A128A155F230A128A1183160313C3
:10026800A700270883120313C30005300A128A1156
:1002780025270800831603132808023E84008313E9
:100288000008031D0800831203135D03031D53298F
:10029800C301C30A06300A128A11252708008312EF
:1002A8000313C30106300A128A1125270800831692
:1002B80003132808023E840083130008031D080066
:1002C8000A128A11D6270A128A11831203135A08AE
:1002D80003197529C301C30A07300A128A11252791
:1002E8000800023083160313A7002708831203139C
:1002F800C30007300A128A11252708000A128A1536
:1003080029220A128A11E3390A128A15FB230A12D2
:100318008A110A128A15F6220A128A110A128A15F5
:1003280087220A128A1183120313C301C30A0930F0
:100338000A128A11252708000A128A11FF270A12B1
:100348008A1183120313C301C30A08300A128A11DF
:100358002527080083160313280A8400831300083E
:10036800013A03199A28033A0319AC28013A0319E8
:10037800ED28073A03190829013A03192329033AF2
:1003880003193E29013A03195B290F3A0319A029D9
:10039800013A03198229D02908002930831203134E
:1003A800A3002308F2002830A4002408F3002A3010
:1003B8000A128A153B230A128A1100300A128A157A
:1003C800A9230A128A1183120313A3002308A70082
:1003D8002930A3002308F2002830A4002408F300E1
:1003E8002A300A128A153B230A128A110130F500B5
:1003F8000030F600831203132A08A3002308F7002D
:100408002908A4002408F8002808A5002508F900F0
:100418002730A6002608FA0000300A128A15F126AD
:100428000A128A110A128A150B250A128A11033038
:100438000A128A15A9230A128A1183120313A30028
:100448002308A7002930A3002308F2002830A400BD
:100458002408F3002A300A128A153B230A128A114B
:100468000130F5000030F600831203132A08A300B8
:100478002308F7002908A4002408F8002808A50084
:100488002508F9002730A6002608FA0000300A12CD
:100498008A15F1260A128A110A128A150B250A12E0
:1004A8008A1105300A128A15A9230A128A118312A1
:1004B8000313A3002308A7002930A3002308F20090
:1004C8002830A4002408F3002A300A128A153B2396
:1004D8000A128A110130F5000030F6008312031366
:1004E8002A08A3002308F7002908A4002408F80014
:1004F8002808A5002508F9002730A6002608FA00D4
:1005080000300A128A15F1260A128A110A128A156F
:100518000B250A128A1107300A128A15A9230A1212
:100528008A1183120313A3002308A7002930A3000C
:100538002308F2002830A4002408F3002A300A1205
:100548008A153B230A128A110130F5000030F600A3
:10055800831203132A08A3002308F7002908A4001C
:100568002408F8002808A5002508F9002730A60067
:100578002608FA0000300A128A15F1260A128A1192
:100588000A128A150B250A128A1106300A128A15D0
:10059800A9230A128A1183120313A3002308A700B0
:1005A8002930A3002308F2002830A4002408F3000F
:1005B8002A300A128A153B230A128A110130F500E3
:1005C8000030F600831203132A08A3002308F7005B
:1005D8002908A4002408F8002808A5002508F9001F
:1005E8002730A6002608FA0000300A128A15F126DC
:1005F8000A128A110A128A150B250A128A11083062
:100608000A128A15A9230A128A1183120313A30056
:100618002308A7002930A3002308F2002830A400EB
:100628002408F3002A300A128A153B230A128A1179
:100638000130F5000030F600831203132A08A300E6
:100648002308F7002908A4002408F8002808A500B2
:100658002508F9002730A6002608FA0000300A12FB
:100668008A15F1260A128A110A128A150B25080022
:100678000A128A15B9250A128A110A128A117825CE
:100688000A128A110A128A1566270A128A11831217
:1006980003138610023083160313CF008630CE0072
:1006A8009830CD00CD0B562BCE0B562BCF0B562B9F
:1006B8000000831203138614023083160313CF003D
:1006C8008630CE009830CD00CD0B682BCE0B682B32
:1006D800CF0B682B0000831203130618102C071089
:1006E80003300A128A15D2230A128A1183160313B9
:1006F800CD004D0883120313C30001300A128A117A
:1007080025270A128A11413083160313CE00ED30D3
:10071800CD00CD0B8D2BCE0B8D2B922B08300A12D2
:100728008A15D2230A128A1183160313CD004D08A5
:1007380083120313C30002300A128A1125270A12F2
:100748008A11413083160313CE00ED30CD00CD0B56
:10075800AB2BCE0BAB2BB02B06300A128A15D2234B
:100768000A128A1183160313CD004D08831203134E
:10077800C30003300A128A1125270A128A11413050
:1007880083160313CE00ED30CD00CD0BC92BCE0B55
:10079800C92BCE2B07300A128A15D2230A128A11C6
:1007A80083160313CD004D0883120313C3000430CE
:1007B8000A128A1125270A128A1141308316031357
:1007C800CE00ED30CD00CD0BE72BCE0BE72BEC2B7D
:1007D80005300A128A15D2230A128A1183160313C6
:1007E800CD004D0883120313C30005300A128A1185
:1007F80025270A128A110D3083160313CF002D30D6
:10080800CE00D730CD00CD0B072CCE0B072CCF0B4D
:10081800072C8312031307140A128A15A7210A1238
:100828008A11003A031D1D2C0A128A1582210A1208
:100838008A110A128A15A7210A128A11013A031D80
:100848002A2C0A128A1553220A128A110A128A15A8
:10085800A7210A128A11023A031D372C0A128A1597
:10086800BC210A128A110A128A15A7210A128A11B2
:10087800043A031D442C0A128A15F3210A128A111C
:100888000A128A15A7210A128A11053A031D512C4A
:100898000A128A153D220A128A11831603135A086E
:1008A800031D5B2C0A128A155D250A128A11831210
:1008B8000313061E6F2B831603135A0803196F2B95
:1008C8000A128A151D260A128A116F2B8316031322
:1008D800A001A10183120313D901CB01CC01063079
:1008E80083120313C2001330C100AD30C000C00B27
:1008F8007B2CC10B7B2CC20B7B2C83160313A20110
:10090800A3012308803AFF0080307F02031D8E2C4C
:100918000D3022020318762D8316031322080E3E8B
:1009280084000A128A1500200A128A1183120313FE
:10093800C0004008B90006300A128A156D220A1252
:100948008A11831603132208013E84000A128A15AD
:1009580000200A128A1183120313C0004008B9004C
:1009680007300A128A156D220A128A118316031398
:1009780022081B3E84000A128A1500200A128A11D6
:1009880083120313C0004008B90008300A128A1500
:100998006D220A128A118316031322080E3E840060
:1009A8000A128A1500200A128A1183120313C00042
:1009B8004008B90009300A128A156D220A128A11F4
:1009C800831603132208013E84000A128A150020A8
:1009D8000A128A1183120313C0004008B9000A30B2
:1009E8000A128A156D220A128A1183160313220825
:1009F8001B3E84000A128A1500200A128A118312EB
:100A08000313C0004008B9000B300A128A156D2282
:100A18000A128A110E300A128A15BC220A128A1189
:100A2800023883120313C0004008B9000E300A12BE
:100A38008A156D220A128A1140300A128A158226F6
:100A48000A128A1183160313A001A1018316031346
:100A58002108803AFF0080307F02031D352D0530C4
:100A680020020318632D0E300A128A15BC220A12BE
:100A78008A1102390319522D83120313D901D90A95
:100A880083160313230883120313CC00831603135E
:100A9800220883120313CB000130080001308316AB
:100AA8000313A0070318A10A0030A107C730831257
:100AB8000313C0005F2DC00B5E2D622D2A2D01305F
:100AC80083160313A2070318A30A0030A3072308F9
:100AD800803AFF0080307F02031D742D0D30220202
:100AE800031C902C00300800303083120313C3001D
:100AF8004308B90000300A128A156D220A128A11B9
:100B0800A83083120313C3004308B90001300A1246
:100B18008A156D220A128A11093083120313C30041
:100B28004308B90002300A128A156D220A128A1186
:100B3800073083120313C3004308B90003300A12B5
:100B48008A156D220A128A110A3083120313C30010
:100B58004308B90005300A128A156D220A128A1153
:100B6800B93083120313C3004308B9000D300A12C9
:100B78008A156D220A128A11113083120313C300D9
:100B88004308B9000E300A128A156D220A128A111A
:100B9800A33083120313C3004308B90010300A12AC
:100BA8008A156D220A128A113E3083120313C3007C
:100BB8004308B90012300A128A156D220A128A11E6
:100BC800533083120313C3004308B90016300A12C6
:100BD8008A156D220A128A11593083120313C30031
:100BE8004308B90017300A128A156D220A128A11B1
:100BF8004E3083120313C3004308B90018300A1299
:100C08008A156D220A128A11433083120313C30016
:100C18004308B90019300A128A156D220A128A117E
:100C2800723083120313C3004308B9001A300A1242
:100C38008A156D220A128A113C3083120313C300ED
:100C48004308B9001B300A128A156D220A128A114C
:100C5800803083120313C3004308B9001F300A12FF
:100C68008A156D220A128A1100300A128A15BC22CE
:100C78000A128A11013883120313C3004308B9000A
:100C880000300A128A156D220A128A110A128A1174
:100C98006A240A128A11013A031D5D2E013083125B
:100CA8000313B8000030B9000A128A1557240A1233
:100CB8008A1100300A128A1582260800861A7A2EAE
:100CC8004F085004031D7A2E0A128A159E210A1213
:100CD8008A1183120313AB0002302B0203187A2EF9
:100CE8000130CF000030D000CD01CE010C1C182FF0
:100CF80010100B308F00DB308E004F035004031DA3
:100D0800A72E5C08AC005B08AB000310AB0DAC0D64
:100D18004E08803AAD002C08803A2D02031D962E0D
:100D28002B084D020318A72E013083120313CD0799
:100D38000318CE0A0030CE078718A42E8714C52EB4
:100D4800871CC52EC42E831203134F035004031DA2
:100D5800C52E5C08AC005B08AB000310AB0DAC0DF6
:100D68004E08803AAD002C08803A2D02031DBE2E95
:100D78002B084D02031CC52E83120313CF01D0018B
:100D88008710013083120313D3070318D40A0030E5
:100D9800D4075408803AFF0080307F02031DD62E06
:100DA80002305302031CE72E83120313D301D4012C
:100DB8000130D7070318D80A0030D8070A128A1555
:100DC800C9240A128A11831203135808803AFF00B3
:100DD80080307F02031DF22E3C305702031CFE2E8A
:100DE80083120313D701D8010130D5070318D60A97
:100DF8000030D607831203135608803AFF0080306C
:100E08007F02031D092F3C305502031C142F831247
:100E18000313D501D6010A128A11D1210A128A11A7
:100E28008312031310140C100B108B173108FF00DA
:100E380030088A002F0884002E0E8300FE0E7E0ED6
:100E4800090083160313A600043083120313B200AB
:100E58000030B3000530B4000030B5000A128A151E
:100E680003220A128A1183160313A401A501203054
:100E78000A128A1582260A128A110D308312031368
:100E8800C500FB30C400C40B472FC50B472F0E30DD
:100E98000A128A15BC220A128A1102388312031315
:100EA800C4004408B9000E300A128A156D220A12CD
:100EB8008A1140300A128A1582260A128A110E30C7
:100EC8000A128A15BC220A128A110239031D762FCA
:100ED800831203134A080319632F0A128A116A241A
:100EE8000A128A1180300A128A1582260A128A1179
:100EF800A53083120313C400C40B802F832F5330F3
:100F08000A128A15B0210A128A1159300A128A1552
:100F1800B0210A128A114E300A128A15B0210A121B
:100F28008A1143300A128A15B0210A128A112C300C
:100F38000A128A15B0210A128A1183160313260889
:100F48000A128A15B0210A128A1183120313430860
:100F58000A128A15B0210A128A1137300A128A1524
:100F6800B0210A128A1183120313061AC02F8312A2
:100F780003134A080319B72F023083120313C4005E
:100F8800C40BC42F000000300A128A1582260A12E8
:100F98008A11C73083120313C400D22FC40BD12F78
:100FA800D52F08008312031307105D03031DE32FD9
:100FB80003300A128A15D2230A128A11E92F003047
:100FC8000A128A155F230A128A1183120313BA00C0
:100FD8003A08BB0000300A128A15D2230A128A1175
:100FE800831203133B020318FC2FDA01DA0AFD2FE0
:100FF800DA0107140800080008308A000408840A87
:10100800820700343F3447344F3457345F347734E1
:101018007E347F3486348734373467346F344F34C2
:10102800593463346D34773495349F349F34A934FC
:10103800A934453481348B3418341B341E3421349C
:1010480024342D347B3430347E343334153427340F
:021058002A3438
:1012FE005834023401340A128A158A240800003048
:10130E000A128A15C921831203131308080000302C
:10131E000A128A15D72183120313130808006400DA
:10132E008001840A040603190034040697298312E7
:10133E00031306090739F0007008F10006300800A3
:10134E008312031306090739B2003208B3000630C0
:10135E00080083120313B500851235080A128A1588
:10136E00D72183120313851608000A128A158A24C0
:10137E000A128A1583120313071DC7298714080042
:10138E0087100800F200831203131308F000700890
:10139E00F1008C11720893008C1DD3298C1108005A
:1013AE0083120313B4001308B2003208B3008C1179
:1013BE00340893008C1DE1298C110800831203134D
:1013CE0085120A128A158E2183120313B500350871
:1013DE00B60085163608080083120313861AFF29F5
:1013EE00C301C30A02300A128A1125270A128A156E
:1013FE000A128A158A240800831203133208B600D3
:10140E003607D03E8400340883138000840A3508E2
:10141E0080003208463E84008001080083120313C8
:10142E00881105300A128A15C9210A128A150A1264
:10143E008A158621F3007308F400831203138815AE
:10144E007408080083120313881105300A128A15D6
:10145E00D7210A128A150A128A158E2183120313B6
:10146E00B5003508B6008815360808008312031338
:10147E00861A4F2A023083160313A70027088312F9
:10148E000313C30002300A128A1125270A128A1585
:10149E000A128A158A2408001E3083120313570677
:1014AE00580403190719602A0A128A11D6270A123C
:1014BE008A15831203134F035004031D6B2A5A031C
:1014CE00031D6B2A0715080007110800831203136A
:1014DE00BC0005123C08BA003A07BB003B08BC0032
:1014EE003C080A128A15D7210A128A158312031391
:1014FE0039080A128A15D72183120313051608001C
:10150E0083120313B20103300A128A1527240A121A
:10151E008A1583120313B20102300A128A15272488
:10152E000A128A1583120313B20101300A128A15A8
:10153E0027240800F1006400831603178C18A22AD2
:10154E007108831203178D003F30F0007008831668
:10155E0003178C050C1403100C1803140030031819
:10156E000130831203170C08080083120313B8000E
:10157E0005123808B50035074038B6003608B800F1
:10158E0038080A128A15D7210A128A150A128A15E4
:10159E008E2183120313B5003508B70005163708E0
:1015AE000800F401F5017508803AF2007108803ADE
:1015BE007202031DE42A70087402031808008230B8
:1015CE00F300DD30F200F20BEA2AF30BEA2AEF2ADF
:1015DE000130F4070318F50A0030F507DA2A8312F2
:1015EE000313881106300A128A15D7210A128A159A
:1015FE008312031388150000831203138811C7305A
:10160E000A128A15D7210A128A1583120313881516
:10161E000A128A1529220A128A15003A031908009D
:10162E000F2B83120313B601B7013708803AB400AB
:10163E003308803A3402031D262B32083602031873
:10164E000800823083120313B500DD30B400B40BF2
:10165E002E2BB50B2E2B013083120313B607031856
:10166E00B70A0030B7071C2BF50001300A128A1595
:10167E00A1220A128A15F4007508840074088313D7
:10168E00800002300A128A15A1220A128A15F4006D
:10169E007208840074088313800003300A128A15BE
:1016AE00A122F400730884007408831380000800DC
:1016BE0083120313B300652B831203136400831686
:1016CE0003178C18632B831203133308831203172B
:1016DE008D003F3083120313B200320883160317B6
:1016EE008C050C1403100C18031400300318013071
:1016FE00831203170C080800F200831603178C18C8
:10170E00842B7208831203178D0070088C003F30F3
:10171E00F1007108831603178C058312031303104F
:10172E008B1B03148B13831603170C1555308D006A
:10173E00AA308D008C140C1183120313031C0800A5
:10174E008B170800F7007708F600F60DF60D8312DA
:10175E0003131F087606C33976069F001F14013047
:10176E00F0000030F1000A128A15D8220A128A15EA
:10177E00831203139F140130F0000030F1000A129F
:10178E008A15D8220A128A15831203139F18CB2B9F
:10179E001F101E08080083120313B9003908B80081
:1017AE00B80DB80D1F083806C33938069F001F1430
:1017BE000130B2000030B3000A128A1518230A1243
:1017CE008A15831203139F140130B2000030B30048
:1017DE000A128A1518230A128A15831203139F18E8
:1017EE00F42B1F101E08080083120313B700881174
:1017FE0006300A128A15D7210A128A15831203138C
:10180E008815092C83120313881101300A128A15C8
:10181E00D7210A128A158312031337080A128A1562
:10182E00D7210A128A158312031388151E2C0A1249
:10183E008A1529220A128A150139031908001E2C4D
:10184E0083120313B400831603178C182A2C8312E9
:10185E0003133408831203178D0083120313320807
:10186E00831203178C003F3083120313B300330827
:10187E00831603178C058312031303108B1B03149B
:10188E008B13831603170C1555308D00AA308D005F
:10189E008C140C1183120313031C08008B17080001
:1018AE00013083120313BB000030BC003908803AAC
:1018BE00BA003C08803A3A02031D672C3B083802F6
:1018CE00031C08008312031387140230B200003089
:1018DE00B3000A128A1518230A128A1583120313EB
:1018EE0087100630B2000030B3000A128A15182392
:1018FE000A128A15013083120313BB070318BC0AA0
:10190E000030BC075D2C1E3083120313570658049B
:10191E0003190719972C0A128A11D6270A128A154B
:10192E00831203135A030319851CAC2C0719AC2C14
:10193E0007150030B200B3007830B4000030B500A7
:10194E000A128A1503220A128A15831203134608F5
:10195E00031908000A128A11D6270A128A15831251
:10196E0003135A08031D851CC72C0030B200B300A8
:10197E007830B4000030B5000A128A150322080030
:10198E0007110800F301F4017408803AFF0080305B
:10199E007F02031DD42C0530730203180800730850
:1019AE00F0007007D03E840083130008F100840A13
:1019BE000008F2007208803AFF0080307F02031D9B
:1019CE00EA2C01307102031CFE2C7308F000700724
:1019DE00D03E8400FF3083138007840F0008031865
:1019EE00000AFF00FF307F0780008403042D730878
:1019FE00463E840083138001800A0130F3070318EA
:101A0E00F40A0030F407CB2C03300A128A15A122F7
:101A1E000A128A15F3007308F4000130F3007308FC
:101A2E00F4077408F3007308F00003300A128A15E5
:101A3E0083230A128A157408031D080002300A1245
:101A4E008A15A1220A128A15F3007308F5000130D7
:101A5E00F3007308F5077508F3007308F000023001
:101A6E000A128A1583230A128A157508031D0800A7
:101A7E0001300A128A15A1220A128A15F300730880
:101A8E00F6000130F3007308F60720307602031CCF
:101A9E00542D1F30F3007308F6007608F300730818
:101AAE00F00001300A128A158323080002308312D7
:101ABE000313B2000030B3000530B4000030B5009F
:101ACE000A128A1503220A128A1520300A128A1562
:101ADE0082260A128A150D3083120313C400FB30BE
:101AEE00C300C30B782DC40B782D0E300A128A1545
:101AFE00BC220A128A15023883120313C30043084C
:101B0E00B9000E300A128A156D220A128A1540305B
:101B1E000A128A1582260A128A150E300A128A15A0
:101B2E00BC220A128A150239031DA72D8312031334
:101B3E0048080319942D0A128A116A240A128A156A
:101B4E0060300A128A1582260A128A15A53083126F
:101B5E000313C300C30BB12DB42D83160313DA0187
:101B6E00DA0A0800831603130F178F160F120F14BD
:101B7E0083120313850186018701880189010B30C9
:101B8E008316031385003D30860010308700073022
:101B9E00880007308900831603178801890108140D
:101BAE0088158816081788170914831603138113CE
:101BBE0015148312061CE02D83160313951683123B
:101BCE00861EE62DF0309405141283160313141797
:101BDE009413831203139416831603138C1183121A
:101BEE000313851605160816881586148B150B1704
:101BFE00831603130C148B179616303083120313AF
:101C0E0090000B308F00DB308E0010141F139F13CB
:101C1E00831603139F139F121F1283120313D701F0
:101C2E00D801D301D401D501D601080003308312A7
:101C3E000313B2000030B3000530B4000030B5001D
:101C4E000A128A1503220A128A1520300A128A15E0
:101C5E0082260A128A1583160313DA01C901CA01F4
:101C6E00CB01CC014C08803AFF0080307F02031D6F
:101C7E00422E1E304B020318662E831603134B089A
:101C8E00AB3E8400831380010130CB070318CC0ACE
:101C9E000030CC07392E0A128A15E5210A128A1550
:101CAE0083160313A9004908AB3E84002908831349
:101CBE0080000130C9070318CA0A0030CA07831210
:101CCE000313861D6D2E49080319522E0D308316EF
:101CDE000313AA00FB30A900A90B732EAA0B732EB7
:101CEE0000300A128A1582260A128A15AB300A12A1
:101CFE008A114320080083120313BE000512003020
:101D0E000A128A15BC220A128A1583120313BD0009
:101D1E003D08BF00DA2E3F081F398038BD003D0850
:101D2E00B90000300A128A156D220A128A15ED2E9C
:101D3E00831203133F081F396038BD003D08B900F8
:101D4E0000300A128A156D220A128A15ED2E8312A0
:101D5E0003133F081F394038BD003D08B90000305D
:101D6E000A128A156D220A128A15ED2E831203139A
:101D7E003F081F392038BD003D08B90000300A1257
:101D8E008A156D220A128A15ED2E831203133F084F
:101D9E001F39BD003D08B90000300A128A156D22A8
:101DAE000A128A15ED2E831203133E08003A031908
:101DBE00CC2E203A0319BD2E603A0319AE2E203ACE
:101DCE0003199F2EE03A0319922EED2E8312031360
:101DDE000516080083120313A000881120080319AA
:101DEE00FA2E0330082F06300A128A15C9210A125C
:101DFE008A158312031388150000831203138811AA
:101E0E0002300A128A15C9210A128A1577080A1297
:101E1E008A15C9210A128A1578080A128A15C9214B
:101E2E000A128A1579080A128A15C9210A128A1508
:101E3E0083120313A101A20176082202031D292F8A
:101E4E00750821020318542F200803193F2F0A1278
:101E5E008A1586210A128A15FB00831203132108A4
:101E6E007A07FC007C0884007B08831380004B2FCC
:101E7E0021087A07FB007B088400831300080A12EE
:101E8E008A15C9210A128A15013083120313A1077C
:101E9E000318A20A0030A207232F881500000A1289
:101EAE008A1515220A128A15033903190800C7303C
:101EBE00FB00612FFB0B602F642F652F562F8312B3
:101ECE000313081212300A128A15D7210A128A1524
:101EDE0001300A128A15D7210A128A1500300A1209
:101EEE008A15D7210A128A158312031308160C308D
:101EFE0083120313B500B50B822F00008312031358
:101F0E00081212300A128A15D7210A128A150230C7
:101F1E000A128A15D7210A128A1500300A128A155A
:101F2E00D7210A128A158312031308160C30831256
:101F3E000313B500B50BA12F000083120313081273
:101F4E0012300A128A15D7210A128A1508300A127F
:101F5E008A15D7210A128A1500300A128A15D7213E
:101F6E000A128A158312031308160C3083120313F8
:101F7E00B500B50BC02F00008312031308121230E8
:101F8E000A128A15D7210A128A1501300A128A15E9
:101F9E00D7210A128A1580300A128A15D7210A1201
:101FAE008A15831203130816B6016430360203181D
:101FBE00FC2F081213300A128A15D7210A128A151D
:101FCE0004300A128A15D7210A128A150A128A15A6
:101FDE008E210A128A152039031DFC2F013083121F
:101FEE000313B5003508B607DC2F8312031308164A
:021FFE000800D9
:02400E0014E0BC
:00000001FF
