:060000000A128A11122809
:10000800FE00030EF8000408F9000A08FA0083123B
:1000180003137F08FB000A128A15542E0A128A114C
:1000280015280A168A1126260A128A11EB000A16C2
:100038008A1127260A128A11EC000A168A11282624
:100048000A128A11ED00831790308400B8300A161E
:100058008A1135260A128A118313C2308400CC30E3
:100068000A168A1135260A128A11563084006B3016
:100078000A168A113526FC01FD0183010A128A1528
:10008800042D3E3083120313B8003808A4003F3013
:10009800B9003908A5004030BA003A08A600413036
:1000A800BB003B08A7004230BC003C08A8003D301C
:1000B8000A128A116D240A128A1183120313420844
:1000C800B8003808C3004530B8003808A2004430EA
:1000D800B9003908A30046300A128A154A200A12C4
:1000E8008A11013083120313A5000030A6004608C8
:1000F800B8003808A7004508B9003908A80044081E
:10010800BA003A08A9004330BB003B08AA000030F7
:100118000A128A15EE230A128A110A128A15522225
:100128000A128A11831203134108B8003808C30061
:100138004530B8003808A2004430B9003908A30097
:1001480046300A128A154A200A128A11013083128F
:100158000313A5000030A6004608B8003808A70019
:100168004508B9003908A8004408BA003A08A900A7
:100178004330BB003B08AA0000300A128A15EE2360
:100188000A128A110A128A1552220A128A11831235
:1001980003134008B8003808C3004530B8003808D1
:1001A800A2004430B9003908A30046300A128A1563
:1001B8004A200A128A11013083120313A500003065
:1001C800A6004608B8003808A7004508B90039084D
:1001D800A8004408BA003A08A9004330BB003B080D
:1001E800AA0000300A128A15EE230A128A110A128E
:1001F8008A1552220A128A11831203133F08B80083
:100208003808C3004530B8003808A2004430B900A7
:100218003908A30046300A128A154A200A128A11A0
:10022800013083120313A5000030A6004608B80069
:100238003808A7004508B9003908A8004408BA00DA
:100248003A08A9004330BB003B08AA0000300A1254
:100258008A15EE230A128A110A128A1552220A12E4
:100268008A1100300A168A11D5270A128A118312B8
:100278000313B8003808C3004530B8003808A20096
:100288004430B9003908A30046300A128A154A20BA
:100298000A128A11013083120313A5000030A60048
:1002A8004608B8003808A7004508B9003908A8006A
:1002B8004408BA003A08A9004330BB003B08AA002A
:1002C80000300A128A15EE230A128A110A128A15B8
:1002D80052220A128A1103300A168A11D5270A12E5
:1002E8008A1183120313B8003808C3004530B800D8
:1002F8003808A2004430B9003908A30046300A1271
:100308008A154A200A128A11013083120313A500A4
:100318000030A6004608B8003808A7004508B9000C
:100328003908A8004408BA003A08A9004330BB00BD
:100338003B08AA0000300A128A15EE230A128A1115
:100348000A128A1552220A128A1105300A168A11CF
:10035800D5270A128A1183120313B8003808C3007C
:100368004530B8003808A2004430B9003908A30065
:1003780046300A128A154A200A128A11013083125D
:100388000313A5000030A6004608B8003808A700E7
:100398004508B9003908A8004408BA003A08A90075
:1003A8004330BB003B08AA0000300A128A15EE232E
:1003B8000A128A110A128A1552220A128A11073061
:1003C8000A168A11D5270A128A1183120313B80054
:1003D8003808C3004530B8003808A2004430B900D6
:1003E8003908A30046300A128A154A200A128A11CF
:1003F800013083120313A5000030A6004608B80098
:100408003808A7004508B9003908A8004408BA0008
:100418003A08A9004330BB003B08AA0000300A1282
:100428008A15EE230A128A110A128A1552220A1212
:100438008A1106300A168A11D5270A128A118312E0
:100448000313B8003808C3004530B8003808A200C4
:100458004430B9003908A30046300A128A154A20E8
:100468000A128A11013083120313A5000030A60076
:100478004608B8003808A7004508B9003908A80098
:100488004408BA003A08A9004330BB003B08AA0058
:1004980000300A128A15EE230A128A110A128A15E6
:1004A80052220A128A1108300A168A11D5270A120E
:1004B8008A1183120313B8003808C3004530B80006
:1004C8003808A2004430B9003908A30046300A129F
:1004D8008A154A200A128A11013083120313A500D3
:1004E8000030A6004608B8003808A7004508B9003B
:1004F8003908A8004408BA003A08A9004330BB00EC
:100508003B08AA0000300A128A15EE230A128A1143
:100518000A128A155222080083120313D0002830C9
:10052800CF004F08AE0050080A128A11AE270A12EF
:100538008A11003A0319A82A0A168A1146260A12AD
:100548008A11063A0319BF2A303083120313CF00E9
:100558004F08AE0050080A128A11AE270A128A11F3
:10056800003A0319D02A0A168A1146260A128A1155
:10057800073A031DD02A013083120313DD0000302F
:10058800DE00FC01FD016430A0000030A1000A1665
:100598008A1167270A128A118312031350088400EC
:1005A8002C3083130006031D08005008033E840006
:1005B80037300006031D08004A2C07150A30A00032
:1005C8000030A1000A168A1167270A128A118312BD
:1005D800031307110530A0000030A1000A168A1184
:1005E8006727080087140A30A0000030A1000A1607
:1005F8008A1167270A128A1183120313871005309C
:10060800A0000030A1000A168A116727080086108A
:100618000A30A0000030A1000A168A1167270A12C2
:100628008A118312031386140530A0000030A1003C
:100638000A168A1167270800831203135008023E1E
:10064800840083130008013A0319E12A033A0319C5
:10065800F62A013A03190B2B6C2C08005008023EAD
:1006680084000003031D512B0A168A1146260A121C
:100678008A11063A031D512B013083120313DD0042
:100688000030DE00FC01FD016430A0000030A10054
:100698000A168A1167270A128A118312031350084F
:1006A800023E8400023083130006031D08000A1668
:1006B8008A1146260A128A11073A031D08000130DA
:1006C80083120313DD000030DE00FC01FD016430FD
:1006D800A0000030A1000A168A11672708008312BB
:1006E80003135008023E840083130008031D08000A
:1006F80000300A168A11D5270A128A1183120313A9
:10070800CF004F08B50003300A128A15A225080049
:10071800831203135008023E840083130008031D4C
:10072800080003300A168A11D5270A128A11831283
:100738000313CF004F08B50004300A128A15A2250A
:100748000800831203135008023E84008313000834
:100758000319BA2B5008023E84000008CF004F0846
:10076800A00000300A128A15CE20080000300A16B0
:100778008A118A270A128A1183120313CF004F089D
:10078800B50005300A128A15A22508008312031342
:100798005008023E840083130008031DE52B6D03F7
:1007A800031DDD2BB501B50A06300A128A15A225EC
:1007B800080083120313B50106300A128A15A22510
:1007C8000800831203135008023E840083130003B9
:1007D800031DF12BED01ED0A08005008023E8400CC
:1007E8000008031D0800ED0108005008023E8400BF
:1007F8000008031D08000A168A11AE270A128A117A
:100808008312031368080319102CB501B50A0730C1
:100818000A128A15A2250800023083120313CF009A
:100828004F08B50007300A128A15A22508000A16D3
:100838008A11B2260A128A11E3390A128A15A220ED
:100848000A128A110A168A110F270A128A110A1621
:100858008A1145270A128A1183120313B501B50AB2
:1008680009300A128A15A2250800831203136908A1
:10087800031D422C0A128A11A625080083120313AD
:10088800B50108300A128A15A2250800831203133D
:10089800500A840083130008013A0319202B033AF5
:1008A8000319322B013A0319732B073A03198C2BBE
:1008B800013A0319A52B033A0319CA2B013A031964
:1008C800F92B0F3A0319392C013A03191B2C6C2CFC
:1008D800080083120313B100081213300A168A1194
:1008E8004F260A128A1101300A168A114F260A1257
:1008F8008A110A168A112D260A128A117F39831243
:100908000313A9002908B2000A168A112D260A1213
:100918008A117F3983120313A9002908B3000A1624
:100928008A112D260A128A113F3983120313A9004E
:100938002908B4000A168A112D260A128A11831270
:100948000313A9002908B7000A168A112D260A12CE
:100958008A113F3983120313A9002908B7000A1620
:100968008A112D260A128A111F3983120313A9002E
:100978002908B5000A168A112D260A128A1183122F
:100988000313A9002908B60008163208A900043084
:100998000310A90CFF3E031DCC2C29080739AA0017
:1009A8002A08AB0032080F39A9002908B2000A301A
:1009B800A9002908A0002B080A168A119F260A12E6
:1009C8008A11831203133207AA00310884002A0807
:1009D800831380003308A90004300310A90CFF3EDC
:1009E800031DF12C29080739AA002A08AC0033088E
:1009F8000F39A9002908B3000A30A9002908A00066
:100A08002C080A168A119F260A128A1183120313C8
:100A18003307AA00240884002A08831380003408B6
:100A2800A90004300310A90CFF3E031D162D290848
:100A38000339AA002A08AD0034080F39A90029088B
:100A4800B4000A30A9002908A0002D080A168A1146
:100A58009F260A128A11831203133407AA00250855
:100A680084002A08831380003708A9000430031083
:100A7800A90CFF3E031D3B2D29080339AA002A08AB
:100A8800AE0037080F39A9002908B7000A30A900B5
:100A98002908A0002E080A168A119F260A128A1110
:100AA800831203133707AA00260884002A08831331
:100AB80080003508A90004300310A90CFF3E031D6F
:100AC800602D29080139AA002A08AF0035080F3916
:100AD800A9002908B5000A30A9002908A0002F0894
:100AE8000A168A119F260A128A11831203133507E0
:100AF800AA00270884002A08831380003608A90062
:100B080004300310A90CFF3E031D852D29080F3959
:100B1800AA002A08B00036080F39A9002908B6002B
:100B28000A30A9002908A00030080A168A119F2651
:100B3800831203133607AA00280884002A0883139F
:100B480080000800003083120313CE000030CD006F
:100B58000030CC000030CB004530BB003B08A20081
:100B68004630BC003C08A30044300A128A154A20CB
:100B78000A128A11831203134408BB00BC01BD0189
:100B8800BE014B08BF004C08C0004D08C1004E080C
:100B9800C20008300310BF0DC00DC10DC20DFF3ECD
:100BA800031DCE2D3F08BB044008BC044108BD040A
:100BB8004208BE043E08CE003D08CD003C08CC00EB
:100BC8003B08CB004508BB00BC01BD01BE014B087A
:100BD800BF004C08C0004D08C1004E08C2000830D4
:100BE8000310BF0DC00DC10DC20DFF3E031DF42D36
:100BF8003F08BB044008BC044108BD044208BE04C9
:100C08003E08CE003D08CD003C08CC003B08CB0098
:100C18004608BB00BC01BD01BE014B08BF004C0823
:100C2800C0004D08C1004E08C20008300310BF0DB7
:100C3800C00DC10DC20DFF3E031D1A2E3F08BB0497
:100C48004008BC044108BD044208BE043E08CE006A
:100C58003D08CD003C08CC003B08CB000030CA0062
:100C68000030C9000030C8000030C7004E084A02F2
:100C7800031D482E4D084902031D482E4C08480202
:100C8800031D482E4B0847020318AF2E4708BB0028
:100C98003B08C6004708BB004808BC004908BD001F
:100CA8004A08BE0008300310BE0CBD0CBC0CBB0CBF
:100CB800FF3E031D572E3B08BF003F08C5004708ED
:100CC800BB004808BC004908BD004A08BE001030F7
:100CD8000310BE0CBD0CBC0CBB0CFF3E031D6C2EE0
:100CE8003B08BF003F08C4000130A5000030A60043
:100CF8004408BB003B08A7004508BC003C08A80006
:100D08004608BD003D08A9004330BE003E08AA00C1
:100D180001300A128A15EE230A128A11831203136C
:100D28004308BB003B08B5000A300A128A15A22501
:100D38000A128A11013083120313C70700300318FF
:100D48000130C807003003180130C9070030031804
:100D58000130CA073A2EB501B50A08300A128A15B9
:100D6800A225080083120313B101B201E701DB01D8
:100D7800DC01063083120313B0001330AF00AD302E
:100D8800AE00AE0BC52EAF0BC52EB00BC52E831211
:100D98000313B301B4013408803AFF0080307F02A6
:100DA800031DD82E0D3033020318AC2F8312031302
:100DB80033080E3E84000A128A1500200A128A118E
:100DC800AE002E08A70006300A168A11F5260A1268
:100DD8008A11831203133308013E84000A128A150C
:100DE80000200A128A11AE002E08A70007300A1642
:100DF8008A11F5260A128A118312031333081B3E3F
:100E080084000A128A1500200A128A11AE002E08E0
:100E1800A70008300A168A11F5260A128A118312C9
:100E2800031333080E3E84000A128A1500200A12A2
:100E38008A11AE002E08A70009300A168A11F52675
:100E48000A128A11831203133308013E84000A121E
:100E58008A1500200A128A11AE002E08A7000A304F
:100E68000A168A11F5260A128A1183120313330807
:100E78001B3E84000A128A1500200A128A11AE004D
:100E88002E08A7000B300A168A11F5260A128A11B5
:100E98000E300A168A1129270A128A11023883127B
:100EA8000313AE002E08A7000E300A168A11F52685
:100EB8000A128A1140300A128A157F230A128A11EF
:100EC80083120313B101B201831203133208803A6B
:100ED800FF0080307F02031D732F05303102031895
:100EE800992F0E300A168A1129270A128A110239F7
:100EF8000319882F83120313E701E70A3408DC007B
:100F08003308DB0001300800013083120313B107F6
:100F18000318B20A0030B207C73083120313AE00B9
:100F2800952FAE0B942F982F682F0130831203133F
:100F3800B3070318B40A0030B4073408803AFF0036
:100F480080307F02031DAA2F0D303302031CDA2ED6
:100F58000030080083120313B200E92F2E08AF00F7
:100F68002F08A8002E080A128A1576200A128A115C
:100F7800831203132108AA002008A90032080A12C4
:100F88008A15B2210A128A11831203132808290428
:100F9800031DD02F320808002E0884000A128A1573
:100FA80000200A128A11AF00B0012F08A0003008F3
:100FB800A1003208013E0A168A11C6260A128A11B1
:100FC80083120313B1003108B20032080319F22F5B
:100FD8003208840083130008031DB22F0030080074
:100FE80083120313A300851223080A168A114F26B9
:100FF800831203138516080008308A000408840A3F
:10100800820700343F3447344F3457345F347734E1
:101018007E347F3486348734373467346F344F34C2
:10102800593463346D34773495349F349F34A934FC
:10103800A934453481348B3418341B341E3421349C
:1010480024342D347B3430347E343334153427340F
:101058002A344E34313442344C3449344E344B34CF
:1010680000344E34323442344C3449344E344B34E8
:1010780000340A128A1531210A128A1583120313C1
:10108800071D4828871408008710080083120313D7
:10109800A50001300A168A118A270A128A158312B6
:1010A8000313A40025088400240883138000023059
:1010B8000A168A118A270A128A1583120313A400B2
:1010C8002208840024088313800003300A168A113A
:1010D8008A2783120313A400230884002408831397
:1010E8008000080083120313A6002608A200220825
:1010F800A700270884000A128A1500200A128A15F8
:10110800003A03198C280130A2002208A7077D287D
:101118002608A2008030A300A209A309A20A031985
:10112800A30A2708A4008030A50022082407A000ED
:1011380023080318230A2507A100080083120313B4
:10114800A500881106300A168A114F260A128A1538
:10115800831203138815B0288312031388110130F2
:101168000A168A114F260A128A15831203132508B4
:101178000A168A114F260A128A1583120313881534
:10118800C5280A168A11B2260A128A1501390319C6
:101198000800C52883120313A200831603178C18AE
:1011A800D128831203132208831203178D00831298
:1011B80003132008831203178C003F308312031394
:1011C800A1002108831603178C058312031303104B
:1011D8008B1B03148B13831603170C1555308D00C6
:1011E800AA308D008C140C1183120313031C080001
:1011F8008B170800013083120313A9000030AA00DE
:101208002708803AA8002A08803A2802031D0E29D8
:1012180029082602031C08008312031387140230CE
:10122800A0000030A1000A168A1167270A128A1541
:101238008312031387100630A0000030A1000A169D
:101248008A1167270A128A15013083120313A90726
:101258000318AA0A0030AA0704291E3083120313B0
:1012680065066604031907193E290A168A11AE276E
:101278000A128A158312031368030319851C53295C
:101288000719532907150030A000A1007830A200E3
:101298000030A3000A168A117B260A128A158312C7
:1012A80003135608031908000A168A11AE270A12F2
:1012B8008A15831203136808031D851C6E290030E4
:1012C800A000A1007830A2000030A3000A168A11FD
:1012D8007B26080007110800F301F4017408803A1E
:1012E800FF0080307F02031D7B290530730203183D
:1012F80008007308F0007007C23E840083130008DA
:10130800F100840A0008F2007208803AFF00803079
:101318007F02031D912901307102031CA52973085E
:10132800F0007007C23E8400FF3083138007840FEB
:1013380000080318000AFF00FF307F0780008403BD
:10134800AB297308563E840083138001800A01305C
:10135800F3070318F40A0030F40772298312031301
:10136800AD000130A9020030031CAA03AA02290A11
:1013780003192A0A0319F3292D0884008313000886
:101388000319D429280884000A128A1500200A1291
:101398008A15AB002D08840000082B060319EA29DA
:1013A800280884000A128A150020AB00AC01AB099A
:1013B800AC09AB0A0319AC0A2D08840000082B07F6
:1013C800A8002C0803182C0AA90008000130AB005B
:1013D8002B08AD070130AB002B08A807B529A801D9
:1013E800A9010800023083120313A0000030A100F5
:1013F8000530A2000030A3000A168A117B260A12C3
:101408008A1520300A128A157F230A128A150D3090
:1014180083120313B600FB30B500B50B112AB60BC7
:10142800112A0E300A168A1129270A128A1502383B
:1014380083120313B5003508A7000E300A168A1167
:10144800F5260A128A1540300A128A157F230A12D5
:101458008A150E300A168A1129270A128A150239A6
:10146800031D402A83120313580803192D2A0A1250
:101478008A11B6260A128A1560300A128A157F2345
:101488000A128A15A53083120313B500B50B4A2A30
:101498004D2A83120313EA01EA0A080003300A16E8
:1014A8008A118A270A128A1583120313A3002308B4
:1014B800A4000130A3002308A4072408A3002308DC
:1014C800A00003300A128A15CE200A128A15831248
:1014D80003132408031D080002300A168A118A27FC
:1014E8000A128A1583120313A3002308A5000130EA
:1014F800A3002308A5072508A3002308A00002309D
:101508000A128A15CE200A128A1583120313250897
:10151800031D080001300A168A118A270A128A1543
:1015280083120313A3002308A6000130A300230895
:10153800A60720302602031CA52A1F30A300230873
:10154800A6002608A3002308A00001300A128A1565
:10155800CE200800831603130F178F160F120F14CF
:1015680083120313850186018701880189010B30E5
:101578008316031385003D3086001030870007303E
:101588008800073089008316031788018901081429
:1015980088158816081788170914831603138113EA
:1015A80015148312061CD52A831603139516831265
:1015B800861EDB2AF03094051412831603131417C1
:1015C8009413831203139416831603138C11831236
:1015D8000313851605160816881586148B150B1720
:1015E800831603130C148B179616303083120313CB
:1015F80090000B308F00DB308E0010141F139F13E8
:10160800831603139F139F121F1283120313E501FE
:10161800E601E101E201E301E4010800033083127D
:101628000313A0000030A1000530A2000030A30081
:101638000A168A117B260A128A1520300A128A1580
:101648007F230A128A1583120313EA0183160313F0
:10165800BE01BF01C001C1014108803AFF008030CE
:101668007F02031D392B1E3040020318632B83169B
:1016780003134008A03E8400831380010130C00793
:101688000318C10A0030C107302B0A168A115D26DB
:101698000A128A1583120313D100831603133E0816
:1016A800A03E840083120313510883138000013085
:1016B80083160313BE070318BF0A0030BF0783123F
:1016C8000313861D6A2B59080319492B0D30831201
:1016D8000313D200FB30D100D10B702BD20B702B2F
:1016E80000300A128A157F230A128A15A0300A12BE
:1016F8008A119022080083120313AC0005120030EF
:101708000A168A1129270A128A1583120313AB00B5
:101718002B08AD00D72B2D081F398038AB002B08BC
:10172800A70000300A168A11F5260A128A15EA2B34
:10173800831203132D081F396038AB002B08A7004C
:1017480000300A168A11F5260A128A15EA2B831226
:1017580003132D081F394038AB002B08A7000030B1
:101768000A168A11F5260A128A15EA2B8312031320
:101778002D081F392038AB002B08A70000300A16A7
:101788008A11F5260A128A15EA2B831203132D08EB
:101798001F39AB002B08A70000300A168A11F5265E
:1017A8000A128A15EA2B831203132C08003A03192C
:1017B800C92B203A0319BA2B603A0319AB2B203AEC
:1017C80003199C2BE03A03198F2BEA2B831203137E
:1017D8000516080083120313AD0088112D0803199C
:1017E800F72B0330052C06300A168A114F260A12E9
:1017F8008A158312031388150000831203138811B6
:1018080002300A168A114F260A128A158312031308
:1018180027080A168A114F260A128A1583120313FB
:1018280028080A168A114F260A128A1583120313EA
:1018380029080A168A114F260A128A1583120313D9
:10184800AE01AF0126082F02031D2C2C25082E02FD
:101858000318572C2D080319422C0A168A112D2615
:101868000A128A1583120313AB002E082A07AC004C
:101878002C0884002B08831380004E2C2E082A077E
:10188800AB002B088400831300080A168A114F2620
:101898000A128A15013083120313AE070318AF0A20
:1018A8000030AF07262C881500000A168A11B226C8
:1018B8000A128A15033903190800C7308312031363
:1018C800AB00662CAB0B652C692C592C83120313C7
:1018D800081212300A168A114F260A128A15013088
:1018E8000A168A114F260A128A1500300A168A111A
:1018F8004F260A128A158312031308160C30831216
:101908000313A300A30B862C0000831203130812F1
:1019180012300A168A114F260A128A1502300A1640
:101928008A114F260A128A1500300A168A114F2684
:101938000A128A158312031308160C308312031334
:10194800A300A30BA52C0000831203130812123066
:101958000A168A114F260A128A1508300A168A11A1
:101968004F260A128A1500300A168A114F260A12C3
:101978008A158312031308160C3083120313A3006D
:10198800A30BC42C000083120313081212300A168A
:101998008A114F260A128A1501300A168A114F2613
:1019A8000A128A1580300A168A114F260A128A15D9
:1019B800831203130816A401643024020318002DAF
:1019C800081213300A168A114F260A128A15043093
:1019D8000A168A114F260A128A150A168A112D2606
:1019E8000A128A152039031D002D013083120313B2
:1019F800A3002308A407E02C831203130816080089
:101A08000A128A15AE220A128A150A128A15162790
:101A18000A128A150A128A156A240A128A1583126A
:101A280003138610023083120313D5008630D400C6
:101A38009830D300D30B1E2DD40B1E2DD50B1E2D85
:101A48000000831203138614023083120313D50097
:101A58008630D4009830D300D30B302DD40B302DE2
:101A6800D50B302D000083120313061C061C3A2DDB
:101A78000A168A1146260A128A15003A031D492DAC
:101A88000A168A1129260A128A150A168A11462662
:101A98000A128A15013A031D562D0A168A11DB26E9
:101AA8000A128A150A168A1146260A128A15023A55
:101AB800031D632D0A128A153D200A128A150A167B
:101AC8008A1146260A128A15043A031D702D0A1631
:101AD8008A116B260A128A150A168A1146260A12D4
:101AE8008A15053A031D7D2D0A168A118D260A12BC
:101AF8008A15831203136A08031D872D0A128A1593
:101B0800F6210A128A1583120313061E932D6A08FA
:101B18000319932D0A128A1512230A128A158312A1
:101B2800031369080319372D07150A128A1145206E
:101B38000A128A1583120313E901372D831203133E
:101B4800BA000430A0000030A1000530A200003027
:101B5800A3000A168A117B260A128A158312031318
:101B6800B801B90120300A128A157F230A128A1592
:101B78000D3083120313B700FB30B600B60BC22D2D
:101B8800B70BC22D0E300A168A1129270A128A1598
:101B9800023883120313B6003608A7000E300A165F
:101BA8008A11F5260A128A1540300A128A157F23EF
:101BB8000A128A150E300A168A1129270A128A155E
:101BC8000239031DF12D831203135A080319DE2D60
:101BD8000A128A11B6260A128A1580300A128A1544
:101BE8007F230A128A15A53083120313B600B60B99
:101BF800FB2DFE2D53300A128A11F4270A128A157A
:101C080059300A128A11F4270A128A154E300A121C
:101C18008A11F4270A128A1543300A128A11F42706
:101C28000A128A152C300A128A11F4270A128A1508
:101C3800831203133A080A128A11F4270A128A1522
:101C48008312031335080A128A11F4270A128A1517
:101C580037300A128A11F4270A128A1583120313DD
:101C6800061A3B2E831203135A080319322E023028
:101C780083120313B600B60B3F2E000000300A1281
:101C88008A157F230A128A15413083120313B7007D
:101C9800ED30B600B60B4E2EB70B4E2E532E080065
:101CA800861A6C2E5D085E04031D6C2E0A168A11B6
:101CB8003D260A128A15F5000230750203186C2EAB
:101CC800013083120313DD000030DE00FC01FD014A
:101CD800831203130C1C092F10100B308F00DB30FC
:101CE8008E005D035E04031D9B2E6C08F6006B08D6
:101CF800F5000310F50DF60D7D08803AF70076081B
:101D0800803A7702031D8A2E75087C0203189B2EE1
:101D18000130FC070318FD0A0030FD078312031386
:101D28008718982E8714B92E871CB92EB82E8312BF
:101D380003135D035E04031DB92E6C08F6006B08DF
:101D4800F5000310F50DF60D7D08803AF7007608CA
:101D5800803A7702031DB22E75087C02031CB92E47
:101D680083120313DD01DE01871001308312031390
:101D7800E1070318E20A0030E2076208803AFF0030
:101D880080307F02031DCA2E02306102031CDB2E45
:101D980083120313E101E2010130E5070318E60AA3
:101DA8000030E6070A128A1570210A128A15831272
:101DB80003136608803AFF0080307F02031DE62E79
:101DC8003C306502031CF22E83120313E501E60181
:101DD8000130E3070318E40A0030E4078312031311
:101DE8006408803AFF0080307F02031DFD2E3C30DE
:101DF8006302031C052F83120313E301E401E901C5
:101E0800E90A8312031310140C100B108B177B08AC
:101E1800FF007A088A0079088400780E8300FE0E95
:101E28007E0E0900303083120313B5003508A70071
:101E380000300A168A11F5260A128A15A83083126C
:101E48000313B5003508A70001300A168A11F526D4
:101E58000A128A15093083120313B5003508A70042
:101E680002300A168A11F5260A128A1507308312DB
:101E78000313B5003508A70003300A168A11F526A2
:101E88000A128A150A3083120313B5003508A70011
:101E980005300A168A11F5260A128A15B9308312F6
:101EA8000313B5003508A7000D300A168A11F52668
:101EB8000A128A15113083120313B5003508A700DA
:101EC8000E300A168A11F5260A128A15A3308312D3
:101ED8000313B5003508A70010300A168A11F52635
:101EE8000A128A153E3083120313B5003508A7007D
:101EF80012300A168A11F5260A128A1553308312EF
:101F08000313B5003508A70016300A168A11F526FE
:101F18000A128A15593083120313B5003508A70031
:101F280017300A168A11F5260A128A154E308312BE
:101F38000313B5003508A70018300A168A11F526CC
:101F48000A128A15433083120313B5003508A70017
:101F580019300A168A11F5260A128A157230831268
:101F68000313B5003508A7001A300A168A11F5269A
:101F78000A128A153C3083120313B5003508A700EE
:101F88001B300A168A11F5260A128A158030831228
:101F98000313B5003508A7001F300A168A11F52665
:101FA8000A128A1500300A168A1129270A128A1578
:101FB800013883120313B5003508A70000300A164C
:101FC8008A11F5260A128A150A128A11B6260A12E9
:101FD8008A15013A031DFB2F013083120313A60053
:101FE8000030A7000A128A15FE200A128A1500304E
:081FF8000A128A157F2308007C
:102C4C005834023401340A128A153121080000303C
:102C5C000A168A114F268312031313080800640006
:102C6C008001840A0406031900340406362E8312EC
:102C7C00031306090739F0007008F1007108080009
:102C8C008312031306090739A0002008A1002108AC
:102C9C00080083120313A2001308A0002008A1004F
:102CAC008C11220893008C1D592E8C110800831254
:102CBC00031385120A168A112D2683120313A300FF
:102CCC002308A40085162408080083120313861A0F
:102CDC00772EB501B50A02300A128A15A2250A16FA
:102CEC008A110A128A153121080083120313200855
:102CFC00A4002407C23E8400220883138000840AA7
:102D0C00230880002008563E8400800108008312AE
:102D1C000313861A9B2E0230BB003B08B500023011
:102D2C000A128A15A2250A168A110A128A1531214D
:102D3C00080083120313A300A201231CA92E200850
:102D4C00A1002108A2070310A00D0310A30C230857
:102D5C00031DA32E220808008312031388110530CB
:102D6C000A168A114F260A168A110A168A112D265E
:102D7C0083120313A3002308A40088152408080059
:102D8C0083120313A2002208840083130008200678
:102D9C00031DD22E22080800220884000130A2074D
:102DAC000008031DC92E003008001E3083120313C7
:102DBC006506660403190719E82E0A168A11AE2750
:102DCC000A168A11831203135D035E04031DF32E8E
:102DDC006803031DF32E0715080007110800831262
:102DEC000313AA0005122A08A8002807A90029081D
:102DFC00AA002A080A168A114F260A168A1183126B
:102E0C00031327080A168A114F268312031305167B
:102E1C00080083120313A00103300A128A15CE2076
:102E2C000A168A1183120313A00102300A128A15A2
:102E3C00CE200A168A1183120313A00101300A1244
:102E4C008A15CE20080083120313A600051226084B
:102E5C00A30023074038A4002408A60026080A165D
:102E6C008A114F260A168A110A168A112D268312E8
:102E7C000313A3002308A5000516250808008312D8
:102E8C000313881106300A168A114F260A168A1166
:102E9C008312031388150000831203138811C730A3
:102EAC000A168A114F260A168A11831203138815E3
:102EBC000A168A11B2260A168A11003A031908005A
:102ECC005E2F83120313A401A5012508803AA200EA
:102EDC002108803A2202031D752F200824020318B2
:102EEC000800823083120313A300DD30A200A20B72
:102EFC007D2FA30B7D2F013083120313A40703181E
:102F0C00A50A0030A5076B2F83120313A100902F85
:102F1C00831203136400831603178C188E2F8312ED
:102F2C0003132108831203178D003F308312031300
:102F3C00A0002008831603178C050C1403100C1822
:102F4C000314003003180130831203170C08080017
:102F5C00831203136D03031DBA2F03300A168A1153
:102F6C00D5270A168A11C02F00300A168A118A2713
:102F7C000A168A1183120313A8002808A90000302E
:102F8C000A168A11D5270A168A11831203132902ED
:102F9C000318D32FE801E80A0800E801080083129F
:102FAC000313A70007102708A600A60DA60D1F08DF
:102FBC002606C33926069F001F140130A0000030DE
:102FCC00A1000A168A1167270A168A1183120313A5
:102FDC009F140130A0000030A1000A168A11672747
:102FEC000A168A11831203139F18F82F1F10071447
:042FFC001E080800A3
:02400E0014E0BC
:00000001FF
