:060000000A128A11122809
:10000800FE00030E83120313BF000408C0000A0891
:10001800C1007F08C2000A128A15602D0A128A11CF
:1000280015280A128A11FD270A128A11E1000A12FC
:100038008A11FE270A128A11E2000A128A11FF2782
:100048000A128A11E300831790308400B8300A1628
:100058008A1160240A128A1183160313D601D70164
:1000680083134330840061300A168A1160248301A7
:100078000A128A15162F333083120313AD002D0888
:10008800F4003430AE002E08F5003530AF002F08EC
:10009800F6003630B0003008F7003730B1003108CC
:1000A800F80032300A128A117E240A128A11831249
:1000B80003133708AD002D08B8003A30AD002D08FD
:1000C800F2003930AE002E08F3003B300A168A11D0
:1000D800F9250A128A110130F5000030F600831262
:1000E80003133B08AD002D08F7003A08AE002E08B0
:1000F800F8003908AF002F08F9003830B000300890
:10010800FA0000300A128A151B230A128A110A12F1
:100118008A1529210A128A11831203133608AD00A1
:100128002D08B8003A30AD002D08F2003930AE0085
:100138002E08F3003B300A168A11F9250A128A1193
:100148000130F5000030F600831203133B08AD00C0
:100158002D08F7003A08AE002E08F8003908AF005D
:100168002F08F9003830B0003008FA0000300A12C1
:100178008A151B230A128A110A128A1529210A12C2
:100188008A11831203133508AD002D08B8003A30E0
:10019800AD002D08F2003930AE002E08F3003B30D8
:1001A8000A168A11F9250A128A110130F500003061
:1001B800F600831203133B08AD002D08F7003A0838
:1001C800AE002E08F8003908AF002F08F9003830C3
:1001D800B0003008FA0000300A128A151B230A12F0
:1001E8008A110A128A1529210A128A118312031305
:1001F8003408AD002D08B8003A30AD002D08F200E3
:100208003930AE002E08F3003B300A168A11F92562
:100218000A128A110130F5000030F6008312031328
:100228003B08AD002D08F7003A08AE002E08F8008C
:100238003908AF002F08F9003830B0003008FA004C
:1002480000300A128A151B230A128A110A128A150B
:1002580029210A128A1100300A168A11AF260A12B9
:100268008A1183120313AD002D08B8003A30AD008F
:100278002D08F2003930AE002E08F3003B300A1684
:100288008A11F9250A128A110130F5000030F600AA
:10029800831203133B08AD002D08F7003A08AE009F
:1002A8002E08F8003908AF002F08F9003830B000E0
:1002B8003008FA0000300A128A151B230A128A1124
:1002C8000A128A1529210A128A1103300A168A117C
:1002D800AF260A128A1183120313AD002D08B80045
:1002E8003A30AD002D08F2003930AE002E08F30088
:1002F8003B300A168A11F9250A128A110130F500D5
:100308000030F600831203133B08AD002D08F700F8
:100318003A08AE002E08F8003908AF002F08F90097
:100328003830B0003008FA0000300A128A151B2352
:100338000A128A110A128A1529210A128A1105300D
:100348000A168A11AF260A128A1183120313AD0006
:100358002D08B8003A30AD002D08F2003930AE0053
:100368002E08F3003B300A168A11F9250A128A1161
:100378000130F5000030F600831203133B08AD008E
:100388002D08F7003A08AE002E08F8003908AF002B
:100398002F08F9003830B0003008FA0000300A128F
:1003A8008A151B230A128A110A128A1529210A1290
:1003B8008A1107300A168A11AF260A128A11831287
:1003C8000313AD002D08B8003A30AD002D08F20037
:1003D8003930AE002E08F3003B300A168A11F92591
:1003E8000A128A110130F5000030F6008312031357
:1003F8003B08AD002D08F7003A08AE002E08F800BB
:100408003908AF002F08F9003830B0003008FA007A
:1004180000300A128A151B230A128A110A128A1539
:1004280029210A128A1106300A168A11AF260A12E1
:100438008A1183120313AD002D08B8003A30AD00BD
:100448002D08F2003930AE002E08F3003B300A16B2
:100458008A11F9250A128A110130F5000030F600D8
:10046800831203133B08AD002D08F7003A08AE00CD
:100478002E08F8003908AF002F08F9003830B0000E
:100488003008FA0000300A128A151B230A128A1152
:100498000A128A1529210A128A1108300A168A11A5
:1004A800AF260A128A1183120313AD002D08B80073
:1004B8003A30AD002D08F2003930AE002E08F300B6
:1004C8003B300A168A11F9250A128A110130F50003
:1004D8000030F600831203133B08AD002D08F70027
:1004E8003A08AE002E08F8003908AF002F08F900C6
:1004F8003830B0003008FA0000300A128A151B2381
:100508000A128A110A128A15292108008316031370
:10051800D0002830CF004F08AE0050080A128A15C4
:100528009A200A128A11003A0319A22A0A168A1175
:1005380071240A128A11063A0319B92A303083162F
:100548000313CF004F08AE0050080A128A159A20EC
:100558000A128A11003A0319CC2A0A168A11712440
:100568000A128A11073A031DCC2A01308312031399
:10057800D6000030D700D401D501643083160313A8
:10058800A0000030A1000A168A111D260A128A113D
:1005980083160313500884002C3083170006031DAC
:1005A80008005008033E840037300006031D080089
:1005B8005B2C8312031307150A3083160313A0005C
:1005C8000030A1000A168A111D260A128A11831208
:1005D80003130711053083160313A0000030A10090
:1005E8000A168A111D2608008312031387140A307D
:1005F80083160313A0000030A1000A168A111D26D5
:100608000A128A1183120313871005308316031305
:10061800A0000030A1000A168A111D2608008312C6
:10062800031386100A3083160313A0000030A100BC
:100638000A168A111D260A128A11831203138614B8
:10064800053083160313A0000030A1000A168A1192
:100658001D260800831603135008023E84008317E2
:100668000008013A0319DD2A033A0319F82A013A66
:100678000319132B7D2C08005008023E8400000348
:10068800031D612B0A168A1171240A128A11063A6F
:10069800031D612B013083120313D6000030D700ED
:1006A800D401D501643083160313A0000030A100E3
:1006B8000A168A111D260A128A1183160313500876
:1006C800023E8400023083170006031D08000A1644
:1006D8008A1171240A128A11073A031D0800013091
:1006E80083120313D6000030D700D401D50164303B
:1006F80083160313A0000030A1000A168A111D26D4
:100708000800831603135008023E8400831700086C
:10071800031D080000300A168A11C7270A128A1119
:1007280083160313CF004F08B50003300A128A1549
:10073800AE240800831603135008023E8400831772
:100748000008031D080003300A168A11C7270A1279
:100758008A1183160313CF004F08B50004300A121C
:100768008A15AE240800831603135008023E84003D
:10077800831700080319CC2B5008023E8400000898
:10078800CF004F08A00000300A168A116027080021
:1007980000300A168A1141260A128A118316031399
:1007A800CF004F08B50005300A128A15AE2408009C
:1007B800831603135008023E840083170008031DA4
:1007C800FB2B831203136303031DF32B83160313FD
:1007D800B501B50A06300A128A15AE240800831638
:1007E8000313B50106300A128A15AE2408008316D1
:1007F80003135008023E840083170003031D092CCD
:1008080083120313E301E30A080083160313500855
:10081800023E84000008031D080083120313E3014D
:100828000800831603135008023E84000008031DC5
:1008380008000A128A11D6270A128A11831603138E
:10084800560803192E2CB501B50A07300A128A1565
:10085800AE240800023083160313CF004F08B500FA
:1008680007300A128A15AE2408000A168A112F25A5
:100878000A128A11E3390A168A1132270A128A11D2
:100888000A168A11D7250A128A110A168A114725CB
:100898000A128A1183160313B501B50A09300A1220
:1008A8008A15AE2408000A128A11B7250800831693
:1008B8000313500A840083170008013A03192E2BEA
:1008C800033A0319402B013A0319852B073A0319F8
:1008D8009E2B013A0319B72B033A0319DC2B013A73
:1008E8000319152C0F3A0319572C013A0319392CFF
:1008F8007D2C080083120313A600081213300A1671
:100908008A1189240A128A1101300A168A11892447
:100918000A128A110A168A1150240A128A117F397A
:10092800F900790883120313A7000A168A115024C4
:100938000A128A117F39F900790883120313A80073
:100948000A168A1150240A128A113F39F9007908C7
:1009580083120313A9000A168A1150240A128A1155
:10096800F900790883120313AC000A168A1150247F
:100978000A128A113F39F900790883120313AC006F
:100988000A168A1150240A128A111F39F9007908A7
:1009980083120313AA000A168A1150240A128A1114
:1009A800F900790883120313AB0008162708F90029
:1009B80004300310F90CFF3E031DDD2C79080739BC
:1009C800FA007A08A00027080F39F9007908A7006B
:1009D8000A30F9007908F00020080A168A11A724BD
:1009E8000A128A11831203132707FA0026088400C3
:1009F8007A08831380002808F90004300310F90CE2
:100A0800FF3E031D022D79080739FA007A08A10074
:100A180028080F39F9007908A8000A30F900790880
:100A2800F00021080A168A11A7240A128A118312D3
:100A380003132807FA00740884007A0883138000D7
:100A48002908F90004300310F90CFF3E031D272D77
:100A580079080339FA007A08A20029080F39F90041
:100A68007908A9000A30F9007908F00022080A1666
:100A78008A11A7240A128A11831203132907FA007C
:100A8800750884007A08831380002C08F900043064
:100A98000310F90CFF3E031D4C2D79080339FA00A9
:100AA8007A08A3002C080F39F9007908AC000A303D
:100AB800F9007908F00023080A168A11A7240A12F7
:100AC8008A11831203132C07FA00760884007A0827
:100AD800831380002A08F90004300310F90CFF3E44
:100AE800031D712D79080139FA007A08A4002A0833
:100AF8000F39F9007908AA000A30F9007908F000DE
:100B080024080A168A11A7240A128A1183120313C9
:100B18002A07FA00770884007A08831380002B08D4
:100B2800F90004300310F90CFF3E031D962D7908D7
:100B38000F39FA007A08A5002B080F39F90079084F
:100B4800AB000A30F9007908F00025080A168A1166
:100B5800A724831203132B07FA00780884007A0865
:100B6800831380000800003083160313C700003089
:100B7800C6000030C5000030C400C930BB003B08C7
:100B8800A200CA30BC003C08A300C8300A168A116B
:100B9800DA260A128A11831603134808BB00BC011F
:100BA800BD01BE014408BF004508C0004608C10099
:100BB8004708C20008300310BF0DC00DC10DC20D9B
:100BC800FF3E031DDF2D3F08BB044008BC0441085D
:100BD800BD044208BE043E08C7003D08C6003C08E4
:100BE800C5003B08C4004908BB00BC01BD01BE01EB
:100BF8004408BF004508C0004608C1004708C200B5
:100C080008300310BF0DC00DC10DC20DFF3E031DFE
:100C1800052E3F08BB044008BC044108BD04420837
:100C2800BE043E08C7003D08C6003C08C5003B0896
:100C3800C4004A08BB00BC01BD01BE014408BF0096
:100C48004508C0004608C1004708C2000830031024
:100C5800BF0DC00DC10DC20DFF3E031D2B2E3F0859
:100C6800BB044008BC044108BD044208BE043E0859
:100C7800C7003D08C6003C08C5003B08C40000305A
:100C8800CE000030CD000030CC000030CB004E0844
:100C9800031DCD2E4D08031DCD2E4C08031DCD2E52
:100CA800C8304B02031D582E0318CD2E4B08BB002D
:100CB8003B08CA004B08BB004C08BC004D08BD00EF
:100CC8004E08BE0008300310BE0CBD0CBC0CBB0C9B
:100CD800FF3E031D672E3B08BF003F08C9004B08B5
:100CE800BB004C08BC004D08BD004E08BE001030CB
:100CF8000310BE0CBD0CBC0CBB0CFF3E031D7C2EB0
:100D08003B08BF003F08C8000130A5000030A6001E
:100D18004808BB003B08A7004908BC003C08A800DD
:100D28004A08BD003D08A900C330BE003E08AA001D
:100D380001300A128A1590230A128A1183160313A6
:100D48004308BB003B08B5000A300A128A15AE24D6
:100D58000A128A11013083160313CB0700300318D7
:100D68000130CC07003003180130CD0700300318DC
:100D78000130CE074E08031DCD2E4D08031DCD2E84
:100D88004C08031DCD2EC8304B02031DCB2E031C6F
:100D98005A2EB501B50A08300A128A15AE24080081
:100DA80083160313B101B20183120313E001D201C8
:100DB800D301063083160313B0001330AF00B130EF
:100DC800AE00AE0BE52EAF0BE52EB00BE52EEC2EEC
:100DD80083160313B301B4013408803AFF0080304E
:100DE8007F02031DF92E0D3033020318D42F83160A
:100DF800031333080E3E84000A168A1100200A12D3
:100E08008A11AE002E08A70006300A168A119A2504
:100E18000A128A11831603133308013E84000A1646
:100E28008A1100200A128A11AE002E08A700073086
:100E38000A168A119A250A128A118316031333088F
:100E48001B3E84000A168A1100200A128A11AE007D
:100E58002E08A70008300A168A119A250A128A1144
:100E68008316031333080E3E84000A168A110020E5
:100E78000A128A11AE002E08A70009300A168A1134
:100E88009A250A128A11831603133308013E840037
:100E98000A168A1100200A128A11AE002E08A7002D
:100EA8000A300A168A119A250A128A118316031320
:100EB80033081B3E84000A168A1100200A128A1180
:100EC800AE002E08A7000B300A168A119A250A12BE
:100ED8008A110E300A168A1165260A128A110238FA
:100EE80083160313AE002E08A7000E300A168A11C7
:100EF8009A250A128A1140300A128A15AA220A1261
:100F08008A1183160313B101B20183160313320841
:100F1800803AFF0080307F02031D942F0530310294
:100F28000318C12F0E300A168A1165260A128A1173
:100F380002390319B12F83120313E001E00A831663
:100F48000313340883120313D300831603133308DF
:100F580083120313D20001300800013083160313F3
:100F6800B1070318B20A0030B207F930AE0000002A
:100F7800AE0BBB2FBF2F0000892F01308316031340
:100F8800B3070318B40A0030B4073408803AFF00E6
:100F980080307F02031DD22F0D303302031CFB2E3D
:100FA80000300800831203136303031DE22F03308C
:100FB8000A168A11C7270A128A11E82F00300A1662
:100FC8008A1141260A128A1183160313A8002808D9
:100FD800A90000300A168A11C7270A128A11831637
:100FE800031329020318FB2FD601D60A0800D601DD
:100FF800080058340234013483120313861A102867
:10100800023083160313BB003B08B50002300A12F6
:101018008A15AE240A128A150A128A15E0200800D9
:10102800F301F4017408803AFF0080307F02031D49
:101038001F2805307302031808007308F0007007B2
:10104800433E840083130008F100840A0008F2007C
:101058007208803AFF0080307F02031D3528013076
:101068007102031C49287308F0007007433E84008E
:10107800FF3083138007840F00080318000AFF005D
:10108800FF307F07800084034F2873084D3E84009B
:1010980083138001800A0130F3070318F40A003033
:1010A800F407162883160313AD000130A902003097
:1010B800031CAA03AA02290A03192A0A0319972852
:1010C8002D0884008317000803197828280884004D
:1010D8000A168A1100200A128A15AB002D0884000E
:1010E80000082B0603198E28280884000A168A117E
:1010F8000020AB00AC01AB09AC09AB0A0319AC0A80
:101108002D08840000082B07A8002C0803182C0AB7
:10111800A90008000130AB002B08AD070130AB0077
:101128002B08A8075928A801A9010800831603134A
:10113800B200D5282E08AF002F08A8002E080A16DE
:101148008A1106270A128A15831603132108AA0092
:101158002008A90032080A128A1556200A128A1590
:101168008316031328082904031DBC283208080025
:101178002E0884000A168A1100200A128A15AF0068
:10118800B0012F08A0003008A1003208013E0A165D
:101198008A1102250A128A1583160313B100310831
:1011A800B20032080319DE283208840083170008C9
:1011B800031D9E28003008001E30831203135E06AC
:1011C8005F0403190719ED280A128A11D6270A1293
:1011D8008A15831603135603031D06298312031366
:1011E8008518071906290715003083160313A00070
:1011F800A1007830A2000030A3000A168A11B82492
:101208000A128A15831203134D08031908000A12DB
:101218008A11D6270A128A1583160313560803194A
:10122800262983120313851C2629003083160313ED
:10123800A000A1007830A2000030A3000A168A118D
:10124800B824080083120711080003300A168A110F
:1012580061250A128A15F3007308F4000130F300BF
:101268007308F4077408F3007308F00003300A16D3
:101278008A1189260A128A157408031D080002308B
:101288000A168A1161250A128A15F3007308F500F7
:101298000130F3007308F5077508F3007308F000D0
:1012A80002300A168A1189260A128A157508031D42
:1012B800080001300A168A1161250A128A15F300FE
:1012C8007308F6000130F3007308F6072030760241
:1012D800031C72291F30F3007308F6007608F30028
:1012E8007308F00001300A168A11892608000230B6
:1012F80083160313A0000030A1000530A2000030BF
:10130800A3000A168A11B8240A128A1520300A1274
:101318008A15AA220A128A150D3083160313B600FD
:10132800FB30B500B50B9629B60B96299B290E30D4
:101338000A168A1165260A128A15023883160313BB
:10134800B5003508A7000E300A168A119A250A1228
:101358008A1540300A128A15AA220A128A150E30F6
:101368000A168A1165260A128A150239031DC6292A
:10137800831203134F080319B3290A128A11D426BA
:101388000A128A1560300A128A15AA220A128A15C8
:10139800A63083160313B500B50BD02900008316B9
:1013A8000313D701D70A0800831603130F178F16E4
:1013B8000F120F1483120313850186018701880118
:1013C80089010B308316031385003D3086001030E9
:1013D80087000730880007308900831603178801C3
:1013E80089010814881588160817881709148316A0
:1013F8000313811315148312061CFF298316031384
:1014080095168312861E052AF03094051412831649
:1014180003131417941383120313941683160313D8
:101428008C11831203138516051608168815861461
:101438008B150B17831603130C148B179616303065
:101448008312031390000B308F00DB308E001014D2
:101458001F139F13831603139F139F121F128312C8
:101468000313DE01DF01DA01DB01DC01DD01080025
:10147800033083160313A0000030A1000530A2003A
:101488000030A3000A168A11B8240A128A152030DF
:101498000A128A15AA220A128A1583160313D7017B
:1014A80083160317D601D701D801D9015908803A04
:1014B800FF0080307F02031D632A1E305802031884
:1014C8008D2A831603175808B83E840083178001B5
:1014D8000130D8070318D90A0030D9075A2A0A1642
:1014E8008A11DC240A128A1583160313D100831685
:1014F80003175608B83E8400831603135108831750
:101508008000013083160317D6070318D70A003066
:10151800D70783120313861D942A50080319732AC8
:101528000D3083160313D200FB30D100D10B9A2A59
:10153800D20B9A2A9F2A00300A128A15AA220A1266
:101548008A15B8300A128A118A22080083160313F2
:10155800AC0083120313051200300A168A1165269F
:101568000A128A1583160313AB002B08AD00042B4F
:101578002D081F398038AB002B08A70000300A1649
:101588008A119A250A128A15172B831603132D0818
:101598001F396038AB002B08A70000300A168A11E3
:1015A8009A250A128A15172B831603132D081F393B
:1015B8004038AB002B08A70000300A168A119A257C
:1015C8000A128A15172B831603132D081F39203882
:1015D800AB002B08A70000300A168A119A250A12B8
:1015E8008A15172B831603132D081F39AB002B08F8
:1015F800A70000300A168A119A250A128A15172B95
:10160800831603132C08003A0319F62A203A031903
:10161800E72A603A0319D82A203A0319C92AE03A76
:101628000319BC2A172B831203130516080083120B
:101638000313A000881120080319242B0330322B30
:1016480006300A168A1189240A128A15831203138E
:101658008815000083120313881102300A168A11B4
:1016680089240A128A1577080A168A1189240A1207
:101678008A1578080A168A1189240A128A1579089F
:101688000A168A1189240A128A1583120313A101E2
:10169800A20176082202031D532B750821020318A4
:1016A8007E2B20080319692B0A168A1150240A1266
:1016B8008A15FB008312031321087A07FC007C08B3
:1016C80084007B0883138000752B21087A07FB00B0
:1016D8007B088400831300080A168A1189240A12D9
:1016E8008A15013083120313A1070318A20A0030D8
:1016F800A2074D2B881500000A168A11EE240A123B
:101708008A15033903190800F930FB000000FB0BA8
:101718008A2B8E2B0000802B83160313AD008312B7
:1017280003138811831603132D0803199D2B033007
:10173800AB2B06300A168A1117250A128A1583124E
:1017480003138815000083120313881102300A1648
:101758008A1117250A128A158316031327080A16F1
:101768008A1117250A128A158316031328080A16E0
:101778008A1117250A128A158316031329080A16CF
:101788008A1117250A128A1583160313AE01AF01B1
:1017980026082F02031DD22B25082E020318FD2B25
:1017A8002D080319E82B0A168A1158240A128A15DB
:1017B80083160313AB002E082A07AC002C088400FC
:1017C8002B0883138000F42B2E082A07AB002B0864
:1017D8008400831300080A168A1117250A128A152D
:1017E800013083160313AE070318AF0A0030AF07A2
:1017F800CC2B83120313881500000A168A112F2593
:101808000A128A15033903190800F93083160313DD
:10181800AB000000AB0B0D2C112C0000012C831227
:101828000313081212300A168A1117250A128A158C
:1018380001300A168A1117250A128A1500300A166D
:101848008A1117250A128A158312031308160D30F8
:1018580083160313A300A30B2F2C83120313081260
:1018680012300A168A1117250A128A1502300A162A
:101878008A1117250A128A1500300A168A111725A7
:101888000A128A158312031308160D3083160313E0
:10189800A300A30B4D2C83120313081212300A164F
:1018A8008A1117250A128A1508300A168A1117256F
:1018B8000A128A1500300A168A1117250A128A1583
:1018C8008312031308160D3083160313A300A30B0A
:1018D8006B2C83120313081212300A168A1117256B
:1018E8000A128A1501300A168A1117250A128A1552
:1018F80080300A168A1117250A128A1583120313D3
:10190800081683160313A401643024020318AA2CB2
:1019180083120313081213300A168A1117250A12A4
:101928008A1504300A168A1117250A128A150A160A
:101938008A1158240A128A152039031DAA2C01304D
:1019480083160313A3002308A407882C8312031308
:101958000816080083160313BA000430A0000030EC
:10196800A1000530A2000030A3000A168A11B8248D
:101978000A128A1583160313B801B90120300A1216
:101988008A15AA220A128A150D3083160313B70086
:10199800FB30B600B60BCE2CB70BCE2CD32C0E30AA
:1019A8000A168A1165260A128A1502388316031345
:1019B800B6003608A7000E300A168A119A250A12B0
:1019C8008A1540300A128A15AA220A128A150E3080
:1019D8000A168A1165260A128A150239031DFE2C79
:1019E8008312031351080319EB2C0A128A11D42607
:1019F8000A128A1580300A128A15AA220A128A1532
:101A0800A63083160313B600B60B082D000053301A
:101A18000A168A1197240A128A1559300A168A1149
:101A280097240A128A154E300A168A1197240A1228
:101A38008A1543300A168A1197240A128A152C30FF
:101A48000A168A1197240A128A15831603133A086C
:101A58000A168A1197240A128A1583160313350861
:101A68000A168A1197240A128A1537300A168A111B
:101A780097240A128A1583120313061A482D831213
:101A88000313510803193F2D033083160313B600BF
:101A9800B60B4C2D00300A128A15AA220A128A1592
:101AA800413083160313B700EE30B600B60B5A2D3B
:101AB800B70B5A2D00000800861A782D56085704CF
:101AC800031D782D0A168A1168240A128A158312B2
:101AD8000313BC0002303C020318782D0130D600F5
:101AE8000030D700D401D5010C1C1F2E10100B306C
:101AF8008F00DB308E0056035704031DA52D6208A6
:101B0800BD006108BC000310BC0DBD0D5508803A2E
:101B1800BE003D08803A3E02031D942D3C08540245
:101B28000318A52D013083120313D4070318D50A0F
:101B38000030D5078718A22D8714C32D871CC32D05
:101B4800C22D8312031356035704031DC32D6208C5
:101B5800BD006108BC000310BC0DBD0D5508803ADE
:101B6800BE003D08803A3E02031DBC2D3C085402CD
:101B7800031CC32D83120313D601D701871001302C
:101B880083120313DA070318DB0A0030DB075B084C
:101B9800803AFF0080307F02031DD42D02305A02A4
:101BA800031CEE2D83120313DA01DB010130DE077B
:101BB8000318DF0A0030DF070A128A1514200A12F8
:101BC8008A1583120313861CEB2D8610EE2D8618BA
:101BD800EE2D8614831203135F08803AFF008030CD
:101BE8007F02031DF92D3C305E02031C0A2E83126E
:101BF8000313DE01DF010130DC070318DD0A0030C2
:101C0800DD070A128A113F200A128A15831203136C
:101C18005D08803AFF0080307F02031D152E3C309E
:101C28005C02031C1B2E83120313DC01DD018312EB
:101C3800031310140C100B108B174208FF004108F7
:101C48008A00400884003F0E8300FE0E7E0E0900C5
:101C5800303083160313B5003508A70000300A1684
:101C68008A119A250A128A15A83083160313B5001B
:101C78003508A70001300A168A119A250A128A1512
:101C8800093083160313B5003508A70002300A1679
:101C98008A119A250A128A15073083160313B5008C
:101CA8003508A70003300A168A119A250A128A15E0
:101CB8000A3083160313B5003508A70005300A1645
:101CC8008A119A250A128A15B93083160313B500AA
:101CD8003508A7000D300A168A119A250A128A15A6
:101CE800113083160313B5003508A7000E300A1605
:101CF8008A119A250A128A15A33083160313B50090
:101D08003508A70010300A168A119A250A128A1572
:101D18003E3083160313B5003508A70012300A16A3
:101D28008A119A250A128A15533083160313B500AF
:101D38003508A70016300A168A119A250A128A153C
:101D4800593083160313B5003508A70017300A1653
:101D58008A119A250A128A154E3083160313B50084
:101D68003508A70018300A168A119A250A128A150A
:101D7800433083160313B5003508A70019300A1637
:101D88008A119A250A128A15723083160313B50030
:101D98003508A7001A300A168A119A250A128A15D8
:101DA8003C3083160313B5003508A7001B300A160C
:101DB8008A119A250A128A15803083160313B500F2
:101DC8003508A7001F300A168A119A250A128A15A3
:101DD80000300A168A1165260A128A1501388316F8
:101DE8000313B5003508A70000300A168A119A2592
:101DF8000A128A150A128A11D4260A128A15013A79
:101E0800031D112F013083160313A6000030A7000D
:101E18000A168A1190270A128A1500300A128A15A2
:101E2800AA2208000A128A15D8210A128A150A124B
:101E38008A152C260A128A150A128A1513240A12E0
:101E48008A15831203138610023083160313D500F4
:101E58008630D4009930D300D30B302FD40B302FD9
:101E6800D50B302F83120313861402308316031305
:101E7800D5008630D4009930D300D30B412FD40B32
:101E8800412FD50B412F831203130618A62F861056
:101E9800023083160313D5008630D4009930D3005E
:101EA800D30B542FD40B542FD50B542F8312031359
:101EB8008614023083160313D5008630D400993077
:101EC800D300D30B652FD40B652FD50B652F0A16BE
:101ED8008A112F250A128A15E3390A168A11322720
:101EE8000A128A150A168A11D7250A128A150A169D
:101EF8008A1147250A128A158312031386100230A5
:101F080083160313D5008630D4009930D300D30B41
:101F18008B2FD40B8B2FD50B8B2F83120313861487
:101F2800023083160313D5008630D4009930D300CD
:101F3800D30B9C2FD40B9C2FD50B9C2F83120313F0
:101F4800061CA22F0A168A1171240A128A15003A51
:101F5800031DB32F0A168A114C240A128A150A1671
:101F68008A1171240A128A15013A031DC02F0A1614
:101F78008A11B8250A128A150A168A1171240A12BA
:101F88008A15023A031DCD2F0A168A117C240A12DB
:101F98008A150A168A1171240A128A15043A031D31
:101FA800DA2F0A168A11CA240A128A150A168A1101
:101FB80071240A128A15053A031DE72F0A128A1599
:101FC80000200A128A15831603135708031DF12FE0
:101FD8000A128A157B210A128A1583120313061E18
:101FE800472F8316031357080319472F0A128A1518
:101FF8003C220A128A15472F10308A000408840AE6
:10200800820700343F3447344F3457345F347734D1
:102018007E347F3486348734373467346F344F34B2
:10202800593463346D34773495349F349F34A934EC
:10203800A934453481348B3418341B341E3421348C
:1020480024342D347B3430347E34333415342734FF
:102058002A344E34313442344C3449344E344B34BF
:1020680000344E34323442344C3449344E344B34D8
:02207800003432
:102898000A128A15E020080000300A168A118924D5
:1028A800831203131308080000300A168A1117252B
:1028B800831203131308080064008001840A0406C5
:1028C800031900340406612C83120313060907391F
:1028D800F0007008F100710808008312031306095C
:1028E800073983160313A0002008A1002108080057
:1028F8000A128A15E0200A168A1183120313071D8B
:10290800872C8714080087100800F200831203132D
:102918001308F0007008F1008C11720893008C1DE8
:10292800932C8C11080083160313A300831203133E
:1029380085128316031323080A168A111725831292
:10294800031385160800F300F201731CAF2C7008FE
:10295800F1007108F2070310F00D0310F30C73086F
:10296800031DA92C72080800831603132008A4006D
:102978002407433E8400220883138000840A230826
:10298800800020084D3E8400800108008312031354
:10299800861AD82C83160313B501B50A02300A1219
:1029A8008A15AE240A168A110A128A15E020080030
:1029B8008312031385120A168A11582483160313E7
:1029C800A3002308A4008312031385168316031398
:1029D8002408080083120313881105300A168A1187
:1029E80089240A168A110A168A115024F3007308DA
:1029F800F400831203138815740808008316031360
:102A0800A20022088400831700082006031D0E2D4B
:102A180022080800220884000130A2070008031DCC
:102A2800052D0030080083160313A2008312031338
:102A3800130883160313A0002008A10083120313B0
:102A48008C118316031322088312031393008C1D21
:102A58002B2D8C11080083120313881105300A16D8
:102A68008A1117250A168A110A168A1158248316FC
:102A78000313A3002308A4008312031388158316E5
:102A880003132408080083160313A00103300A1651
:102A98008A1160270A168A1183160313A0010230CF
:102AA8000A168A1160270A168A1183160313A001D1
:102AB80001300A168A1160270800F10064008316A5
:102AC80003178C18622D7108831203178D003F308D
:102AD800F0007008831603178C050C1403100C18EB
:102AE8000314003003180130831203170C08080080
:102AF800F401F5017508803AF2007108803A720213
:102B0800031D882D70087402031808008230F30032
:102B1800DD30F200F20B8E2DF30B8E2D932D01304C
:102B2800F4070318F50A0030F5077E2D8316031302
:102B3800AA00831203130512831603132A08A80098
:102B48002807A9002908AA002A080A168A111725A1
:102B58000A168A118316031327080A168A111725DD
:102B680083120313051608001E30831203135E0632
:102B78005F0403190719C52D0A128A11D6270A16E8
:102B88008A118312031356035704031DD42D831689
:102B980003135603031DD42D8312031307150800CE
:102BA80083120711080083120313881106300A16CE
:102BB8008A1117250A168A11831203138815000033
:102BC800831203138811C7300A168A1117250A16AB
:102BD8008A118312031388150A168A112F250A16DB
:102BE8008A11003A03190800F02DF50001300A1681
:102BF8008A1161250A168A11F40075088400740880
:102C08008313800002300A168A1161250A168A1178
:102C1800F4007208840074088313800003300A16D5
:102C28008A116125F40073088400740883138000F6
:102C3800080083160313A401A5012508803AA20001
:102C48002108803A2202031D2B2E20082402031893
:102C58000800823083160313A300DD30A200A20B04
:102C6800332EA30B332E382E013083160313A407FB
:102C78000318A50A0030A507212E83160313A10007
:102C8800472E831603136400831603178C18452EEA
:102C9800831603132108831203178D003F30831610
:102CA8000313A0002008831603178C050C140310C7
:102CB8000C180314003003180130831203170C0892
:102CC800080083160313A600831203130512831644
:102CD80003132608A30023074038A4002408A600ED
:102CE80026080A168A1117250A168A110A168A1141
:102CF800582483160313A3002308A5008312031383
:102D080005168316031325080800F2008316031717
:102D18008C188A2E7208831203178D0070088C0095
:102D28003F30F1007108831603178C0583120313D3
:102D380003108B1B03148B13831603170C155530C4
:102D48008D00AA308D008C140C1183120313031C00
:102D580008008B170800F700831203130710770881
:102D6800F600F60DF60D1F087606C33976069F00A5
:102D78001F140130F0000030F1000A168A117C257A
:102D88000A168A11831203139F140130F0000030D1
:102D9800F1000A168A117C250A168A118312031378
:102DA8009F18D22E1F1007141E080800831603133D
:102DB800A50001300A168A1141260A168A118316BF
:102DC8000313A4002508840024088313800002301C
:102DD8000A168A1141260A168A1183160313A400BB
:102DE8002208840024088313800003300A168A11FD
:102DF800412683160313A4002308840024088313A0
:102E08008000080083160313A6002608A2002208E3
:102E1800A700270884000A168A1100200A168A11BA
:102E2800003A03191C2F0130A2002208A7070D2F12
:102E38002608A2008030A300A209A309A20A031948
:102E4800A30A2708A4008030A50022082407A000B0
:102E580023080318230A2507A10008008316031373
:102E6800A50083120313881106300A168A11172544
:102E78000A168A11831203138815422F831203132B
:102E8800881101300A168A1117250A168A11831625
:102E9800031325080A168A1117250A168A118312A0
:102EA80003138815572F0A168A112F250A168A1117
:102EB800013903190800572F83160313A20083163C
:102EC80003178C18632F8316031322088312031722
:102ED8008D00831603132008831203178C003F30DC
:102EE80083160313A1002108831603178C05831288
:102EF800031303108B1B03148B13831603170C1572
:102F080055308D00AA308D008C140C1183120313D8
:102F1800031C08008B170800013083160313A9004F
:102F28000030AA002708803AA8002A08803A280218
:102F3800031DA02F29082602031C0800831203136F
:102F48008714023083160313A0000030A1000A166C
:102F58008A111D260A168A11831203138710063058
:102F680083160313A0000030A1000A168A111D263B
:102F78000A168A11013083160313A9070318AA0A2F
:102F88000030AA07962F83160313A7008312031392
:102F98000710831603132708A600A60DA60D831293
:102FA80003131F08831603132606C3392606831244
:102FB80003139F001F14013083160313A000003071
:102FC800A1000A168A111D260A168A1183120313F4
:102FD8009F14013083160313A0000030A1000A16C5
:102FE8008A111D260A168A11831203139F18F82FB7
:082FF8001F1007141E08080059
:02400E0014E0BC
:00000001FF
