:060000000A128A11122809
:10000800FE00030EF8000408F9000A08FA0083123B
:1000180003137F08FB000A128A156F2C0A128A1133
:1000280015280A168A11C7240A128A11EB000A1623
:100038008A11C8240A128A11EC000A168A11C924E6
:100048000A128A11ED000A168A11CA240A128A11A4
:10005800EE000A168A11CB240A128A11EF008317C0
:1000680090308400B8300A128A1500200A128A11CA
:100078008313C2308400CC300A128A1500200A1279
:100088008A11563084006B300A128A150020FC0150
:10009800FD0183010A128A15C52B3E308312031312
:1000A800B8003808A4003F30B9003908A50040302E
:1000B800BA003A08A6004130BB003B08A70042300E
:1000C800BC003C08A8003D300A128A110C260A120E
:1000D8008A11831203134208B8003808C300453058
:1000E800B8003808A2004430B9003908A3004630E7
:1000F8000A168A11CB260A128A11013083120313B9
:10010800A5000030A6004608B8003808A700450832
:10011800B9003908A8004408BA003A08A9004330D1
:10012800BB003B08AA0000300A128A15AF220A1247
:100138008A110A128A151B260A128A1183120313BE
:100148004108B8003808C3004530B8003808A20094
:100158004430B9003908A30046300A168A11CB2664
:100168000A128A11013083120313A5000030A60079
:100178004608B8003808A7004508B9003908A8009B
:100188004408BA003A08A9004330BB003B08AA005B
:1001980000300A128A15AF220A128A110A128A1529
:1001A8001B260A128A11831203134008B800380864
:1001B800C3004530B8003808A2004430B9003908F7
:1001C800A30046300A168A11CB260A128A1101307A
:1001D80083120313A5000030A6004608B8003808AB
:1001E800A7004508B9003908A8004408BA003A0829
:1001F800A9004330BB003B08AA0000300A128A1548
:10020800AF220A128A110A128A151B260A128A11AB
:10021800831203133F08B8003808C3004530B800FC
:100228003808A2004430B9003908A30046300A163D
:100238008A11CB260A128A11013083120313A500F2
:100248000030A6004608B8003808A7004508B900DD
:100258003908A8004408BA003A08A9004330BB008E
:100268003B08AA0000300A128A15AF220A128A1126
:100278000A128A151B260A128A1100300A168A11D8
:10028800A0260A128A1183120313B8003808C30083
:100298004530B8003808A2004430B9003908A30036
:1002A80046300A168A11CB260A128A1101308312A7
:1002B8000313A5000030A6004608B8003808A700B8
:1002C8004508B9003908A8004408BA003A08A90046
:1002D8004330BB003B08AA0000300A128A15AF223F
:1002E8000A128A110A128A151B260A128A11033069
:1002F8000A168A11A0260A128A1183120313B8005B
:100308003808C3004530B8003808A2004430B900A6
:100318003908A30046300A168A11CB260A128A1118
:10032800013083120313A5000030A6004608B80068
:100338003808A7004508B9003908A8004408BA00D9
:100348003A08A9004330BB003B08AA0000300A1253
:100358008A15AF220A128A110A128A151B260A1256
:100368008A1105300A168A11A0260A128A118312E8
:100378000313B8003808C3004530B8003808A20095
:100388004430B9003908A30046300A168A11CB2632
:100398000A128A11013083120313A5000030A60047
:1003A8004608B8003808A7004508B9003908A80069
:1003B8004408BA003A08A9004330BB003B08AA0029
:1003C80000300A128A15AF220A128A110A128A15F7
:1003D8001B260A128A1107300A168A11A0260A1249
:1003E8008A1183120313B8003808C3004530B800D7
:1003F8003808A2004430B9003908A30046300A166C
:100408008A11CB260A128A11013083120313A50020
:100418000030A6004608B8003808A7004508B9000B
:100428003908A8004408BA003A08A9004330BB00BC
:100438003B08AA0000300A128A15AF220A128A1154
:100448000A128A151B260A128A1106300A168A1100
:10045800A0260A128A1183120313B8003808C300B1
:100468004530B8003808A2004430B9003908A30064
:1004780046300A168A11CB260A128A1101308312D5
:100488000313A5000030A6004608B8003808A700E6
:100498004508B9003908A8004408BA003A08A90074
:1004A8004330BB003B08AA0000300A128A15AF226D
:1004B8000A128A110A128A151B260A128A11083092
:1004C8000A168A11A0260A128A1183120313B80089
:1004D8003808C3004530B8003808A2004430B900D5
:1004E8003908A30046300A168A11CB260A128A1147
:1004F800013083120313A5000030A6004608B80097
:100508003808A7004508B9003908A8004408BA0007
:100518003A08A9004330BB003B08AA0000300A1281
:100528008A15AF220A128A110A128A151B26080098
:1005380083120313D0002830CF004F08AE005008B4
:100548000A128A157F200A128A11003A0319B42A5E
:100558000A128A11F7270A128A11063A0319CB2AB6
:10056800303083120313CF004F08AE0050080A1230
:100578008A157F200A128A11003A0319DC2A0A1206
:100588008A11F7270A128A11073A031DDC2A01305B
:1005980083120313DD000030DE00FC01FD0164302E
:1005A800A0000030A1000A168A110E260A128A112C
:1005B80083120313500884002C3083130006031D94
:1005C80008005008033E840037300006031D080069
:1005D800992C07150A30A0000030A1000A168A11CC
:1005E8000E260A128A118312031307110530A00080
:1005F8000030A1000A168A110E26080087140A3056
:10060800A0000030A1000A168A110E260A128A11CB
:100618008312031387100530A0000030A1000A16CA
:100628008A110E26080086100A30A0000030A100AA
:100638000A168A110E260A128A11831203138614C7
:100648000530A0000030A1000A168A110E26080005
:10065800831203135008023E840083130008013AF2
:100668000319ED2A033A0319022B013A0319172B30
:10067800BB2C08005008023E84000003031D692BB0
:100688000A128A11F7270A128A11063A031D692BE2
:10069800013083120313DD000030DE00FC01FD0190
:1006A8006430A0000030A1000A168A110E260A1232
:1006B8008A110A3083120313CF004F08B5000230A5
:1006C8000A128A1145270A128A1183120313500845
:1006D800023E8400023083130006031D982B0A1281
:1006E8008A11F7270A128A11073A031D982B01303D
:1006F80083120313DD000030DE00FC01FD016430CD
:10070800A0000030A1000A168A110E260A128A11CA
:100718000A3083120313CF004F08B50002300A12C3
:100728008A1145270A128A11831203135008023EC0
:1007380084000A3083130006031D08000A128A1178
:10074800F7270A128A11043A0319B22B0A128A11DE
:10075800F7270A128A11053A031D0800013083128F
:100768000313DD000030DE00FC01FD016430A00051
:100778000030A1000A168A110E26080083120313FE
:100788005008023E840083130008031D080000304F
:100798000A168A11A0260A128A1183120313CF009F
:1007A8004F08B50003300A128A1145270800831242
:1007B80003135008023E840083130008031D080039
:1007C80003300A168A11A0260A128A11831203130B
:1007D800CF004F08B50004300A128A1145270800D7
:1007E800831203135008023E840083130008031980
:1007F800092C5008023E84000008CF004F08A000D2
:1008080000300A168A114F27080000300A168A118C
:1008180031260A128A1183120313CF004F08B5003C
:1008280005300A128A11452708008312031350085D
:10083800023E840083130008031D342C6F03031D3C
:100848002C2CB501B50A06300A128A114527080072
:1008580083120313B50106300A128A1145270800CE
:10086800831203135008023E840083130003031D00
:10087800402CEF01EF0A08005008023E84000008EF
:10088800031D0800EF0108005008023E840000081C
:10089800031D08000A168A1179260A128A11831282
:1008A8000313680803195F2CB501B50A07300A124B
:1008B8008A1145270800023083120313CF004F081E
:1008C800B50007300A128A11452708000A168A114E
:1008D80059250A128A11E3390A168A1123270A129E
:1008E8008A110A168A11B6250A128A110A168A115D
:1008F800EC250A128A1183120313B501B50A0930CF
:100908000A128A1145270800831203136908031D78
:10091800912C0A128A11BC24080083120313B50112
:1009280008300A128A114527080083120313500A57
:10093800840083130008013A03192C2B033A031986
:100948003E2B013A0319C22B073A0319DB2B013A54
:100958000319F42B033A0319192C013A0319482CEB
:100968000F3A0319882C013A03196A2CBB2C08008A
:10097800003083120313C7000030C6000030C500E2
:100988000030C4004930BB003B08A2004A30BC001C
:100998003C08A30048300A168A11CB260A128A118D
:1009A800831203134808BB00BC01BD01BE013E0809
:1009B800C7003D08C6003C08C5003B08C4004908FC
:1009C800BB00BC01BD01BE014408BF004508C00012
:1009D8004608C1004708C20008300310BF0DC00D0B
:1009E800C10DC20DFF3E031DF12C3F08BB07400897
:1009F8000318400F002D012DBC0741080318410FB3
:100A0800062D072DBD0742080318420ABE073E08F7
:100A1800C7003D08C6003C08C5003B08C4004A089A
:100A2800BB00BC01BD01BE014408BF004508C000B1
:100A38004608C1004708C20008300310BF0DC00DAA
:100A4800C10DC20DFF3E031D212D3F08BB07400805
:100A58000318400F302D312DBC0741080318410FF2
:100A6800362D372DBD0742080318420ABE073E0837
:100A7800C7003D08C6003C08C5003B08C400033059
:100A8800BB003B08B50008300A128A1145270A1234
:100A98008A11003083120313CE000030CD000030DD
:100AA800CC000030CB0047084E02031D652D4608D8
:100AB8004D02031D652D45084C02031D652D440894
:100AC8004B020318052E4B08BB003B08CA004B0815
:100AD800BB004C08BC004D08BD004E08BE000830E5
:100AE8000310BE0CBD0CBC0CBB0CFF3E031D742DCB
:100AF8003B08BF003F08C9004B08BB004C08BC00BE
:100B08004D08BD004E08BE0010300310BE0CBD0CD1
:100B1800BC0CBB0CFF3E031D892D3B08BF003F08E2
:100B2800C8004E084D044C044B040319C42D003072
:100B380083120313A3000030A2000030A1000A3082
:100B4800A0004E08A7004D08A6004C08A5004B08B9
:100B5800A4000A128A15C5200A128A1183120313E7
:100B68002308220421042004031DCC2DB501B50A55
:100B78000C300A128A1145270A128A1183120313AC
:100B8800B501B50A0B300A128A1145270A128A11D3
:100B9800013083120313A5000030A6004808BB00EB
:100BA8003B08A7004908BC003C08A8004A08BD004B
:100BB8003D08A9004330BE003E08AA0001300A12D1
:100BC8008A15AF220A128A11831203134308BB0045
:100BD8003B08B5000A300A128A1145270A128A1101
:100BE800013083120313CB07003003180130CC0700
:100BF800003003180130CD07003003180130CE074C
:100C0800572DB501B50A08300A128A114527080080
:100C180083120313B100081213300A168A11F6243E
:100C28000A128A1101300A168A11F6240A128A1148
:100C38000A168A11CC240A128A117F3983120313E7
:100C4800A9002908B2000A168A11CC240A128A11AE
:100C58007F3983120313A9002908B3000A168A11E1
:100C6800CC240A128A113F3983120313A9002908D8
:100C7800B4000A168A11CC240A128A1183120313AB
:100C8800A9002908B7000A168A11CC240A128A1169
:100C98003F3983120313A9002908B7000A168A11DD
:100CA800CC240A128A111F3983120313A9002908B8
:100CB800B5000A168A11CC240A128A11831203136A
:100CC800A9002908B60008163208A9000430031044
:100CD800A90CFF3E031D6B2E29080739AA002A0814
:100CE800AB0032080F39A9002908B2000A30A90060
:100CF8002908A0002B080A168A1146250A128A110B
:100D0800831203133207AA00310884002A088313C8
:100D180080003308A90004300310A90CFF3E031D0E
:100D2800902E29080739AA002A08AC0033080F3981
:100D3800A9002908B3000A30A9002908A0002C0836
:100D48000A168A1146250A128A11831203133307D9
:100D5800AA00240884002A08831380003408A90004
:100D680004300310A90CFF3E031DB52E29080339D2
:100D7800AA002A08AD0034080F39A9002908B400D0
:100D88000A30A9002908A0002D080A168A1146254C
:100D98000A128A11831203133407AA002508840053
:100DA8002A08831380003708A90004300310A90C0F
:100DB800FF3E031DDA2E29080339AA002A08AE00CF
:100DC80037080F39A9002908B7000A30A9002908EF
:100DD800A0002E080A168A1146250A128A118312C3
:100DE80003133707AA00260884002A088313800003
:100DF8003508A90004300310A90CFF3E031DFF2E7F
:100E080029080139AA002A08AF0035080F39A900B6
:100E18002908B5000A30A9002908A0002F080A16D9
:100E28008A1146250A128A11831203133507AA006C
:100E3800270884002A08831380003608A900043094
:100E48000310A90CFF3E031D242F29080F39AA00FF
:100E58002A08B00036080F39A9002908B6000A3058
:100E6800A9002908A00030080A168A11462583120D
:100E780003133607AA00280884002A088313800071
:100E8800080083120313BA000430A0000030A10048
:100E98000530A2000030A3000A168A1122250A1282
:100EA8008A1183120313B801B90120300A128A1576
:100EB80040220A128A110D3083120313B700FB3047
:100EC800B600B60B652FB70B652F0E300A168A11C0
:100ED800D0250A128A11023883120313B600360885
:100EE800A7000E300A168A119C250A128A11403072
:100EF8000A128A1540220A128A110E300A168A111D
:100F0800D0250A128A110239031D942F8312031364
:100F18005A080319812F0A128A1508270A128A11FA
:100F280080300A128A1540220A128A11A5308312CB
:100F38000313B600B60B9E2FA12F53300A168A1141
:100F4800DD240A128A1159300A168A11DD240A1280
:100F58008A114E300A168A11DD240A128A1143308A
:100F68000A168A11DD240A128A112C300A168A11EF
:100F7800DD240A128A11831203133A080A168A1109
:100F8800DD240A128A118312031335080A168A11FE
:100F9800DD240A128A1137300A168A11DD240A1252
:100FA8008A1183120313061ADE2F831203135A08B9
:100FB8000319D52F023083120313B600B60BE22FA4
:100FC800000000300A128A1540220A128A114130A4
:100FD80083120313B700ED30B600B60BF12FB70B31
:100FE800F12FF62F08008312031308080739A00011
:100FF8002008A1002108080064008001840A040672
:101008000319003404060128013083120313A900D0
:101018000030AA002708803AA8002A08803A280247
:10102800031D182829082602031C0800831203132D
:1010380087140230A0000030A1000A168A110E267B
:101048000A128A158312031387100630A000003095
:10105800A1000A168A110E260A128A150130831277
:101068000313A9070318AA0A0030AA070E28831237
:101078000313AD000130A9020030031CAA03AA0221
:10108800290A03192A0A03197C282D0884008313C6
:10109800000803195D28280884000A168A11002010
:1010A8000A128A15AB002D08840000082B060319C4
:1010B8007328280884000A168A110020AB00AC01A6
:1010C800AB09AC09AB0A0319AC0A2D088400000867
:1010D8002B07A8002C0803182C0AA90008000130C7
:1010E800AB002B08AD070130AB002B08A8073E2842
:1010F800A801A901080083120313B200BA282E0818
:10110800AF002F08A8002E080A168A11F7260A121F
:101118008A15831203132108AA002008A90032089F
:101128000A128A153B200A128A158312031328080B
:101138002904031DA128320808002E0884000A1675
:101148008A1100200A128A15AF00B0012F08A000EA
:101158003008A1003208013E0A168A116D250A12CC
:101168008A1583120313B1003108B200320803193B
:10117800C3283208840083130008031D8328003025
:1011880008008312031323082204210420040319EE
:101198000A29A901A90AA31BDF280130A800031006
:1011A800A00DA10DA20DA30DA80BD3280130A800F6
:1011B8002808A907CF2823082702031DED2822089D
:1011C8002602031DED2821082502031DED2820080D
:1011D8002402031CFD282008A4022108031C210F57
:1011E800A5022208031C220FA6022308031C230FB2
:1011F800A70201300310A30CA20CA10CA00CFF3E07
:10120800031DFE280130A902031DDF282708A300BB
:101218002608A2002508A1002408A0000800023022
:1012280083120313A0000030A1000530A200003093
:10123800A3000A168A1122250A128A1520300A12DA
:101248008A1540220A128A150D3083120313B6003C
:10125800FB30B500B50B2E29B60B2E290E300A1619
:101268008A11D0250A128A15023883120313B50091
:101278003508A7000E300A168A119C250A128A150D
:1012880040300A128A1540220A128A150E300A16B0
:101298008A11D0250A128A150239031D5D29831285
:1012A8000313580803194A290A128A1508270A122B
:1012B8008A1560300A128A1540220A128A15A5304A
:1012C80083120313B500B50B67296A298312031328
:1012D800EA01EA0A0800831603130F178F160F1284
:1012E8000F14831203138501860187018801890180
:1012F8000B308316031385003D30860010308700BD
:101308000730880007308900831603178801890190
:1013180008148815881608178817091483160313E4
:10132800811315148312061C962983160313951628
:101338008312861E9C29F030940514128316031319
:1013480014179413831203139416831603138C1122
:1013580083120313851605160816881586148B152F
:101368000B17831603130C148B1796163030831241
:10137800031390000B308F00DB308E0010141F1306
:101388009F13831603139F139F121F1283120313B5
:10139800E501E601E101E201E301E40108000330AF
:1013A80083120313A0000030A1000530A200003012
:1013B800A3000A168A1122250A128A1520300A1259
:1013C8008A1540220A128A1583120313EA0183162A
:1013D8000313BE01BF01C001C1014108803AFF00EB
:1013E80080307F02031DFA291E3040020318242A88
:1013F800831603134008A03E840083138001013044
:10140800C0070318C10A0030C107F1290A168A115A
:1014180004250A128A1583120313D10083160313B5
:101428003E08A03E840083120313510883138000F2
:10143800013083160313BE070318BF0A0030BF0725
:1014480083120313861D2B2A590803190A2A0D3003
:1014580083120313D200FB30D100D10B312AD20BF7
:10146800312A00300A128A1540220A128A15A03041
:101478000A128A119C22080083120313AC00051279
:1014880000300A168A11D0250A128A15831203130E
:10149800AB002B08AD00982A2D081F398038AB0007
:1014A8002B08A70000300A168A119C250A128A15F3
:1014B800AB2A831203132D081F396038AB002B08A1
:1014C800A70000300A168A119C250A128A15AB2A31
:1014D800831203132D081F394038AB002B08A700CF
:1014E80000300A168A119C250A128A15AB2A831223
:1014F80003132D081F392038AB002B08A700003034
:101508000A168A119C250A128A15AB2A831203131C
:101518002D081F39AB002B08A70000300A168A11C6
:101528009C250A128A15AB2A831203132C08003A49
:1015380003198A2A203A03197B2A603A03196C2A6C
:10154800203A03195D2AE03A0319502AAB2A83127C
:1015580003130516080083120313AD0088112D0824
:101568000319B82A0330C62A06300A168A11F62447
:101578000A128A15831203138815000083120313B5
:10158800881102300A168A11F6240A128A15831263
:10159800031327080A168A11F6240A128A158312D9
:1015A800031328080A168A11F6240A128A158312C8
:1015B800031329080A168A11F6240A128A158312B7
:1015C8000313AE01AF0126082F02031DED2A2508DB
:1015D8002E020318182B2D080319032B0A168A113B
:1015E800CC240A128A1583120313AB002E082A078B
:1015F800AC002C0884002B08831380000F2B2E08C6
:101608002A07AB002B088400831300080A168A11E6
:10161800F6240A128A15013083120313AE07031841
:10162800AF0A0030AF07E72A881500000A168A11AA
:1016380059250A128A15033903190800C73083127D
:101648000313AB00272BAB0B262B2A2B1A2B831249
:101658000313081212300A168A11F6240A128A1580
:1016680001300A168A11F6240A128A1500300A1661
:101678008A11F6240A128A158312031308160C30ED
:1016880083120313A300A30B472B00008312031339
:10169800081212300A168A11F6240A128A15023024
:1016A8000A168A11F6240A128A1500300A168A11B7
:1016B800F6240A128A158312031308160C308312B3
:1016C8000313A300A30B662B000083120313081255
:1016D80012300A168A11F6240A128A1508300A16D8
:1016E8008A11F6240A128A1500300A168A11F6247D
:1016F8000A128A158312031308160C308312031377
:10170800A300A30B852B00008312031308121230C9
:101718000A168A11F6240A128A1501300A168A1145
:10172800F6240A128A1580300A168A11F6240A123B
:101738008A15831203130816A401643024020318BF
:10174800C12B081213300A168A11F6240A128A15B8
:1017580004300A168A11F6240A128A150A168A1102
:10176800CC240A128A152039031DC12B013083129B
:101778000313A3002308A407A12B8312031308163D
:1017880008000A128A156F210A128A150A128A1588
:1017980031250A128A150A128A152B230A128A156C
:1017A8000A128A11F7270A128A15033A031DE62B33
:1017B800B43083120313ED000030EE00B430EB00B8
:1017C8000030EC00831203138610023083120313D7
:1017D800D5008630D4009830D300D30BF12BD40B2E
:1017E800F12BD50BF12B0000831203138614023062
:1017F80083120313D5008630D4009830D300D30B5E
:10180800032CD40B032CD50B032C00000A128A11CD
:10181800F7270A128A15003A031D172C0A168A118F
:10182800C3240A128A150A128A11F7270A128A157E
:10183800013A031D242C0A168A1182250A128A15D8
:101848000A128A11F7270A128A15023A031D312C47
:101858000A168A11E9240A128A150A128A11F72728
:101868000A128A15043A031D3E2C0A168A111225FB
:101878000A128A150A128A11F7270A128A15053AD6
:10188800031D4B2C0A168A1134250A128A15831255
:1018980003136A08031D552C0A128A1513210A120C
:1018A8008A1583120313061E612C6A080319612C1A
:1018B8000A128A15D3210A128A158312031369089A
:1018C80003190A2C0A128A1151200A128A15831246
:1018D8000313E9010A2C861A872C5D085E04031D90
:1018E800872C0A168A11D4240A128A15F5000230A8
:1018F80075020318872C013083120313DD000030B2
:10190800DE00FC01FD01831203130C1C242D1010B2
:101918000B308F00DB308E005D035E04031DB62C98
:101928006E08F6006D08F5000310F50DF60D7D083C
:10193800803AF7007608803A7702031DA52C7508CF
:101948007C020318B62C0130FC070318FD0A00308E
:10195800FD07831203138718B32C8714D42C871C14
:10196800D42CD32C831203135D035E04031DD42CE3
:101978006E08F6006D08F5000310F50DF60D7D08EC
:10198800803AF7007608803A7702031DCD2C750857
:101998007C02031CD42C83120313DD01DE018710A3
:1019A800013083120313E1070318E20A0030E2074B
:1019B8006208803AFF0080307F02031DE52C023068
:1019C8006102031CF62C83120313E101E2010130CA
:1019D800E5070318E60A0030E6070A168A11BE274B
:1019E8000A128A15831203136608803AFF008030B2
:1019F8007F02031D012D3C306502031C0F2D83124D
:101A08000313E501E6010130E3070318E40A003097
:101A1800E407E901E90A831203136408803AFF0026
:101A280080307F02031D1A2D3C306302031C202DD9
:101A380083120313E301E4018312031310140C103F
:101A48000B108B177B08FF007A088A00790884003E
:101A5800780E8300FE0E7E0E0900303083120313C9
:101A6800B5003508A70000300A168A119C250A120D
:101A78008A15A83083120313B5003508A700013072
:101A88000A168A119C250A128A1509308312031333
:101A9800B5003508A70002300A168A119C250A12DB
:101AA8008A15073083120313B5003508A7000330E1
:101AB8000A168A119C250A128A150A308312031302
:101AC800B5003508A70005300A168A119C250A12A8
:101AD8008A15B93083120313B5003508A7000D30F5
:101AE8000A168A119C250A128A15113083120313CB
:101AF800B5003508A7000E300A168A119C250A126F
:101B08008A15A33083120313B5003508A7001030D7
:101B18000A168A119C250A128A153E30831203136D
:101B2800B5003508A70012300A168A119C250A123A
:101B38008A15533083120313B5003508A7001630F1
:101B48000A168A119C250A128A1559308312031322
:101B5800B5003508A70017300A168A119C250A1205
:101B68008A154E3083120313B5003508A7001830C4
:101B78000A168A119C250A128A1543308312031308
:101B8800B5003508A70019300A168A119C250A12D3
:101B98008A15723083120313B5003508A7001A306E
:101BA8000A168A119C250A128A153C3083120313DF
:101BB800B5003508A7001B300A168A119C250A12A1
:101BC8008A15803083120313B5003508A7001F302B
:101BD8000A168A119C250A128A1500300A168A11DB
:101BE800D0250A128A15013883120313B500350867
:101BF800A70000300A168A119C250A128A150A12B3
:101C08008A1508270A128A15013A031D162E013073
:101C180083120313A6000030A7000A128A150820B1
:101C28000A128A1500300A128A154022080000306C
:101C380083120313B5000030B4000030B300003045
:101C4800B2003030A7002708A2002F30A8002808CB
:101C5800A30031300A168A11CB260A128A1583127C
:101C680003133108A700A801A901AA012A08B50091
:101C78002908B4002808B3002708B2003008A700D4
:101C8800A801A901AA013208AB003308AC00340846
:101C9800AD003508AE0008300310AB0DAC0DAD0D2E
:101CA800AE0DFF3E031D502E2B08A7072C08031866
:101CB8002C0F5F2E602EA8072D0803182D0F652EF8
:101CC800662EA9072E0803182E0AAA072A08B500A7
:101CD8002908B4002808B3002708B2002F08A70075
:101CE800A801A901AA013208AB003308AC003408E6
:101CF800AD003508AE0008300310AB0DAC0DAD0DCE
:101D0800AE0DFF3E031D802E2B08A7072C080318D5
:101D18002C0F8F2E902EA8072D0803182D0F952E07
:101D2800962EA9072E0803182E0AAA072A08B50016
:101D38002908B4002808B3002708B2003508AA000B
:101D48003408A9003308A8003208A7000130B207F8
:101D58000030B3070318B40AB4070318B50AB50767
:101D68002A08031DC52E1F302902031DC32EFF306C
:101D78002802031DC32EFF302702031DC32E031C98
:101D8800CD2E0030B5001F30B400FF30B300FF3057
:101D9800B2003208A7002708AF003208A7003308AE
:101DA800A8003408A9003508AA0008300310AA0CB6
:101DB800A90CA80CA70CFF3E031DDA2E2708AB00C0
:101DC8002B08B0003208A7003308A8003408A9007F
:101DD8003508AA0010300310AA0CA90CA80CA70CEF
:101DE800FF3E031DEF2E2708AB002B08B10030087B
:101DF800A7002708A3002F08A8002808A400310876
:101E08000A168A115526080083120313B101B2017C
:101E1800E701DB01DC01063083120313B000133045
:101E2800AF00AD30AE00AE0B172FAF0B172FB00BB6
:101E3800172F83120313B301B4013408803AFF004B
:101E480080307F02031D2A2F0D3033020318FE2F26
:101E58008312031333080E3E84000A168A110020E9
:101E68000A128A15AE002E08A70006300A168A1133
:101E78009C250A128A15831203133308013E840035
:101E88000A168A1100200A128A15AE002E08A70029
:101E980007300A168A119C250A128A158312031321
:101EA80033081B3E84000A168A1100200A128A157C
:101EB800AE002E08A70008300A168A119C250A12BF
:101EC8008A158312031333080E3E84000A168A11FA
:101ED80000200A128A15AE002E08A70009300A163B
:101EE8008A119C250A128A15831203133308013EAE
:101EF80084000A168A1100200A128A15AE002E08DC
:101F0800A7000A300A168A119C250A128A1583121C
:101F1800031333081B3E84000A168A1100200A1294
:101F28008A15AE002E08A7000B300A168A119C25C8
:101F38000A128A150E300A168A11D0250A128A1535
:101F4800023883120313AE002E08A7000E300A16BB
:101F58008A119C250A128A1540300A128A154022D5
:101F68000A128A1583120313B101B20183120313F3
:101F78003208803AFF0080307F02031DC52F0530EC
:101F880031020318EB2F0E300A168A11D0250A12D7
:101F98008A1502390319DA2F83120313E701E70AB6
:101FA8003408DC003308DB000130080001308312FC
:101FB8000313B1070318B20A0030B207C7308312FF
:101FC8000313AE00E72FAE0BE62FEA2FBA2F01302E
:101FD80083120313B3070318B40A0030B407340894
:101FE800803AFF0080307F02031DFC2F0D30330242
:101FF800031C2C2F0030080010308A000408840AC3
:10200800820700343F3447344F3457345F347734D1
:102018007E347F3486348734373467346F344F34B2
:10202800593463346D34773495349F349F34A934EC
:10203800A934453481348B3418341B341E3421348C
:1020480024342D347B3430347E34333415342734FF
:102058002A344E34313442344C3449344E344B34BF
:1020680000344E34323442344C3449344E344B34D8
:02207800003432
:102986000A168A117F270800783400345834023436
:10299600013400300A168A11F62483120313130831
:1029A60008008312031308080739F0007008F100C5
:1029B6007108080083120313A300851223080A1660
:1029C6008A11F62483120313851608000A168A1143
:1029D6007F270A168A1183120313071DF42C871406
:1029E60008008710080083120313A2001308A00032
:1029F6002008A1008C11220893008C1D002D8C113B
:102A060008008312031385120A168A11CC24831236
:102A16000313A3002308A4008516240808008312C4
:102A26000313861A1E2DB501B50A02300A128A1141
:102A360045270A168A110A168A117F27080083126B
:102A460003132008A4002407C23E8400220883132F
:102A56008000840A230880002008563E84008001F6
:102A6600080083120313861A422D0230BB003B086E
:102A7600B50002300A128A1145270A168A110A166B
:102A86008A117F27080083120313A300A201231CC7
:102A9600502D2008A1002108A2070310A00D031045
:102AA600A30C2308031D4A2D2208080083120313D2
:102AB600881105300A168A11F6240A168A110A1692
:102AC6008A11CC2483120313A3002308A4008815BB
:102AD6002408080083120313A2002208840083132B
:102AE60000082006031D792D22080800220884000C
:102AF6000130A2070008031D702D003008001E30AB
:102B06008312031365066604031907198F2D0A1627
:102B16008A1179260A168A11831203135D035E044D
:102B2600031D9A2D6803031D9A2D0715080007112A
:102B3600080083120313AA0005122A08A800280712
:102B4600A9002908AA002A080A168A11F6240A16D4
:102B56008A118312031327080A168A11F624831290
:102B660003130516080083120313A00103300A1687
:102B76008A114F270A168A1183120313A001023005
:102B86000A168A114F270A168A1183120313A00107
:102B960001300A168A114F27080083120313A60074
:102BA60005122608A30023074038A4002408A6001F
:102BB60026080A168A11F6240A168A110A168A1196
:102BC600CC2483120313A3002308A50005162508A9
:102BD600080083120313881106300A168A11F62498
:102BE6000A168A1183120313881500008312031331
:102BF6008811C7300A168A11F6240A168A1183121A
:102C0600031388150A168A1159250A168A11003ADD
:102C160003190800052E83120313A401A501250834
:102C2600803AA2002108803A2202031D1C2E2008A9
:102C3600240203180800823083120313A300DD3038
:102C4600A200A20B242EA30B242E01308312031301
:102C5600A4070318A50A0030A507122E8312031332
:102C6600A100372E831203136400831603178C18F2
:102C7600352E831203132108831203178D003F306C
:102C860083120313A0002008831603178C050C1467
:102C960003100C18031400300318013083120317B5
:102CA6000C08080083120313A6002608A5002508B1
:102CB600A00001300A168A114F270A168A118312BC
:102CC60003132308A5002508A00002300A168A115E
:102CD6004F270A168A11831203132408A500250814
:102CE600A00003300A168A114F2708008312031327
:102CF6006F03031D852E03300A168A11A0260A16B5
:102D06008A118B2E00300A168A1131260A168A116C
:102D160083120313A8002808A90000300A168A1196
:102D2600A0260A168A1183120313290203189E2E5F
:102D3600E801E80A0800E801080083120313A70067
:102D460007102708A600A60DA60D1F082606C339DC
:102D560026069F001F140130A0000030A1000A16AD
:102D66008A110E260A168A11831203139F14013044
:102D7600A0000030A1000A168A110E260A168A1132
:102D8600831203139F18C32E1F1007141E08080072
:102D960083120313A50001300A168A1131260A167A
:102DA6008A1183120313A4002508840024088313C0
:102DB600800002300A168A1131260A168A118312F9
:102DC6000313A40022088400240883138000033020
:102DD6000A168A11312683120313A40023088400DD
:102DE600240883138000080083120313A600260814
:102DF600A2002208A700270884000A168A110020CC
:102E06000A168A11003A03190D2F0130A200220872
:102E1600A707FE2E2608A2008030A300A209A30958
:102E2600A20A0319A30A2708A4008030A5002208D5
:102E36002407A00023080318230A2507A100080079
:102E460083120313A500881106300A168A11F62488
:102E56000A168A11831203138815312F831203135E
:102E6600881101300A168A11F6240A168A1183126D
:102E7600031325080A168A11F6240A168A118312E4
:102E860003138815462F0A168A1159250A168A1120
:102E9600013903190800462F83120313A200831673
:102EA60003178C18522F8312031322088312031759
:102EB6008D00831203132008831203178C003F3002
:102EC60083120313A1002108831603178C058312AE
:102ED600031303108B1B03148B13831603170C1594
:102EE60055308D00AA308D008C140C1183120313FB
:102EF600031C08008B1708001E3083120313650697
:102F06006604031907198C2F0A168A1179260A16E0
:102F16008A118312031368030319851CA12F07194D
:102F2600A12F07150030A000A1006C08A3006B08B4
:102F3600A2000A168A1122250A168A118312031381
:102F46005608031908000A168A1179260A168A11E4
:102F5600831203136808031D851CBC2F0030A000D4
:102F6600A1006C08A3006B08A2000A168A1122258C
:102F7600080007110800F301F4017408803AFF0005
:102F860080307F02031DC92F053073020318080025
:102F96007308F0007007C23E840083130008F10036
:102FA600840A0008F2007208803AFF0080307F022F
:102FB600031DDF2F01307102031CF32F7308F0008D
:102FC6007007C23E8400FF3083138007840F000819
:102FD6000318000AFF00FF307F0780008403F92FE3
:102FE6007308563E840083138001800A0130F3077C
:0A2FF6000318F40A0030F407C02F9E
:02400E0014E0BC
:00000001FF
