:060000000A128A11122809
:10000800FE00030EF8000408F9000A08FA0083123B
:1000180003137F08FB000A128A156B2D0A128A1136
:1000280015280A128A153D200A128A11EB000A12B5
:100038008A153E200A128A11EC000A128A153F20FE
:100048000A128A11ED00831790308400B8300A161E
:100058008A115E250A128A118313C2308400CC30BB
:100068000A168A115E250A128A11563084006B30EE
:100078000A168A115E25FC01FD0183010A128A1500
:100088002D2E3E3083120313B8003808A4003F30E9
:10009800B9003908A5004030BA003A08A600413036
:1000A800BB003B08A7004230BC003C08A8003D301C
:1000B8000A128A11C2250A128A11831203134208EE
:1000C800B8003808C3004530B8003808A2004430EA
:1000D800B9003908A30046300A168A1119270A12EE
:1000E8008A11013083120313A5000030A6004608C8
:1000F800B8003808A7004508B9003908A80044081E
:10010800BA003A08A9004330BB003B08AA000030F7
:100118000A128A15AD230A128A110A128A15B52104
:100128000A128A11831203134108B8003808C30061
:100138004530B8003808A2004430B9003908A30097
:1001480046300A168A1119270A128A1101308312B9
:100158000313A5000030A6004608B8003808A70019
:100168004508B9003908A8004408BA003A08A900A7
:100178004330BB003B08AA0000300A128A15AD23A1
:100188000A128A110A128A15B5210A128A118312D3
:1001980003134008B8003808C3004530B8003808D1
:1001A800A2004430B9003908A30046300A168A1163
:1001B80019270A128A11013083120313A50000308F
:1001C800A6004608B8003808A7004508B90039084D
:1001D800A8004408BA003A08A9004330BB003B080D
:1001E800AA0000300A128A15AD230A128A110A12CF
:1001F8008A15B5210A128A11831203133F08B80021
:100208003808C3004530B8003808A2004430B900A7
:100218003908A30046300A168A1119270A128A11CA
:10022800013083120313A5000030A6004608B80069
:100238003808A7004508B9003908A8004408BA00DA
:100248003A08A9004330BB003B08AA0000300A1254
:100258008A15AD230A128A110A128A15B5210A12C3
:100268008A1100300A168A11EE260A128A118312A0
:100278000313B8003808C3004530B8003808A20096
:100288004430B9003908A30046300A168A111927E4
:100298000A128A11013083120313A5000030A60048
:1002A8004608B8003808A7004508B9003908A8006A
:1002B8004408BA003A08A9004330BB003B08AA002A
:1002C80000300A128A15AD230A128A110A128A15F9
:1002D800B5210A128A1103300A168A11EE260A126B
:1002E8008A1183120313B8003808C3004530B800D8
:1002F8003808A2004430B9003908A30046300A166D
:100308008A1119270A128A11013083120313A500D2
:100318000030A6004608B8003808A7004508B9000C
:100328003908A8004408BA003A08A9004330BB00BD
:100338003B08AA0000300A128A15AD230A128A1156
:100348000A128A15B5210A128A1105300A168A116D
:10035800EE260A128A1183120313B8003808C30064
:100368004530B8003808A2004430B9003908A30065
:1003780046300A168A1119270A128A110130831287
:100388000313A5000030A6004608B8003808A700E7
:100398004508B9003908A8004408BA003A08A90075
:1003A8004330BB003B08AA0000300A128A15AD236F
:1003B8000A128A110A128A15B5210A128A110730FF
:1003C8000A168A11EE260A128A1183120313B8003C
:1003D8003808C3004530B8003808A2004430B900D6
:1003E8003908A30046300A168A1119270A128A11F9
:1003F800013083120313A5000030A6004608B80098
:100408003808A7004508B9003908A8004408BA0008
:100418003A08A9004330BB003B08AA0000300A1282
:100428008A15AD230A128A110A128A15B5210A12F1
:100438008A1106300A168A11EE260A128A118312C8
:100448000313B8003808C3004530B8003808A200C4
:100458004430B9003908A30046300A168A11192712
:100468000A128A11013083120313A5000030A60076
:100478004608B8003808A7004508B9003908A80098
:100488004408BA003A08A9004330BB003B08AA0058
:1004980000300A128A15AD230A128A110A128A1527
:1004A800B5210A128A1108300A168A11EE260A1294
:1004B8008A1183120313B8003808C3004530B80006
:1004C8003808A2004430B9003908A30046300A169B
:1004D8008A1119270A128A11013083120313A50001
:1004E8000030A6004608B8003808A7004508B9003B
:1004F8003908A8004408BA003A08A9004330BB00EC
:100508003B08AA0000300A128A15AD230A128A1184
:100518000A128A15B521080083120313D000283067
:10052800CF004F08AE0050080A128A1521210A127E
:100538008A11003A0319A82A0A168A116F250A1285
:100548008A11063A0319BF2A303083120313CF00E9
:100558004F08AE0050080A128A1521210A128A1182
:10056800003A0319D02A0A168A116F250A128A112D
:10057800073A031DD02A013083120313DD0000302F
:10058800DE00FC01FD016430A0000030A1000A1665
:100598008A117F260A128A118312031350088400D5
:1005A8002C3083130006031D08005008033E840006
:1005B80037300006031D08004A2C07150A30A00032
:1005C8000030A1000A168A117F260A128A118312A6
:1005D800031307110530A0000030A1000A168A1184
:1005E8007F26080087140A30A0000030A1000A16F0
:1005F8008A117F260A128A11831203138710053085
:10060800A0000030A1000A168A117F260800861073
:100618000A30A0000030A1000A168A117F260A12AB
:100628008A118312031386140530A0000030A1003C
:100638000A168A117F260800831203135008023E07
:10064800840083130008013A0319E12A033A0319C5
:10065800F62A013A03190B2B6C2C08005008023EAD
:1006680084000003031D512B0A168A116F250A12F4
:100678008A11063A031D512B013083120313DD0042
:100688000030DE00FC01FD016430A0000030A10054
:100698000A168A117F260A128A1183120313500838
:1006A800023E8400023083130006031D08000A1668
:1006B8008A116F250A128A11073A031D08000130B2
:1006C80083120313DD000030DE00FC01FD016430FD
:1006D800A0000030A1000A168A117F2608008312A4
:1006E80003135008023E840083130008031D08000A
:1006F80000300A168A11EE260A128A118312031391
:10070800CF004F08B50003300A128A15BB24080031
:10071800831203135008023E840083130008031D4C
:10072800080003300A168A11EE260A128A1183126B
:100738000313CF004F08B50004300A128A15BB24F2
:100748000800831203135008023E84008313000834
:100758000319BA2B5008023E84000008CF004F0846
:10076800A00000300A168A119D27080000300A16DA
:100778008A11A3260A128A1183120313CF004F0885
:10078800B50005300A128A15BB240800831203132A
:100798005008023E840083130008031DE52B6D03F7
:1007A800031DDD2BB501B50A06300A128A15BB24D4
:1007B800080083120313B50106300A128A15BB24F8
:1007C8000800831203135008023E840083130003B9
:1007D800031DF12BED01ED0A08005008023E8400CC
:1007E8000008031D0800ED0108005008023E8400BF
:1007F8000008031D08000A168A11C7260A128A1162
:100808008312031368080319102CB501B50A0730C1
:100818000A128A15BB240800023083120313CF0082
:100828004F08B50007300A128A15BB2408000A16BB
:100838008A11E6250A128A11E3390A168A117127E4
:100848000A128A110A168A1143260A128A110A16EE
:100858008A115D260A128A1183120313B501B50A9B
:1008680009300A128A15BB24080083120313690889
:10087800031D422C0A128A116D24080083120313E7
:10088800B50108300A128A15BB2408008312031325
:10089800500A840083130008013A0319202B033AF5
:1008A8000319322B013A0319732B073A03198C2BBE
:1008B800013A0319A52B033A0319CA2B013A031964
:1008C800F92B0F3A0319392C013A03191B2C6C2CFC
:1008D8000800003083120313CA000030C90000303A
:1008E800C8000030C7004530BB003B08A2004630B6
:1008F800BC003C08A30044300A168A1119270A12C2
:100908008A11831203134408BB00BC01BD01BE0158
:100918004708BF004808C0004908C1004A08C2008B
:1009280008300310BF0DC00DC10DC20DFF3E031DE1
:10093800952C3F08BB044008BC044108BD0442088C
:10094800BE043E08CA003D08C9003C08C8003B0870
:10095800C7004508BB00BC01BD01BE014708BF0078
:100968004808C0004908C1004A08C20008300310FE
:10097800BF0DC00DC10DC20DFF3E031DBB2C3F08AE
:10098800BB044008BC044108BD044208BE043E083C
:10099800CA003D08C9003C08C8003B08C700460813
:1009A800BB00BC01BD01BE014708BF004808C0002C
:1009B8004908C1004A08C20008300310BF0DC00D25
:1009C800C10DC20DFF3E031DE12C3F08BB044008CA
:1009D800BC044108BD044208BE043E08CA003D08E4
:1009E800C9003C08C8003B08C7000330BB003B08EF
:1009F800B50008300A128A15BB240A128A11003081
:100A080083120313CE000030CD000030CC0000303C
:100A1800CB004A084E02031D1B2D49084D02031D39
:100A28001B2D48084C02031D1B2D47084B020318B9
:100A3800BB2D4B08BB003B08C6004B08BB004C084D
:100A4800BC004D08BD004E08BE0008300310BE0CA7
:100A5800BD0CBC0CBB0CFF3E031D2A2D3B08BF0080
:100A68003F08C5004B08BB004C08BC004D08BD0042
:100A78004E08BE0010300310BE0CBD0CBC0CBB0CE5
:100A8800FF3E031D3F2D3B08BF003F08C4004E0832
:100A98004D044C044B0403197A2D003083120313C0
:100AA800A3000030A2000030A1000A30A0004E08C8
:100AB800A7004D08A6004C08A5004B08A4000A1280
:100AC8008A1567210A128A11831203132308220444
:100AD80021042004031D822DB501B50A0C300A1229
:100AE8008A15BB240A128A1183120313B501B50AA9
:100AF8000B300A128A15BB240A128A11013083129C
:100B08000313A5000030A6004408BB003B08A7005B
:100B18004508BC003C08A8004608BD003D08A900DF
:100B28004330BE003E08AA0001300A128A15AD23E0
:100B38000A128A11831203134308BB003B08B5004D
:100B48000A300A128A15BB240A128A11013083124C
:100B58000313CB07003003180130CC07003003180B
:100B68000130CD07003003180130CE070D2DB50137
:100B7800B50A08300A128A15BB2408008312031329
:100B8800B100081213300A168A1191250A128A1127
:100B980001300A168A1191250A128A110A168A1139
:100BA80056250A128A117F3983120313A9002908CE
:100BB800B2000A168A1156250A128A117F39831241
:100BC8000313A9002908B3000A168A1156250A1228
:100BD8008A113F3983120313A9002908B4000A16A1
:100BE8008A1156250A128A1183120313A9002908AB
:100BF800B7000A168A1156250A128A113F3983123C
:100C08000313A9002908B7000A168A1156250A12E3
:100C18008A111F3983120313A9002908B5000A167F
:100C28008A1156250A128A1183120313A90029086A
:100C3800B60008163208A90004300310A90CFF3EBC
:100C4800031D212E29080739AA002A08AB003208FB
:100C58000F39A9002908B2000A30A9002908A00004
:100C68002B080A168A11D3250A128A118312031334
:100C78003207AA00310884002A0883138000330849
:100C8800A90004300310A90CFF3E031D462E2908B5
:100C98000739AA002A08AC0033080F39A900290827
:100CA800B3000A30A9002908A0002C080A168A11E6
:100CB800D3250A128A11831203133307AA002408C2
:100CC80084002A08831380003408A9000430031024
:100CD800A90CFF3E031D6B2E29080339AA002A0818
:100CE800AD0034080F39A9002908B4000A30A9005A
:100CF8002908A0002D080A168A11D3250A128A117C
:100D0800831203133407AA00250884002A088313D2
:100D180080003708A90004300310A90CFF3E031D0A
:100D2800902E29080339AA002A08AE0037080F397F
:100D3800A9002908B7000A30A9002908A0002E0830
:100D48000A168A11D3250A128A1183120313370748
:100D5800AA00260884002A08831380003508A90001
:100D680004300310A90CFF3E031DB52E29080139D4
:100D7800AA002A08AF0035080F39A9002908B500CC
:100D88000A30A9002908A0002F080A168A11D325BD
:100D98000A128A11831203133507AA002708840050
:100DA8002A08831380003608A90004300310A90C10
:100DB800FF3E031DDA2E29080F39AA002A08B000C1
:100DC80036080F39A9002908B6000A30A9002908F1
:100DD800A00030080A168A11D32583120313360798
:100DE800AA00280884002A088313800008008312B8
:100DF8000313B101B201E701DB01DC010630B000E9
:100E08001330AF00B130AE00AE0B082FAF0B082F78
:100E1800B00B082F0F2F83120313B301B40134084A
:100E2800803AFF0080307F02031D1C2F0D303302F3
:100E38000318EF2F8312031333080E3E84000A129F
:100E48008A1500200A128A11AE002E08A700063063
:100E58000A168A1129260A128A11831203133308E3
:100E6800013E84000A128A1500200A128A11AE0077
:100E78002E08A70007300A168A1129260A128A1195
:100E88008312031333081B3E84000A128A150020BC
:100E98000A128A11AE002E08A70008300A168A1115
:100EA80029260A128A118312031333080E3E84007E
:100EB8000A128A1500200A128A11AE002E08A7000D
:100EC80009300A168A1129260A128A118312031375
:100ED8003308013E84000A128A1500200A128A117A
:100EE800AE002E08A7000A300A168A1129260A120F
:100EF8008A118312031333081B3E84000A128A15D1
:100F080000200A128A11AE002E08A7000B300A161C
:100F18008A1129260A128A110E300A128A154020CF
:100F28000A128A11023883120313AE002E08A70092
:100F38000E300A168A1129260A128A1140300A121E
:100F48008A153E230A128A1183120313B101B201D2
:100F5800831203133208803AFF0080307F02031D9A
:100F6800B72F053031020318DC2F0E300A128A150C
:100F780040200A128A1102390319CC2F8312031355
:100F8800E701E70A3408DC003308DB000130080019
:100F9800013083120313B1070318B20A0030B207F5
:100FA800F930AE000000AE0BD62FDA2F0000AC2FC0
:100FB800013083120313B3070318B40A0030B407CF
:100FC8003408803AFF0080307F02031DED2F0D307A
:100FD8003302031C1E2F00300800831203138512EE
:100FE8000A168A11562583120313A3002308A400A6
:060FF80085162408080024
:1010000008308A000408840A820700343F344734D9
:101010004F3457345F3477347E347F3486348734AA
:10102000373467346F344F34593463346D34773424
:1010300095349F349F34A934A934453481348B349A
:1010400018341B341E34213424342D347B34303492
:101050007E343334153427342A344E343134423418
:101060004C3449344E344B3400344E3432344234F0
:101070004C3449344E344B34003458340234013447
:1010800083120313A60005122608A3002307403885
:10109000A4002408A60026080A168A1191250A121F
:1010A0008A150A168A11562583120313A3002308F2
:1010B000A5000516250808001E30831203136506D7
:1010C00066040319071969280A168A11C7260A1225
:1010D0008A158312031368030319851C7E280719D8
:1010E0007E2807150030A000A1007830A200003053
:1010F000A3000A168A11AF250A128A158312031358
:101100005608031908000A168A11C7260A128A15FA
:10111000831203136808031D851C99280030A00062
:10112000A1007830A2000030A3000A168A11AF2572
:10113000080007110800F301F4017408803AFF0069
:1011400080307F02031DA6280530730203180800B3
:101150007308F0007007C23E840083130008F1009A
:10116000840A0008F2007208803AFF0080307F0293
:10117000031DBC2801307102031CD0287308F00045
:101180007007C23E8400FF3083138007840F00087D
:101190000318000AFF00FF307F0780008403D62871
:1011A0007308563E840083138001800A0130F307E0
:1011B0000318F40A0030F4079D2883120313AD00CE
:1011C0000130A9020030031CAA03AA02290A03194C
:1011D0002A0A03191E292D08840083130008031905
:1011E000FF28280884000A128A1500200A128A158E
:1011F000AB002D08840000082B06031915292808C8
:1012000084000A128A150020AB00AC01AB09AC09BE
:10121000AB0A0319AC0A2D08840000082B07A800AC
:101220002C0803182C0AA90008000130AB002B0879
:10123000AD070130AB002B08A807E028A801A901E1
:10124000080083120313B2005C292E08AF002F0898
:10125000A8002E080A168A1145270A128A15831239
:1012600003132108AA002008A90032080A128A15CF
:10127000DD200A128A158312031328082904031D8E
:101280004329320808002E0884000A128A1500201B
:101290000A128A15AF00B0012F08A0003008A10083
:1012A0003208013E0A168A11FA250A128A1583129B
:1012B0000313B1003108B20032080319652932085E
:1012C000840083130008031D2529003008008312C1
:1012D000031323082204210420040319AC29A901C3
:1012E000A90AA31B81290130A8000310A00DA10D9C
:1012F000A20DA30DA80B75290130A8002808A90785
:10130000712923082702031D8F2922082602031DA5
:101310008F2921082502031D8F2920082402031C80
:101320009F292008A4022108031C210FA5022208DE
:10133000031C220FA6022308031C230FA70201305F
:101340000310A30CA20CA10CA00CFF3E031DA029AE
:101350000130A902031D81292708A3002608A20045
:101360002508A1002408A000080003300A168A11ED
:10137000A3260A128A1583120313A3002308A400CC
:101380000130A3002308A4072408A3002308A00019
:1013900003300A168A119D270A128A158312031335
:1013A0002408031D080002300A168A11A3260A1217
:1013B0008A1583120313A3002308A5000130A3009C
:1013C0002308A5072508A3002308A00002300A1659
:1013D0008A119D270A128A15831203132508031DFB
:1013E000080001300A168A11A3260A128A158312F0
:1013F0000313A3002308A6000130A3002308A607B7
:1014000020302602031C082A1F30A3002308A60050
:101410002608A3002308A00001300A168A119D2780
:101420000800023083120313A0000030A100053031
:10143000A2000030A3000A168A11AF250A128A15ED
:1014400020300A128A153E230A128A150D308312A3
:101450000313B600FB30B500B50B2C2AB60B2C2AB3
:10146000312A0E300A128A1540200A128A150238D3
:1014700083120313B5003508A7000E300A168A112F
:1014800029260A128A1540300A128A153E230A12AA
:101490008A150E300A128A1540200A128A1502395E
:1014A000031D5C2A8312031358080319492A0A12E0
:1014B0008A11FB260A128A1560300A128A153E2309
:1014C0000A128A15A63083120313B500B50B662ADB
:1014D000000083120313EA01EA0A080083160313CB
:1014E0000F178F160F120F14831203138501860135
:1014F0008701880189010B308316031385003D3075
:101500008600103087000730880007308900831676
:101510000317880189010814881588160817881789
:10152000091483160313811315148312061C952ABC
:101530008316031395168312861E9B2AF03094059A
:10154000141283160313141794138312031394169F
:10155000831603138C1183120313851605160816C0
:10156000881586148B150B17831603130C148B1711
:10157000961630308312031390000B308F00DB304F
:101580008E0010141F139F13831603139F139F12B3
:101590001F1283120313E501E601E101E201E301F9
:1015A000E4010800033083120313A0000030A100FF
:1015B0000530A2000030A3000A168A11AF250A12D6
:1015C0008A1520300A128A153E230A128A158312C0
:1015D0000313EA0183160313BE01BF01C001C10159
:1015E0004108803AFF0080307F02031DF92A1E3037
:1015F00040020318232B831603134008A03E8400E7
:10160000831380010130C0070318C10A0030C107ED
:10161000F02A0A128A11F1270A128A15831203137B
:10162000D100831603133E08A03E840083120313E7
:10163000510883138000013083160313BE0703187B
:10164000BF0A0030BF0783120313861D2A2B5908D7
:101650000319092B0D30D200FB30D100D10B2E2BFA
:10166000D20B2E2B332B00300A128A153E230A127E
:101670008A15A0300A128A119022080083120313DF
:10168000AC00051200300A128A1540200A128A1591
:1016900083120313AB002B08AD00962B2D081F39C6
:1016A0008038AB002B08A70000300A168A112926C3
:1016B0000A128A15A92B831203132D081F396038CB
:1016C000AB002B08A70000300A168A1129260A123F
:1016D0008A15A92B831203132D081F394038AB003C
:1016E0002B08A70000300A168A1129260A128A152B
:1016F000A92B831203132D081F392038AB002B08A8
:10170000A70000300A168A1129260A128A15A92B69
:10171000831203132D081F39AB002B08A7000030DC
:101720000A168A1129260A128A15A92B8312031375
:101730002C08003A0319882B203A0319792B603AB8
:1017400003196A2B203A03195B2BE03A03194E2B3D
:10175000A92B831203130516080083120313AD008F
:1017600088112D080319B62B0330C42B06300A1636
:101770008A1191250A128A15831203138815000015
:1017800083120313881102300A168A1191250A1256
:101790008A158312031327080A168A1191250A1243
:1017A0008A158312031328080A168A1191250A1232
:1017B0008A158312031329080A168A1191250A1221
:1017C0008A1583120313AE01AF0126082F02031DF1
:1017D000EB2B25082E020318162C2D080319012CBB
:1017E0000A168A1156250A128A1583120313AB00B2
:1017F0002E082A07AC002C0884002B0883138000D5
:101800000D2C2E082A07AB002B0884008313000838
:101810000A168A1191250A128A15013083120313C0
:10182000AE070318AF0A0030AF07E52B881500009C
:101830000A168A11E6250A128A15033903190800C7
:10184000F93083120313AB000000AB0B242C282CBF
:101850000000182C83120313081212300A168A1182
:1018600091250A128A1501300A168A1191250A1249
:101870008A1500300A168A1191250A128A158312D8
:10188000031308160D30A300A30B442C831203137B
:10189000081212300A168A1191250A128A1502308E
:1018A0000A168A1191250A128A1500300A168A1121
:1018B00091250A128A158312031308160D30A3000E
:1018C000A30B602C83120313081212300A168A111C
:1018D00091250A128A1508300A168A1191250A12D2
:1018E0008A1500300A168A1191250A128A15831268
:1018F000031308160D30A300A30B7C2C83120313D3
:10190000081212300A168A1191250A128A1501301E
:101910000A168A1191250A128A1580300A168A1130
:1019200091250A128A15831203130816A401643044
:1019300024020318B72C081213300A168A119125B5
:101940000A128A1504300A168A1191250A128A157C
:101950000A168A1156250A128A152039031DB72C3A
:10196000013083120313A3002308A407972C8312CA
:1019700003130816080083120313BA000430A000F2
:101980000030A1000530A2000030A3000A168A1121
:10199000AF250A128A1583120313B801B90120304A
:1019A0000A128A153E230A128A150D308312031378
:1019B000B700FB30B600B60BDB2CB70BDB2CE02CF2
:1019C0000E300A128A1540200A128A150238831234
:1019D0000313B6003608A7000E300A168A1129260E
:1019E0000A128A1540300A128A153E230A128A15F5
:1019F0000E300A128A1540200A128A150239031D78
:101A00000B2D831203135A080319F82C0A128A119A
:101A1000FB260A128A1580300A128A153E230A1202
:101A20008A15A63083120313B600B60B152D0000DD
:101A300053300A168A1178250A128A1559300A1667
:101A40008A1178250A128A154E300A168A117825CD
:101A50000A128A1543300A168A1178250A128A1545
:101A60002C300A168A1178250A128A15831203135C
:101A70003A080A168A1178250A128A158312031366
:101A800035080A168A1178250A128A1537300A167F
:101A90008A1178250A128A1583120313061A552D06
:101AA000831203135A0803194C2D0330B600B60BEA
:101AB000572D00300A128A153E230A128A1541302A
:101AC00083120313B700EE30B600B60B652DB70BCB
:101AD000652D00000800861A832D5D085E04031D35
:101AE000832D0A168A1166250A128A15F50002301E
:101AF00075020318832D013083120313DD000030BB
:101B0000DE00FC01FD01831203130C1C202E1010BB
:101B10000B308F00DB308E005D035E04031DB22DA1
:101B20006C08F6006B08F5000310F50DF60D7D0846
:101B3000803AF7007608803A7702031DA12D7508D8
:101B40007C020318B22D0130FC070318FD0A003097
:101B5000FD07831203138718AF2D8714D02D871C20
:101B6000D02DCF2D831203135D035E04031DD02DF2
:101B70006C08F6006B08F5000310F50DF60D7D08F6
:101B8000803AF7007608803A7702031DC92D750860
:101B90007C02031CD02D83120313DD01DE018710AC
:101BA000013083120313E1070318E20A0030E20751
:101BB0006208803AFF0080307F02031DE12D023071
:101BC0006102031CF22D83120313E101E2010130D3
:101BD000E5070318E60A0030E6070A128A159B207B
:101BE0000A128A15831203136608803AFF008030B8
:101BF0007F02031DFD2D3C306502031C0B2E83125A
:101C00000313E501E6010130E3070318E40A00309D
:101C1000E407E901E90A831203136408803AFF002C
:101C200080307F02031D162E3C306302031C1C2EE5
:101C300083120313E301E4018312031310140C1045
:101C40000B108B177B08FF007A088A007908840044
:101C5000780E8300FE0E7E0E09000A128A156E228F
:101C60000A128A150A128A1516270A128A150A12EA
:101C70008A152A240A128A15831203138610023049
:101C8000D5008630D4009930D300D30B452ED40B29
:101C9000452ED50B452E8312031386140230D50032
:101CA0008630D4009930D300D30B542ED40B542E4D
:101CB000D50B542E831203130618B12E8610023052
:101CC000D5008630D4009930D300D30B652ED40BC9
:101CD000652ED50B652E8312031386140230D500B2
:101CE0008630D4009930D300D30B742ED40B742ECD
:101CF000D50B742E0A168A11E6250A128A15E339C5
:101D00000A168A1171270A128A150A168A114326A1
:101D10000A128A150A168A115D260A128A1583127A
:101D2000031386100230D5008630D4009930D300DA
:101D3000D30B982ED40B982ED50B982E8312031309
:101D400086140230D5008630D4009930D300D30BEE
:101D5000A72ED40BA72ED50BA72E83120313061C78
:101D6000AD2E0A168A116F250A128A15003A031D34
:101D7000BE2E0A168A1152250A128A150A168A11CF
:101D80006F250A128A15013A031DCB2E0A168A11F5
:101D90000F260A128A150A168A116F250A128A1549
:101DA000023A031DD82E0A168A1184250A128A15B2
:101DB0000A168A116F250A128A15043A031DE52EA8
:101DC0000A168A119F250A128A150A168A116F258A
:101DD0000A128A15053A031DF22E0A168A11C12528
:101DE0000A128A15831203136A08031DFC2E0A12B5
:101DF0008A1511220A128A1583120313061E082F50
:101E00006A080319082F0A128A15D2220A128A15A3
:101E100083120313690803195A2E0A128A114520E6
:101E20000A128A1583120313E9015A2E30308312E5
:101E30000313B5003508A70000300A168A112926B9
:101E40000A128A15A83083120313B5003508A700BB
:101E500001300A168A1129260A128A1509308312BE
:101E60000313B5003508A70002300A168A11292687
:101E70000A128A15073083120313B5003508A7002C
:101E800003300A168A1129260A128A150A3083128B
:101E90000313B5003508A70005300A168A11292654
:101EA0000A128A15B93083120313B5003508A7004A
:101EB0000D300A168A1129260A128A15113083124A
:101EC0000313B5003508A7000E300A168A1129261B
:101ED0000A128A15A33083120313B5003508A70030
:101EE00010300A168A1129260A128A153E308312EA
:101EF0000313B5003508A70012300A168A112926E7
:101F00000A128A15533083120313B5003508A7004F
:101F100016300A168A1129260A128A155930831298
:101F20000313B5003508A70017300A168A112926B1
:101F30000A128A154E3083120313B5003508A70024
:101F400018300A168A1129260A128A15433083127C
:101F50000313B5003508A70019300A168A1129267F
:101F60000A128A15723083120313B5003508A700D0
:101F70001A300A168A1129260A128A153C30831251
:101F80000313B5003508A7001B300A168A1129264D
:101F90000A128A15803083120313B5003508A70092
:101FA0001F300A168A1129260A128A1500300A12D1
:101FB0008A1540200A128A15013883120313B500CE
:101FC0003508A70000300A168A1129260A128A1538
:101FD0000A128A11FB260A128A15013A031DFB2FE9
:101FE000013083120313A6000030A7000A168A11DD
:101FF000CD270A128A1500300A128A153E230800DE
:102AA4000A128A155C20080000300A168A11912542
:102AB400831203131308080064008001840A0406C7
:102AC4000319003404065F2D831203130609073922
:102AD400F0007008F100710808008312031306095E
:102AE4000739A0002008A10021080800831203135D
:102AF400A300851223080A168A1191258312031351
:102B0400851608000A128A155C200A168A11831297
:102B14000313071D8F2D87140800871008008312E4
:102B24000313A2001308A0002008A1008C1122089E
:102B340093008C1D9B2D8C11080083120313861A9D
:102B4400AB2DB501B50A02300A128A15BB240A1648
:102B54008A110A128A155C200800831203132008C4
:102B6400A4002407C23E8400220883138000840A40
:102B7400230880002008563E840080010800831248
:102B84000313861ACF2D0230BB003B08B500023078
:102B94000A128A15BB240A168A110A128A155C20A5
:102BA400080083120313A300A201231CDD2D2008B7
:102BB400A1002108A2070310A00D0310A30C2308F1
:102BC400031DD72D22080800831203138811053032
:102BD4000A168A1191250A168A110A168A1156258F
:102BE40083120313A3002308A400881524080800F3
:102BF40083120313A2002208840083130008200612
:102C0400031D062E22080800220884000130A207B2
:102C14000008031DFD2D003008001E30831203132D
:102C240065066604031907191C2E0A168A11C7269D
:102C34000A168A11831203135D035E04031D272EF3
:102C44006803031D272E07150800071108008312C7
:102C54000313AA0005122A08A8002807A9002908B6
:102C6400AA002A080A168A1191250A168A118312C3
:102C7400031327080A168A119125831203130516D4
:102C8400080083120313A00103300A168A119D273A
:102C94000A168A1183120313A00102300A168A113C
:102CA4009D270A168A1183120313A00101300A1604
:102CB4008A119D27080083120313881106300A160F
:102CC4008A1191250A168A118312031388150000AC
:102CD400831203138811C7300A168A1191250A1624
:102CE4008A118312031388150A168A11E6250A1617
:102CF4008A11003A03190800762E83120313A401E3
:102D0400A5012508803AA2002108803A2202031D69
:102D14008D2E200824020318080082308312031326
:102D2400A300DD30A200A20B952EA30B952E9A2EA4
:102D3400013083120313A4070318A50A0030A50762
:102D4400832E83120313A100A92E8312031364009C
:102D5400831603178C18A72E8312031321088312DA
:102D640003178D003F3083120313A000200883163D
:102D740003178C050C1403100C18031400300318EB
:102D84000130831203170C080800831203136D0328
:102D9400031DD32E03300A168A11EE260A168A1151
:102DA400D92E00300A168A11A3260A168A11831214
:102DB4000313A8002808A90000300A168A11EE2679
:102DC4000A168A118312031329020318EC2EE80150
:102DD400E80A0800E801080083120313A70007109B
:102DE4002708A600A60DA60D1F082606C339260629
:102DF4009F001F140130A0000030A1000A168A11A0
:102E04007F260A168A11831203139F140130A0002F
:102E14000030A1000A168A117F260A168A1183122D
:102E240003139F18112F1F1007141E080800831284
:102E34000313A50001300A168A11A3260A168A1163
:102E440083120313A400250884002408831380003C
:102E540002300A168A11A3260A168A118312031352
:102E6400A4002208840024088313800003300A1677
:102E74008A11A32683120313A400230884002408C0
:102E840083138000080083120313A6002608A200FF
:102E94002208A700270884000A128A1500200A16AF
:102EA4008A11003A03195B2F0130A2002208A707F8
:102EB4004C2F2608A2008030A300A209A309A20A6D
:102EC4000319A30A2708A4008030A50022082407B8
:102ED400A00023080318230A2507A1000800831271
:102EE4000313A500881106300A168A1191250A16C3
:102EF4008A118312031388157F2F831203138811F9
:102F040001300A168A1191250A168A1183120313B5
:102F140025080A168A1191250A168A1183120313A9
:102F24008815942F0A168A11E6250A168A11013982
:102F340003190800942F83120313A20083160317A6
:102F44008C18A02F831203132208831203178D00F9
:102F5400831203132008831203178C003F3083125B
:102F64000313A1002108831603178C05831203138E
:102F740003108B1B03148B13831603170C15553086
:102F84008D00AA308D008C140C1183120313031CC2
:102F940008008B170800013083120313A9000030C6
:102FA400AA002708803AA8002A08803A2802031DAC
:102FB400DD2F29082602031C08008312031387143B
:102FC4000230A0000030A1000A168A117F260A16DA
:102FD4008A118312031387100630A0000030A10069
:102FE4000A168A117F260A168A11013083120313E6
:0C2FF400A9070318AA0A0030AA07D32F6F
:02400E0014E0BC
:00000001FF
