:060000000A128A11122809
:10000800FE00030EF8000408F9000A08FA0083123B
:1000180003137F08FB000A128A11722B0A128A1135
:1000280015280A128A1595260A128A11ED000A1255
:100038008A1596260A128A11EE000A128A15972640
:100048000A128A11EF008313A0308400DF300A12ED
:100058008A15A4260A128A11643084006D300A12A7
:100068008A15A426FC01FD0183010A128A11E52CD8
:1000780083120313BC003C0884002C308313000651
:10008800031D08003C08033E840037300006031DAA
:1000980008006B2907150A30A0000030A1000A12D9
:1000A8008A1567270A128A1183120313071105306C
:1000B800A0000030A1000A128A15672708008714DB
:1000C8000A30A0000030A1000A128A1567270A1218
:1000D8008A118312031387100530A0000030A10095
:1000E8000A128A156727080006110A30A000003096
:1000F800A1000A128A1567270A128A1183120313AC
:1001080006150530A0000030A1000A128A156727DD
:100118000800831203133C08023E8400831300087E
:10012800013A03194E28033A03196328013A0319BF
:100138007828872908003C08023E84000003031D34
:10014800BE280A128A15B5260A128A11063A031D14
:10015800BE28013083120313E6000030E700FC01DB
:10016800FD016430A0000030A1000A128A1567273B
:100178000A128A11831203133C08023E84000230DB
:1001880083130006031D08000A128A15B5260A12F1
:100198008A11073A031D0800013083120313E60091
:1001A8000030E700FC01FD016430A0000030A10030
:1001B8000A128A1567270800831203133C08023EB7
:1001C800840083130008031D080000300A128A15F2
:1001D800AE270A128A1183120313BB003B08B5002D
:1001E80003300A128A1136240800831203133C08CC
:1001F800023E840083130008031D080003300A121E
:100208008A15AE270A128A1183120313BB003B0812
:10021800B50004300A128A11362408008312031329
:100228003C08023E840083130008031D080064088C
:100238000A128A158A270A128A1183120313BB002D
:100248003B08B50005300A128A11362408008312CB
:1002580003133C08023E840083130008031D0800B2
:100268006F03031D3E29B501B50A06300A128A112B
:100278003624080083120313B50106300A128A11C6
:1002880036240800831203133C08023E84008313BB
:100298000008031D08000A128A15D7270A128A11B6
:1002A800831203136B0803196029B501B50A0730D7
:1002B8000A128A1136240800023083120313BB0085
:1002C8003B08B50007300A128A1136240800831249
:1002D80003133C0A840083130008013A03198D288C
:1002E800033A03199F28013A0319E028073A03192A
:1002F800F928013A03191229033A03192B29013A5B
:10030800031946298729080083120313B101B20192
:10031800EA0183160313D701D801063083120313A9
:10032800B0001330AF00AD30AE00AE0B9929AF0B63
:100338009929B00B992983120313B301B401340826
:10034800803AFF0080307F02031DAC290D30330254
:100358000318862A8312031333080E3E84000A12F8
:100368008A11C2270A128A11AE002E08A700063089
:100378000A128A1531270A128A11831203133308C5
:10038800013E84000A128A11C2270A128A11AE009D
:100398002E08A70007300A128A1531270A128A1177
:1003A8008312031333081B3E84000A128A11C227E2
:1003B8000A128A11AE002E08A70008300A128A1500
:1003C80031270A128A118312031333080E3E840060
:1003D8000A128A11C2270A128A11AE002E08A70033
:1003E80009300A128A1531270A128A118312031357
:1003F8003308013E84000A128A11C2270A128A11A0
:10040800AE002E08A7000A300A128A1531270A12F0
:100418008A118312031333081B3E84000A128A11BF
:10042800C2270A128A11AE002E08A7000B300A1242
:100438008A1531270A128A110E300A128A154B279B
:100448000A128A11023883120313AE002E08A7007D
:100458000E300A128A1531270A128A1140300A1200
:100468008A1177250A128A1183120313B101B20186
:10047800831203133208803AFF0080307F02031D85
:10048800472A053031020318732A0E300A128A15DA
:100498004B270A128A1102390319622A831203139D
:1004A800EA01EA0A340883160313D80083120313F7
:1004B800330883160313D700013008000130831274
:1004C8000313B1070318B20A0030B207C73083120A
:1004D8000313AE006F2AAE0B6E2A722A3C2A013033
:1004E80083120313B3070318B40A0030B40734089F
:1004F800803AFF0080307F02031D842A0D303302CA
:10050800031CAE2900300800303083120313B500F5
:100518003508A70000300A128A1531270A128A11F5
:10052800A83083120313B5003508A70001300A125A
:100538008A1531270A128A11093083120313B5006C
:100548003508A70002300A128A1531270A128A11C3
:10055800073083120313B5003508A70003300A12C9
:100568008A1531270A128A110A3083120313B5003B
:100578003508A70005300A128A1531270A128A1190
:10058800B93083120313B5003508A7000D300A12DD
:100598008A1531270A128A11113083120313B50004
:1005A8003508A7000E300A128A1531270A128A1157
:1005B800A33083120313B5003508A70010300A12C0
:1005C8008A1531270A128A113E3083120313B500A7
:1005D8003508A70012300A128A1531270A128A1123
:1005E800533083120313B5003508A70016300A12DA
:1005F8008A1531270A128A11593083120313B5005C
:100608003508A70017300A128A1531270A128A11ED
:100618004E3083120313B5003508A70018300A12AC
:100628008A1531270A128A11433083120313B50041
:100638003508A70019300A128A1531270A128A11BB
:10064800723083120313B5003508A7001A300A1256
:100658008A1531270A128A113C3083120313B50018
:100668003508A7001B300A128A1531270A128A1189
:10067800803083120313B5003508A7001F300A1213
:100688008A1531270A128A1100300A128A154B2757
:100698000A128A11013883120313B5003508A7001E
:1006A80000300A128A1531270A128A110A128A1191
:1006B80088210A128A11013A031D6D2B0130831219
:1006C8000313A6000030A7000A128A118F270A1206
:1006D8008A1100300A128A1177250800861A8A2B97
:1006E80066086704031D8A2B0A128A15AC260A12AB
:1006F8008A11F5000230750203188A2B0130831223
:100708000313E6000030E700FC01FD018312031328
:100718000C1C292C10100B308F00DB308E00660368
:100728006704031DB92B6E08F6006D08F500031069
:10073800F50DF60D7D08803AF7007608803A7702C5
:10074800031DA82B75087C020318B92B0130FC0780
:100758000318FD0A0030FD07831203138718B62B10
:100768008714D72B871CD72BD62B8312031366032A
:100778006704031DD72B6E08F6006D08F5000310FB
:10078800F50DF60D7D08803AF7007608803A770275
:10079800031DD02B75087C02031CD72B831203136F
:1007A800E601E7018710013083160313DB070318FE
:1007B800DC0A0030DC075C08803AFF0080307F02EA
:1007C800031DE82B02305B02031CFB2B831603136B
:1007D800DB01DC01013083120313E8070318E90A7F
:1007E8000030E9070A128A110E270A128A118312A9
:1007F80003136908803AFF0080307F02031D062C2E
:100808003C306802031C142C83120313E801E9012D
:10081800013083160313DD070318DE0A0030DE07F4
:10082800831603135E08803AFF0080307F02031DA1
:100838001F2C3C305D02031C252C83160313DD019D
:10084800DE018312031310140C100B108B177B0896
:10085800FF007A088A0079088400780E8300FE0E6B
:100868007E0E090083120313BA000430A000003082
:10087800A1000530A2000030A3000A128A15F32651
:100888000A128A1183120313B801B90120300A121F
:100898008A1177250A128A110D3083120313B700C3
:1008A800FB30B600B60B562CB70B562C0E300A127E
:1008B8008A154B270A128A11023883120313B600CD
:1008C8003608A7000E300A128A1531270A128A1133
:1008D80040300A128A1177250A128A110E300A123C
:1008E8008A154B270A128A110239031D852C831693
:1008F800031356080319722C0A128A1188210A1246
:100908008A1180300A128A1177250A128A11A530B5
:1009180083120313B600B60B8F2C922C53300A1295
:100928008A15BE260A128A1159300A128A15BE265D
:100938000A128A114E300A128A15BE260A128A1124
:1009480043300A128A15BE260A128A112C300A125E
:100958008A15BE260A128A11831203133A080A124C
:100968008A15BE260A128A118312031335080A1241
:100978008A15BE260A128A1137300A128A15BE262F
:100988000A128A1183120313061ACF2C8316031333
:1009980056080319C62C023083120313B600B60B8F
:1009A800D32C000000300A128A1177250A128A1106
:1009B800C73083120313B600E12CB60BE02CE42CED
:1009C80008000A128A114D260A128A110A128A117F
:1009D80088220A128A118312031306110230831225
:1009E8000313E3008630E2009830E100E10BFA2CB3
:1009F800E20BFA2CE30BFA2C000083120313061502
:100A0800023083120313E3008630E2009830E100DD
:100A1800E10B0C2DE20B0C2DE30B0C2D00008312C7
:100A2800031386181F2DB501B50A01300A128A1161
:100A380036240A128A110A128A15B5260A128A1150
:100A4800003A031D2C2D0A128A1598260A128A11BB
:100A58000A128A15B5260A128A11013A031D392D80
:100A68000A128A1517270A128A110A128A15B52638
:100A78000A128A11023A031D462D0A128A15CA263D
:100A88000A128A110A128A15B5260A128A11043A1C
:100A9800031D532D0A128A11EF270A128A110A120E
:100AA8008A15B5260A128A11053A031D602D0A1205
:100AB8008A1505270A128A11831203136C08031D6D
:100AC8006A2D0A128A11B2260A128A118312031396
:100AD800061E132D6C080319132D0A128A11E62518
:100AE8000A128A11132D83120313AC000512003069
:100AF8000A128A154B270A128A1183120313AB00B4
:100B08002B08AD00CF2D2D081F398038AB002B08DE
:100B1800A70000300A128A1531270A128A11E22D1D
:100B2800831203132D081F396038AB002B08A70068
:100B380000300A128A1531270A128A11E22D83120F
:100B480003132D081F394038AB002B08A7000030CD
:100B58000A128A1531270A128A11E22D8312031309
:100B68002D081F392038AB002B08A70000300A12C7
:100B78008A1531270A128A11E22D831203132D08D0
:100B88001F39AB002B08A70000300A128A1531273D
:100B98000A128A11E22D831203132C08003A031952
:100BA800C12D203A0319B22D603A0319A32D203A1A
:100BB8000319942DE03A0319872DE22D83120313AC
:100BC80005160800033083120313A0000030A100AB
:100BD8000530A2000030A3000A128A15F3260A1273
:100BE8008A1120300A128A1177250A128A11831273
:100BF8000313EC01DD01DE01DF01E0016008803A4A
:100C0800FF0080307F02031D0B2E1E305F02031889
:100C18002F2E831203135F083F3E84008313800145
:100C28000130DF070318E00A0030E007022E0A123D
:100C38008A15E5260A128A1183120313BD005D087E
:100C48003F3E84003D08831380000130DD07031810
:100C5800DE0A0030DE0783120313081C382E8316C1
:100C68000313550803191B2E0D3083120313BE00FE
:100C7800FB30BD00BD0B3E2EBE0B3E2E00300A12CF
:100C88008A1177250A128A113F300A128A113C20EC
:100C98000800831603130F178F160F120F148312F1
:100CA8000313850186018701880189010B308316AA
:100CB8000313850032308600103087000730880023
:100CC80007308900831603178801890108148815DD
:100CD8008816081788178914831603138113951427
:100CE8008312861C742E8316031395168312861E90
:100CF8007A2EF030940514128316031314179413E4
:100D0800831203139416831603138C11831203138F
:100D1800851605160816881506158B150B178316E4
:100D280003130C14961630308312031390000B3003
:100D38008F00DB308E0010141F139F1383160313CC
:100D48009F139F121F1283120313E801E9018316F0
:100D58000313DB01DC01DD01DE0108000230831230
:100D68000313A0000030A1000530A2000030A3004A
:100D78000A128A15F3260A128A1120300A128A11D9
:100D880077250A128A110D3083120313B600FB303F
:100D9800B500B50BCD2EB60BCD2E0E300A128A1526
:100DA8004B270A128A11023883120313B50035083B
:100DB800A7000E300A128A1531270A128A1140300C
:100DC8000A128A1177250A128A110E300A128A1518
:100DD8004B270A128A110239031DFC2E83160313AE
:100DE80054080319E92E0A128A1188210A128A1155
:100DF80060300A128A1177250A128A11A5308312E7
:100E08000313B500B50B062F092F83120313EC014A
:100E1800EC0A0800F301F4017408803AFF008030FE
:100E28007F02031D192F0530730203180800730889
:100E3800F0007007C83E840083130008F100840A9C
:100E48000008F2007208803AFF0080307F02031D1C
:100E58002F2F01307102031C432F7308F000700715
:100E6800C83E8400FF3083138007840F00080318EE
:100E7800000AFF00FF307F0780008403492F7308B2
:100E8800D23E840083138001800A0130F3070318DF
:100E9800F40A0030F407102F1E308312031368067B
:100EA8006904031907195D2F0A128A15D7270A1230
:100EB8008A11831203136B030319851C722F0719F8
:100EC800722F07150030A000A1007830A200003072
:100ED800A3000A128A15F3260A128A11831603132D
:100EE8005208031908000A128A15D7270A128A110C
:100EF800831203136B08031D851C8D2F0030A0007F
:100F0800A1007830A2000030A3000A128A15F32647
:100F1800080007110800013083120313A9000030EC
:100F2800AA002708803AA8002A08803A2802031D48
:100F38009F2F29082602031C080083120313871415
:100F48000230A0000030A1000A128A1567270A1291
:100F58008A118312031387100630A0000030A10005
:100F68000A128A1567270A128A110130831203139D
:100F7800A9070318AA0A0030AA07952F07308A0084
:100F88000408840A820700343F3447344F34573406
:100F98005F3477347E347F3486348734373467342B
:100FA8006F344F34593463346D34773495349F3407
:100FB8009F34A934A934453481348B3418341B3414
:100FC8001E34213424342D347B3430347E3433348D
:100FD800153427342A3483120313861AFB2FB501DC
:100FE800B50A02300A128A1136240A128A110A1224
:060FF8008A1150270800D9
:101D2A005834023401340A128A115027080000304C
:101D3A000A128A15D72683120313130808006400AF
:101D4A008001840A0406031900340406A52E8312AE
:101D5A00031306090739F0007008F100063008007D
:101D6A008312031306090739A0002008A1000630D0
:101D7A00080083120313A300851223080A128A1586
:101D8A00D72683120313851608000A128A115027D0
:101D9A000A128A1583120313071DD52E8714080009
:101DAA008710080083120313A2001308A00020085A
:101DBA00A1008C11220893008C1DE12E8C110800C1
:101DCA008312031385120A128A159C26831203139F
:101DDA00A3002308A400851624080800831203130D
:101DEA002008A4002407C83E840022088313800028
:101DFA00840A230880002008D23E8400800108005B
:101E0A0083120313861A132F0230BB003B08B50056
:101E1A0002300A128A1136240A128A150A128A1103
:101E2A00502708001E308312031368066904031939
:101E3A000719242F0A128A15D7270A128A1583121C
:101E4A00031366036704031D2F2F6B03031D2F2F34
:101E5A00071508000711080083120313AA000512C8
:101E6A002A08A8002807A9002908AA002A080A128D
:101E7A008A15D7260A128A158312031327080A120B
:101E8A008A15D72683120313051608008312031333
:101E9A00A60005122608A30023074038A400240838
:101EAA00A60026080A128A15D7260A128A150A12C5
:101EBA008A159C2683120313A3002308A50005167E
:101ECA002508080083120313A401A5012508803AF6
:101EDA00A2002108803A2202031D752F200824023D
:101EEA0003180800823083120313A300DD30A20016
:101EFA00A20B7D2FA30B7D2F013083120313A4079E
:101F0A000318A50A0030A5076B2F83120313A1003B
:101F1A00902F831203136400831603178C188E2FD5
:101F2A00831203132108831203178D003F30831293
:101F3A000313A0002008831603178C050C14031042
:101F4A000C180314003003180130831203170C080D
:101F5A00080083120313A7002708A600A60DA60DE2
:101F6A001F082606C33926069F001F140130A00049
:101F7A000030A1000A128A1567270A128A158312ED
:101F8A0003139F140130A0000030A1000A128A1521
:101F9A0067270A128A15831203139F18D02F1F105E
:101FAA001E0808008312031307106F03031DE42F92
:101FBA0003300A128A15AE270A128A15EA2F640814
:101FCA000A128A158A270A128A1583120313A8008D
:101FDA002808A90000300A128A15AE270A128A15A3
:101FEA008312031329020318FD2FEB01EB0AFE2FBC
:061FFA00EB0107100800D6
:02400E0014E0BC
:00000001FF
