:100000000A128A1112280134FE00030EF8000408B7
:10001000F9000A08FA00831203137F08FB000A1292
:100020008A11B22C0A128A111528831603130A1298
:100030008A1506250A128A11E3000A128A15072575
:100040000A128A11E400831203130A128A11032090
:100050000A128A11EF00831790308400EF300A12E1
:100060008A1514250A128A11103084006F300A1282
:100070008A1514250A128A118313A0308400E330F4
:100080000A128A151425E901EA01EB01EC01ED01E0
:10009000EE01FC0183010A128A11A42983120313C1
:1000A000BC003C0884002C3083130006031D0800AC
:1000B0003C08033E840037300006031D08008729F2
:1000C00007150A30A0000030A1000A128A15F22597
:1000D0000A128A118312031307110530A0000030A1
:1000E000A1000A128A15F225080087140A30A00020
:1000F0000030A1000A128A15F2250A128A11831211
:10010000031387100530A0000030A1000A128A15E1
:10011000F225080006110A30A0000030A1000A12E2
:100120008A15F2250A128A11831203130615053067
:10013000A0000030A1000A128A15F22508008312DF
:1001400003133C08023E840083130008013A03199C
:100150006028033A03197528013A03198A28A3294C
:1001600008003C08023E84000003031DD4280A1244
:100170008A11F7270A128A11063A031DD428013082
:1001800083120313E9000030EA0083160313DB0136
:10019000DC01643083120313A0000030A1000A12B6
:1001A0008A15F2250A128A11831203133C08023EB3
:1001B0008400023083130006031D08000A128A110E
:1001C000F7270A128A11073A031D0800013083122B
:1001D0000313E9000030EA0083160313DB01DC019E
:1001E000643083120313A0000030A1000A128A15A4
:1001F000F2250800831203133C08023E8400831397
:100200000008031D080000300A128A1539260A1258
:100210008A1183120313BB003B08B50003300A1296
:100220008A117E250800831203133C08023E8400D5
:1002300083130008031D080003300A128A153926AB
:100240000A128A1183120313BB003B08B500043065
:100250000A128A117E250800831203133C08023E0D
:10026000840083130008031D080083160313570836
:100270000A128A1515260A128A1183120313BB006B
:100280003B08B50005300A128A117E25080083124A
:1002900003133C08023E840083130008031D08007A
:1002A0006F03031D5A29B501B50A06300A128A11D7
:1002B0007E25080083120313B50106300A128A1145
:1002C0007E250800831203133C08023E840083133A
:1002D0000008031D08000A128A1562260A128A11F4
:1002E000831203136D0803197C29B501B50A073081
:1002F0000A128A117E250800023083120313BB0004
:100300003B08B50007300A128A117E2508008312C7
:1003100003133C0A840083130008013A03199F2841
:10032000033A0319B128013A0319FA28073A0319C5
:100330001329013A03192C29033A03194729013AD1
:1003400003196229A32908000A128A1192270A12A6
:100350008A110A128A11C8230A128A1183120313FE
:100360000611023083120313E3008630E200983056
:10037000E100E10BB929E20BB929E30BB92900002F
:10038000831203130615023083120313E300863031
:10039000E2009830E100E10BCB29E20BCB29E30B23
:1003A000CB290000831203138618702A0A128A15BB
:1003B0008E250A128A110A128A158E250A128A11AE
:1003C000E3390A128A158D260A128A110A128A1531
:1003D0008E250A128A1100300A128A15EC260A129A
:1003E0008A1183120313E701E8016808803AFF00CD
:1003F00080307F02031DFE296430670203182D2A16
:10040000831203136708E1006108E4000130A500CE
:100410000030A600A701A8016708E1006108A90053
:100420006430AA000030AB0000300A128A112D2679
:100430000A128A11013083120313E7070318E80A2E
:100440000030E8076808803AFF0080307F02031D13
:100450002B2A64306702031C002A14308312031312
:10046000A5000030A600A701A801A9019030AA00AC
:100470000130AB0001300A128A112D260A128A11AE
:1004800083120313E501E6016608803AFF0080301D
:100490007F02031D4D2A0130650203186C2A823049
:1004A00083120313E200DD30E100E10B552AE20B79
:1004B000552A013083120313E5070318E60A0030BA
:1004C000E6076608803AFF0080307F02031D6A2A33
:1004D00001306502031C4F2A83120313861C6C2A09
:1004E0000A128A11F7270A128A11003A031D7D2A7F
:1004F0000A128A1508250A128A110A128A11F72788
:100500000A128A11013A031D8A2A0A128A15A225A3
:100510000A128A110A128A11F7270A128A11023A5C
:10052000031D972A0A128A1531250A128A110A1206
:100530008A11F7270A128A11043A031DA42A0A1203
:100540008A155A250A128A110A128A11F7270A12E5
:100550008A11053A031DB12A0A128A157C250A124E
:100560008A11831203136E08031DBB2A0A128A150F
:10057000A4270A128A1183120313061ED2296E08B9
:100580000319D2290A128A112B270A128A11D22999
:1005900083120313B101B201FC0183160313D901C5
:1005A000DA01063083120313B0001330AF00AD3010
:1005B000AE00AE0BD92AAF0BD92AB00BD92A8312C1
:1005C0000313B301B4013408803AFF0080307F0286
:1005D000031DEC2A0D3033020318C62B83120313BC
:1005E00033080E3E84000A128A1500200A128A116E
:1005F000AE002E08A70006300A128A15BC250A1282
:100600008A11831203133308013E84000A128A15EB
:1006100000200A128A11AE002E08A70007300A1225
:100620008A15BC250A128A118312031333081B3E54
:1006300084000A128A1500200A128A11AE002E08C0
:10064000A70008300A128A15BC250A128A118312E3
:10065000031333080E3E84000A128A1500200A1282
:100660008A11AE002E08A70009300A128A15BC258F
:100670000A128A11831203133308013E84000A12FE
:100680008A1500200A128A11AE002E08A7000A302F
:100690000A128A15BC250A128A1183120313330821
:1006A0001B3E84000A128A1500200A128A11AE002D
:1006B0002E08A7000B300A128A15BC250A128A11CF
:1006C0000E300A128A15D6250A128A1102388312B0
:1006D0000313AE002E08A7000E300A128A15BC259F
:1006E0000A128A1140300A128A11BC260A128A1193
:1006F00083120313B101B201831203133208803A4B
:10070000FF0080307F02031D872B05303102031864
:10071000B32B0E300A128A15D6250A128A11023915
:100720000319A22BFC01FC0A83120313340883165D
:100730000313DA0083120313330883160313D9005B
:1007400001300800013083120313B1070318B20A05
:100750000030B207C73083120313AE00AF2BAE0BCD
:10076000AE2BB22B7C2B013083120313B30703187B
:10077000B40A0030B4073408803AFF0080307F02AA
:10078000031DC42B0D303302031CEE2A0030080079
:10079000303083120313B5003508A70000300A1269
:1007A0008A15BC250A128A11A83083120313B500DA
:1007B0003508A70001300A128A15BC250A128A11D1
:1007C000093083120313B5003508A70002300A125E
:1007D0008A15BC250A128A11073083120313B5004B
:1007E0003508A70003300A128A15BC250A128A119F
:1007F0000A3083120313B5003508A70005300A122A
:100800008A15BC250A128A11B93083120313B50068
:100810003508A7000D300A128A15BC250A128A1164
:10082000113083120313B5003508A7000E300A12E9
:100830008A15BC250A128A11A33083120313B5004E
:100840003508A70010300A128A15BC250A128A1131
:100850003E3083120313B5003508A70012300A1288
:100860008A15BC250A128A11533083120313B5006E
:100870003508A70016300A128A15BC250A128A11FB
:10088000593083120313B5003508A70017300A1238
:100890008A15BC250A128A114E3083120313B50043
:1008A0003508A70018300A128A15BC250A128A11C9
:1008B000433083120313B5003508A70019300A121C
:1008C0008A15BC250A128A11723083120313B500EF
:1008D0003508A7001A300A128A15BC250A128A1197
:1008E0003C3083120313B5003508A7001B300A12F1
:1008F0008A15BC250A128A11803083120313B500B1
:100900003508A7001F300A128A15BC250A128A1161
:1009100000300A128A15D6250A128A11013883126C
:100920000313B5003508A70000300A128A15BC254C
:100930000A128A110A128A11C8220A128A11013A6D
:10094000031DAD2C013083120313A6000030A70055
:100950000A128A15B9260A128A1100300A128A115F
:10096000BC260800861ACC2C69086A04031DCC2C0E
:100970000A128A151C250A128A11F5000230750226
:100980000318CC2C013083120313E9000030EA0075
:1009900083160313DB01DC01831203130C1C712D7E
:1009A00010100B308F00DB308E0069036A04031DCA
:1009B000FF2C831603136408F6006308F500031088
:1009C000F50DF60D5C08803AF7007608803A77025C
:1009D000031DEC2C75085B020318FF2C01308316F5
:1009E0000313DB070318DC0A0030DC078312031350
:1009F0008718FC2C87141F2D871C1F2D1E2D83127A
:100A0000031369036A04031D1F2D8316031364086F
:100A1000F6006308F5000310F50DF60D5C08803A4A
:100A2000F7007608803A7702031D182D75085B02DF
:100A3000031C1F2D83120313E901EA018710013003
:100A400083160313DF070318E00A0030E00760088D
:100A5000803AFF0080307F02031D302D02305F029C
:100A6000031C432D83160313DF01E00101308312C1
:100A70000313EB070318EC0A0030EC070A128A157F
:100A800062270A128A11831203136C08803AFF004E
:100A900080307F02031D4E2D3C306B02031C5C2D09
:100AA00083120313EB01EC01013083160313E107FA
:100AB0000318E20A0030E207831603136208803A43
:100AC000FF0080307F02031D672D3C306102031C54
:100AD0006D2D83160313E101E20183120313101439
:100AE0000C100B108B177B08FF007A088A0079081E
:100AF0008400780E8300FE0E7E0E0900831203131D
:100B0000BA000430A0000030A1000530A20000307F
:100B1000A3000A128A156A250A128A118312031386
:100B2000B801B90120300A128A11BC260A128A11B2
:100B30000D3083120313B700FB30B600B60B9E2DA9
:100B4000B70B9E2D0E300A128A15D6250A128A116D
:100B5000023883120313B6003608A7000E300A12BB
:100B60008A15BC250A128A1140300A128A11BC2645
:100B70000A128A110E300A128A15D6250A128A1113
:100B80000239031DCD2D8316031356080319BA2D00
:100B90000A128A11C8220A128A1180300A128A1196
:100BA000BC260A128A11A53083120313B600B60BB5
:100BB000D72DDA2D53300A128A1525250A128A11EB
:100BC00059300A128A1525250A128A114E300A1246
:100BD0008A1525250A128A1143300A128A152525FD
:100BE0000A128A112C300A128A1525250A128A1136
:100BF000831203133A080A128A1525250A128A114C
:100C00008312031335080A128A1525250A128A1140
:100C100037300A128A1525250A128A118312031306
:100C2000061A172E83160313560803190E2E0230C8
:100C300083120313B600B60B1B2E000000300A12FD
:100C40008A11BC260A128A11C73083120313B60018
:100C5000292EB60B282E2C2E080083120313AF006A
:100C600088112F080319362E0330442E06300A123D
:100C70008A153E250A128A11831203138815000073
:100C800083120313881102300A128A153E250A12B4
:100C90008A118312031327080A128A153E250A12A5
:100CA0008A118312031328080A128A153E250A1294
:100CB0008A118312031329080A128A153E250A1283
:100CC0008A1183120313B001B10126083102031DFA
:100CD0006B2E250830020318A22E2F080319872E29
:100CE0000A128A150C250A128A1183120313AC000A
:100CF00030082A07AD002B080318013EAE002D086E
:100D0000840083132E1883172C088000992E300836
:100D10002A07AC002B080318013EAD002C08840004
:100D200083172D1C831300080A128A153E250A1208
:100D30008A11013083120313B0070318B10A00307F
:100D4000B107652E8815C73083120313AC00A82E97
:100D5000AC0BA72EAB2E0A128A158E250A128A1109
:100D6000033903190800C73083120313AC00B82EEF
:100D7000AC0BB72EBB2EAB2E83120313AC000512A7
:100D800000300A128A15D6250A128A11831203131B
:100D9000AB002B08AD00142F2D081F398038AB0095
:100DA0002B08A70000300A128A15BC250A128A11E6
:100DB000272F831203132D081F396038AB002B082F
:100DC000A70000300A128A15BC250A128A11272FA3
:100DD000831203132D081F394038AB002B08A700DE
:100DE00000300A128A15BC250A128A11272F831295
:100DF00003132D081F392038AB002B08A700003043
:100E00000A128A15BC250A128A11272F831203138E
:100E10002D081F39AB002B08A70000300A128A15D5
:100E2000BC250A128A11272F831203132C08003ABB
:100E30000319062F203A0319F72E603A0319E82EFA
:100E4000203A0319D92EE03A0319CC2E272F83120A
:100E5000031305160800033083120313A0000030AB
:100E6000A1000530A2000030A3000A128A156A25ED
:100E70000A128A1120300A128A11BC260A128A111B
:100E800083120313EE01DD01DE01DF01E0016008E2
:100E9000803AFF0080307F02031D502F1E305F021A
:100EA0000318742F831203135F083F3E84008313DB
:100EB00080010130DF070318E00A0030E007472F08
:100EC0000A128A154C250A128A1183120313BD00D7
:100ED0005D083F3E84003D08831380000130DD073C
:100EE0000318DE0A0030DE0783120313081C7D2F6F
:100EF0008316031355080319602F0D308312031353
:100F0000BE00FB30BD00BD0B832FBE0B832F003016
:100F10000A128A11BC260A128A113F300A128A115B
:100F20004E200800831603130F178F160F120F148D
:100F300083120313850186018701880189010B3023
:100F40008316031385003230860010308700073087
:100F50008800073089008316031788018901081467
:100F600088158816081788178914831603138113A8
:100F700095148312861CB92F8316031395168312BA
:100F8000861EBF2FF0309405141283160313141716
:100F90009413831203139416831603138C11831274
:100FA0000313851605160816881506158B150B17DD
:100FB000831603130C14961630308312031390001B
:100FC0000B308F00DB308E0010141F139F1383161D
:100FD00003139F139F121F1283120313EB01EC01E3
:100FE00083160313DF01E001E101E201080083122F
:100FF000031306090739A0002008A10006300800E5
:1010000008308A000408840A820700343F344734D9
:101010004F3457345F3477347E347F3486348734AA
:10102000373467346F344F34593463346D34773424
:1010300095349F349F34A934A934453481348B349A
:1010400018341B341E34213424342D347B34303492
:0A1050007E343334153427342A347B
:101A0C00583402340A128A152327080000300A12AF
:101A1C008A153E2583120313130808006400800105
:101A2C00840A0406031900340406152D83120313CB
:101A3C0006090739F0007008F1000630080083121F
:101A4C000313A300851223080A128A153E2583125C
:101A5C000313851608000A128A1523270A128A1501
:101A6C0083120313071D3C2D8714080087100800F0
:101A7C0083120313A2001308A0002008A1008C11EC
:101A8C00220893008C1D482D8C110800831203131F
:101A9C0085120A128A150C2583120313A30023083E
:101AAC00A40085162408080083120313861A662DD9
:101ABC00B501B50A02300A128A117E250A128A155E
:101ACC000A128A1523270800831203132008A40086
:101ADC002407C83E8400220883138000840A23084C
:101AEC0080002008D23E840080010800831203137A
:101AFC00861A8A2D0230BB003B08B50002300A1250
:101B0C008A117E250A128A150A128A1523270800C3
:101B1C0083120313881105300A128A153E250A1206
:101B2C008A150A128A150C2583120313A3002308A5
:101B3C00A4008815240808001E30831203136B06BA
:101B4C006C0403190719AF2D0A128A1562260A12A2
:101B5C008A158312031369036A04031DBA2D6D03DE
:101B6C00031DBA2D07150800071108008312031373
:101B7C00AA0005122A08A8002807A9002908AA000B
:101B8C002A080A128A153E250A128A158312031393
:101B9C0027080A128A153E2583120313051608001E
:101BAC0083120313A60005122608A300230740384E
:101BBC00A4002408A60026080A128A153E250A123B
:101BCC008A150A128A150C2583120313A300230805
:101BDC00A50005162508080083120313A401A5010E
:101BEC002508803AA2002108803A2202031D002E0B
:101BFC002008240203180800823083120313A30068
:101C0C00DD30A200A20B082EA30B082E013083128C
:101C1C000313A4070318A50A0030A507F62D831299
:101C2C000313A1001B2E83120313640083160317E6
:101C3C008C18192E831203132108831203178D009D
:101C4C003F3083120313A0002008831603178C0562
:101C5C000C1403100C1803140030031801308312F9
:101C6C0003170C08080083120313A7002708A6000B
:101C7C00A60DA60D1F082606C33926069F001F14A5
:101C8C000130A0000030A1000A128A15F2250A12B8
:101C9C008A15831203139F140130A0000030A10099
:101CAC000A128A15F2250A128A15831203139F1839
:101CBC005B2E1F101E0808008312031307106F03FE
:101CCC00031D6F2E03300A128A1539260A128A1543
:101CDC00772E8316031357080A128A1515260A1233
:101CEC008A1583120313A8002808A90000300A12D1
:101CFC008A1539260A128A1583120313290203182E
:101D0C008A2EED01ED0A8B2EED01071008008312CF
:101D1C000313A500881106300A128A153E250A12F3
:101D2C008A158312031388159B2E831203138811B3
:101D3C0001300A128A153E250A128A1583120313E2
:101D4C0025080A128A153E250A128A1583120313D6
:101D5C008815B02E0A128A158E250A128A15013999
:101D6C0003190800B02E013083120313A9000030B0
:101D7C00AA002708803AA8002A08803A2802031DE6
:101D8C00C92E29082602031C08008312031387148A
:101D9C000230A0000030A1000A128A15F2250A12A6
:101DAC008A158312031387100630A0000030A1009F
:101DBC000A128A15F2250A128A15013083120313AE
:101DCC00A9070318AA0A0030AA07BF2E831203130F
:101DDC00A500881106300A128A153E250A128A15AA
:101DEC008312031388150000831203138811D83053
:101DFC000A128A153E250A128A1583120313250826
:101E0C000A128A153E250A128A1500300A128A1502
:101E1C003E250A128A1500300A128A153E250A122E
:101E2C008A158312031388150A128A158E250A1235
:101E3C008A15003A031908001A2F1E308312031357
:101E4C006B066C0403190719302F0A128A156226C7
:101E5C000A128A15831203136D030319851C452F6F
:101E6C000719452F07150030A000A1007830A200FB
:101E7C000030A3000A128A156A250A128A158316E5
:101E8C0003135208031908000A128A1562260A1253
:101E9C008A15831203136D08031D851C602F0030F7
:101EAC00A000A1007830A2000030A3000A128A150D
:101EBC006A25080007110800F301F4017408803A40
:101ECC00FF0080307F02031D6D2F05307302031855
:101EDC0008007308F0007007C83E840083130008E4
:101EEC00F100840A0008F2007208803AFF0080308A
:101EFC007F02031D832F01307102031C972F73087F
:101F0C00F0007007C83E8400FF3083138007840FF5
:101F1C0000080318000AFF00FF307F0780008403CD
:101F2C009D2F7308D23E840083138001800A0130F8
:101F3C00F3070318F40A0030F407642F02308312FD
:101F4C000313A0000030A1000530A2000030A30054
:101F5C000A128A156A250A128A1520300A128A1169
:101F6C00BC260A128A150D3083120313B600FB30FF
:101F7C00B500B50BBF2FB60BBF2F0E300A128A154A
:101F8C00D6250A128A15023883120313B5003508B8
:101F9C00A7000E300A128A15BC250A128A15403089
:101FAC000A128A11BC260A128A150E300A128A15D8
:101FBC00D6250A128A150239031DEE2F8316031338
:101FCC0054080319DB2F0A128A11C8220A128A1527
:101FDC0060300A128A11BC260A128A15A5308312A7
:101FEC000313B500B50BF82FFB2F83120313EE016F
:041FFC00EE0A0800E1
:02400E0014E0BC
:00000001FF
