:060000000A128A11122809
:10000800FE00030E83120313BF000408C0000A0891
:10001800C1007F08C2000A128A15522E0A128A11DC
:1000280015280A128A152D200A128A11E1000A12CF
:100038008A152E200A128A11E2000A128A152F2028
:100048000A128A11E300831790308400B8300A1628
:100058008A11B9250A128A1183160313D601D7010A
:1000680083134330840061300A168A11B92583014D
:100078000A128A15F12C333083120313AD002D08B0
:10008800F4003430AE002E08F5003530AF002F08EC
:10009800F6003630B0003008F7003730B1003108CC
:1000A800F80032300A128A1118240A128A118312AF
:1000B80003133708AD002D08B8003A30AD002D08FD
:1000C800F2003930AE002E08F3003B300A168A11D0
:1000D80045270A128A110130F5000030F600831214
:1000E80003133B08AD002D08F7003A08AE002E08B0
:1000F800F8003908AF002F08F9003830B000300890
:10010800FA0000300A128A15DE230A128A110A122E
:100118008A15EE210A128A11831203133608AD00DC
:100128002D08B8003A30AD002D08F2003930AE0085
:100138002E08F3003B300A168A1145270A128A1145
:100148000130F5000030F600831203133B08AD00C0
:100158002D08F7003A08AE002E08F8003908AF005D
:100168002F08F9003830B0003008FA0000300A12C1
:100178008A15DE230A128A110A128A15EE210A123A
:100188008A11831203133508AD002D08B8003A30E0
:10019800AD002D08F2003930AE002E08F3003B30D8
:1001A8000A168A1145270A128A110130F500003013
:1001B800F600831203133B08AD002D08F7003A0838
:1001C800AE002E08F8003908AF002F08F9003830C3
:1001D800B0003008FA0000300A128A15DE230A122D
:1001E8008A110A128A15EE210A128A118312031340
:1001F8003408AD002D08B8003A30AD002D08F200E3
:100208003930AE002E08F3003B300A168A11452714
:100218000A128A110130F5000030F6008312031328
:100228003B08AD002D08F7003A08AE002E08F8008C
:100238003908AF002F08F9003830B0003008FA004C
:1002480000300A128A15DE230A128A110A128A1548
:10025800EE210A128A1100300A168A11D7270A12CB
:100268008A1183120313AD002D08B8003A30AD008F
:100278002D08F2003930AE002E08F3003B300A1684
:100288008A1145270A128A110130F5000030F6005C
:10029800831203133B08AD002D08F7003A08AE009F
:1002A8002E08F8003908AF002F08F9003830B000E0
:1002B8003008FA0000300A128A15DE230A128A1161
:1002C8000A128A15EE210A128A1103300A168A11B7
:1002D800D7270A128A1183120313AD002D08B8001C
:1002E8003A30AD002D08F2003930AE002E08F30088
:1002F8003B300A168A1145270A128A110130F50087
:100308000030F600831203133B08AD002D08F700F8
:100318003A08AE002E08F8003908AF002F08F90097
:100328003830B0003008FA0000300A128A15DE238F
:100338000A128A110A128A15EE210A128A11053048
:100348000A168A11D7270A128A1183120313AD00DD
:100358002D08B8003A30AD002D08F2003930AE0053
:100368002E08F3003B300A168A1145270A128A1113
:100378000130F5000030F600831203133B08AD008E
:100388002D08F7003A08AE002E08F8003908AF002B
:100398002F08F9003830B0003008FA0000300A128F
:1003A8008A15DE230A128A110A128A15EE210A1208
:1003B8008A1107300A168A11D7270A128A1183125E
:1003C8000313AD002D08B8003A30AD002D08F20037
:1003D8003930AE002E08F3003B300A168A11452743
:1003E8000A128A110130F5000030F6008312031357
:1003F8003B08AD002D08F7003A08AE002E08F800BB
:100408003908AF002F08F9003830B0003008FA007A
:1004180000300A128A15DE230A128A110A128A1576
:10042800EE210A128A1106300A168A11D7270A12F3
:100438008A1183120313AD002D08B8003A30AD00BD
:100448002D08F2003930AE002E08F3003B300A16B2
:100458008A1145270A128A110130F5000030F6008A
:10046800831203133B08AD002D08F7003A08AE00CD
:100478002E08F8003908AF002F08F9003830B0000E
:100488003008FA0000300A128A15DE230A128A118F
:100498000A128A15EE210A128A1108300A168A11E0
:1004A800D7270A128A1183120313AD002D08B8004A
:1004B8003A30AD002D08F2003930AE002E08F300B6
:1004C8003B300A168A1145270A128A110130F500B5
:1004D8000030F600831203133B08AD002D08F70027
:1004E8003A08AE002E08F8003908AF002F08F900C6
:1004F8003830B0003008FA0000300A128A15DE23BE
:100508000A128A110A128A15EE21080083160313AB
:10051800D000500884002C3083170006031D080003
:100528005008033E840037300006031D0800F52BF1
:100538008312031307150A3083160313A000003033
:10054800A1000A168A1122270A128A11831203139C
:100558000711053083160313A0000030A1000A1606
:100568008A11222708008312031387140A3083167E
:100578000313A0000030A1000A168A1122270A12CC
:100588008A11831203138710053083160313A00002
:100598000030A1000A168A112227080083120313CB
:1005A80086100A3083160313A0000030A1000A1633
:1005B8008A1122270A128A1183120313861405301E
:1005C80083160313A0000030A1000A168A112227FF
:1005D8000800831603135008023E8400831700089E
:1005E800013A03199C2A033A0319B72A013A031955
:1005F800D22A172C08005008023E84000003031D6D
:10060800202B0A168A11CA250A128A11063A031DD6
:10061800202B013083120313D6000030D700D401F9
:10062800D501643083160313A0000030A1000A1618
:100638008A1122270A128A11831603135008023ED0
:100648008400023083170006031D08000A168A1169
:10065800CA250A128A11073A031D080001308312BD
:100668000313D6000030D700D401D50164308316B7
:100678000313A0000030A1000A168A1122270800DF
:10068800831603135008023E840083170008031DD5
:10069800080000300A128A15F9200A128A118316F6
:1006A8000313CF004F08B50003300A128A15A0259E
:1006B8000800831603135008023E840083170008BD
:1006C800031D080003300A128A15F9200A128A113C
:1006D80083160313CF004F08B50004300A128A1599
:1006E800A0250800831603135008023E84008317D0
:1006F8000008031D080000300A168A1169270A122B
:100708008A1183160313CF004F08B50005300A126B
:100718008A15A0250800831603135008023E84009A
:1007280083170008031D0800831203136303031DC6
:10073800A62B83160313B501B50A06300A128A15CB
:10074800A025080083160313B50106300A128A157E
:10075800A0250800831603135008023E840083175F
:100768000008031D08000A128A1544200A128A117B
:100778008316031356080319C82BB501B50A0730A9
:100788000A128A15A0250800023083160313CF0029
:100798004F08B50007300A128A15A02508000A1666
:1007A8008A1173260A128A11E3390A128A159B20C4
:1007B8000A128A110A168A1100270A128A110A16C1
:1007C8008A118B260A128A1183160313B501B50AFA
:1007D80009300A128A15A02508000A128A11512523
:1007E800080083160313500A840083170008013A8F
:1007F8000319ED2A033A0319FF2A013A0319442B76
:10080800073A03195D2B013A0319762B033A0319AA
:100818008F2B013A0319AE2B0F3A0319F12B013A2A
:100828000319D32B172C080083120313A6000812F0
:1008380013300A168A11E2250A128A1101300A16A3
:100848008A11E2250A128A110A168A11A9250A12A2
:100858008A117F39F900790883120313A7000A1651
:100868008A11A9250A128A117F39F9007908831299
:100878000313A8000A168A11A9250A128A113F39FA
:10088800F900790883120313A9000A168A11A92509
:100898000A128A11F900790883120313AC000A16A8
:1008A8008A11A9250A128A113F39F9007908831299
:1008B8000313AC000A168A11A9250A128A111F39D6
:1008C800F900790883120313AA000A168A11A925C8
:1008D8000A128A11F900790883120313AB0008166B
:1008E8002708F90004300310F90CFF3E031D772C8C
:1008F80079080739FA007A08A00027080F39F900A3
:100908007908A7000A30F9007908F00020080A16CB
:100918008A1100260A128A11831203132707FA0084
:10092800260884007A08831380002808F900043018
:100938000310F90CFF3E031D9C2C79080739FA00B7
:100948007A08A10028080F39F9007908A8000A30A8
:10095800F9007908F00021080A168A1100260A12FF
:100968008A11831203132807FA00740884007A088E
:10097800831380002908F90004300310F90CFF3EA6
:10098800031DC12C79080339FA007A08A200290846
:100998000F39F9007908A9000A30F9007908F00040
:1009A80022080A168A1100260A128A1183120313D2
:1009B8002907FA00750884007A08831380002C0838
:1009C800F90004300310F90CFF3E031DE62C7908EA
:1009D8000339FA007A08A3002C080F39F9007908BE
:1009E800AC000A30F9007908F00023080A168A11C9
:1009F80000260A128A11831203132C07FA007608BC
:100A080084007A08831380002A08F9000430031050
:100A1800F90CFF3E031D0B2D79080139FA007A08FD
:100A2800A4002A080F39F9007908AA000A30F90049
:100A38007908F00024080A168A1100260A128A1179
:100A4800831203132A07FA00770884007A088313AD
:100A580080002B08F90004300310F90CFF3E031D39
:100A6800302D79080F39FA007A08A5002B080F39BC
:100A7800F9007908AB000A30F9007908F000250878
:100A88000A168A110026831203132B07FA00780826
:100A980084007A088313800008000030831603134B
:100AA800CE000030CD000030CC000030CB00C93083
:100AB800BB003B08A200CA30BC003C08A300C830F9
:100AC8000A128A156F200A128A118316031348081E
:100AD800BB00BC01BD01BE014B08BF004C08C000F3
:100AE8004D08C1004E08C20008300310BF0DC00DEC
:100AF800C10DC20DFF3E031D792D3F08BB04400800
:100B0800BC044108BD044208BE043E08CE003D08AE
:100B1800CD003C08CC003B08CB004908BB00BC0119
:100B2800BD01BE014B08BF004C08C0004D08C10004
:100B38004E08C20008300310BF0DC00DC10DC20D14
:100B4800FF3E031D9F2D3F08BB044008BC0441081D
:100B5800BD044208BE043E08CE003D08CD003C0856
:100B6800CC003B08CB004A08BB00BC01BD01BE015C
:100B78004B08BF004C08C0004D08C1004E08C20019
:100B880008300310BF0DC00DC10DC20DFF3E031D7F
:100B9800C52D3F08BB044008BC044108BD044208F9
:100BA800BE043E08CE003D08CD003C08CC003B0802
:100BB800CB000030C7000030C6000030C500003050
:100BC800C4004E084702031DF32D4D084602031DBD
:100BD800F32D4C084502031DF32D4B08440203185E
:100BE8005A2E4408BB003B08CA004408BB0045080D
:100BF800BC004608BD004708BE0008300310BE0C04
:100C0800BD0CBC0CBB0CFF3E031D022E3B08BF00F5
:100C18003F08C9004408BB004508BC004608BD00A1
:100C28004708BE0010300310BE0CBD0CBC0CBB0C3A
:100C3800FF3E031D172E3B08BF003F08C8000130C8
:100C4800A5000030A6004808BB003B08A7004908DB
:100C5800BC003C08A8004A08BD003D08A900C330F4
:100C6800BE003E08AA0001300A128A1163270A1240
:100C78008A11831603134308BB003B08B5000A30EA
:100C88000A128A15A0250A128A1101308316031345
:100C9800C407003003180130C507003003180130BD
:100CA800C607003003180130C707E52DB501B50A9E
:100CB80008300A128A15A025080083160313B1010B
:100CC800B20183120313E001D201D3010630831667
:100CD8000313B0001330AF00AD30AE00AE0B722E70
:100CE800AF0B722EB00B722E83160313B301B4012F
:100CF8003408803AFF0080307F02031D852E0D30B6
:100D080033020318612F8316031333080E3E840041
:100D18000A128A1500200A128A11AE002E08A700AE
:100D280006300A168A11C3260A128A11831603137B
:100D38003308013E84000A128A1500200A128A111B
:100D4800AE002E08A70007300A168A11C3260A1219
:100D58008A118316031333081B3E84000A128A156E
:100D680000200A128A11AE002E08A70008300A16C1
:100D78008A11C3260A128A118316031333080E3EFA
:100D880084000A128A1500200A128A11AE002E0861
:100D9800A70009300A168A11C3260A128A11831677
:100DA80003133308013E84000A128A1500200A1230
:100DB8008A11AE002E08A7000A300A168A11C32627
:100DC8000A128A118316031333081B3E84000A1281
:100DD8008A1500200A128A11AE002E08A7000B30CF
:100DE8000A168A11C3260A128A110E300A168A11A7
:100DF8008D270A128A11023883160313AE002E08B3
:100E0800A7000E300A168A11C3260A128A1140302A
:100E18000A128A156D230A128A1183160313B10167
:100E2800B201831603133208803AFF0080307F0234
:100E3800031D202F0530310203184E2F0E300A16DD
:100E48008A118D270A128A11023903193D2F83123C
:100E58000313E001E00A8316031334088312031313
:100E6800D30083160313330883120313D20001300F
:100E78000800013083160313B1070318B20A0030C3
:100E8800B207C73083160313AE004A2FAE0B492FA3
:100E98004D2F152F013083160313B3070318B40A17
:100EA8000030B4073408803AFF0080307F02031D09
:100EB8005F2F0D303302031C872E00300800831685
:100EC8000313AD00831203138811831603132D082F
:100ED8000319702F03307E2F06300A168A115B26FD
:100EE8000A128A1183120313881500008312031350
:100EF800881102300A168A115B260A128A11831693
:100F0800031327080A168A115B260A128A11831608
:100F1800031328080A168A115B260A128A118316F7
:100F2800031329080A168A115B260A128A118316E6
:100F38000313AE01AF0126082F02031DA52F2508B4
:100F48002E020318D02F2D080319BB2F0A168A1159
:100F5800B1250A128A1183160313AB002E082A073B
:100F6800AC002C0884002B0883138000C72F2E08A0
:100F78002A07AB002B088400831300080A168A117D
:100F88005B260A128A11013083160313AE07031871
:100F9800AF0A0030AF079F2F831203138815000094
:100FA8000A168A1173260A128A11033903190800CE
:100FB800C73083160313AB00E12FAB0BE02FE42FF0
:100FC800D42FF1006400831603178C18E62F7108DC
:100FD800831203178D003F30F00070088316031743
:100FE8008C050C1403100C1803140030031801307E
:100FF800831203170C08080008308A000408840AC2
:10100800820700343F3447344F3457345F347734E1
:101018007E347F3486348734373467346F344F34C2
:10102800593463346D34773495349F349F34A934FC
:10103800A934453481348B3418341B341E3421349C
:1010480024342D347B3430347E343334153427340F
:101058002A3458340234013483120313861A402880
:10106800023083160313BB003B08B50002300A1296
:101078008A15A0250A128A150A128A15A5210800C0
:101088008312031307106303031D512803300A1248
:101098008A15F9200A128A15572800300A168A116B
:1010A80069270A128A1583160313A8002808A900BD
:1010B80000300A128A15F9200A128A1583160313BA
:1010C800290203186A28D601D60A6B28D60183128A
:1010D80003130714080083160313A50001300A162A
:1010E8008A1169270A128A1583160313A400250892
:1010F800840024088313800002300A168A116927A5
:101108000A128A1583160313A400220884002408EF
:101118008313800003300A168A1169278316031384
:10112800A400230884002408831380000800831681
:101138000313A50083120313881106300A168A11B7
:101148005B260A128A15831203138815AB288312AB
:101158000313881101300A168A115B260A128A15B0
:101168008316031325080A168A115B260A128A15A4
:10117800831203138815C0280A168A1173260A12C7
:101188008A15013903190800C02883160313A20021
:10119800831603178C18CC2883160313220883128E
:1011A80003178D00831603132008831203178C007E
:1011B8003F3083160313A1002108831603178C05FB
:1011C8008312031303108B1B03148B13831603174B
:1011D8000C1555308D00AA308D008C140C1183121B
:1011E8000313031C08008B17080083160313A700BA
:1011F8002708A600A60DA60D831203131F08831641
:1012080003132606C3392606831203139F001F14EF
:10121800013083160313A0000030A1000A168A11BA
:1012280022270A128A15831203139F14013083168A
:101238000313A0000030A1000A168A1122270A12FF
:101248008A15831203139F1825291F101E080800EA
:10125800013083160313A9000030AA002708803A3A
:10126800A8002A08803A2802031D3C2929082602DA
:10127800031C080083120313871402308316031318
:10128800A0000030A1000A168A1122270A128A1526
:10129800831203138710063083160313A00000304F
:1012A800A1000A168A1122270A128A15013083160C
:1012B8000313A9070318AA0A0030AA073229F30161
:1012C800F4017408803AFF0080307F02031D6E2904
:1012D80005307302031808007308F0007007433ED6
:1012E800840083130008F100840A0008F2007208E1
:1012F800803AFF0080307F02031D8429013071028B
:10130800031C98297308F0007007433E8400FF30DF
:1013180083138007840F00080318000AFF00FF30BA
:101328007F07800084039E2973084D3E8400831341
:101338008001800A0130F3070318F40A0030F4072B
:1013480065291E30831203135E065F04031907190B
:10135800B2290A128A1544200A128A158316031321
:101368005603031DCB298312031385180719CB29AC
:101378000715003083160313A000A1007830A200DF
:101388000030A3000A168A1111260A128A15831240
:1013980003134D08031908000A128A1544200A127B
:1013A8008A158316031356080319EB2983120313AE
:1013B800851CEB29003083160313A000A1007830A8
:1013C800A2000030A3000A168A1111260800831211
:1013D8000711080003300A128A11E5270A128A1534
:1013E800F3007308F4000130F3007308F40774087D
:1013F800F3007308F00003300A168A11B1270A12A5
:101408008A157408031D080002300A128A11E5279C
:101418000A128A15F3007308F5000130F300730807
:10142800F5077508F3007308F00002300A168A11F0
:10143800B1270A128A157508031D080001300A121F
:101448008A11E5270A128A15F3007308F60001309D
:10145800F3007308F60720307602031C372A1F3082
:10146800F3007308F6007608F3007308F000013003
:101478000A168A11B1270800023083160313A00048
:101488000030A1000530A2000030A3000A168A111E
:1014980011260A128A1520300A128A156D230A129B
:1014A8008A150D3083160313B600FB30B500B50B53
:1014B8005B2AB60B5B2A0E300A168A118D270A1290
:1014C8008A15023883160313B5003508A7000E30B5
:1014D8000A168A11C3260A128A1540300A128A157A
:1014E8006D230A128A150E300A168A118D270A12E0
:1014F8008A150239031D8A2A831203134F08031918
:10150800772A0A128A1161260A128A1560300A128D
:101518008A156D230A128A15A53083160313B500A0
:10152800B50B942A972A83160313D701D70A080004
:10153800831603130F178F160F120F14831203133A
:10154800850186018701880189010B308316031301
:1015580085003D308600103087000730880007304E
:1015680089008316031788018901081488158816CD
:101578000817881709148316031381131514831287
:10158800061CC32A8316031395168312861EC92ABE
:10159800F03094051412831603131417941383124E
:1015A80003139416831603138C11831203138516E1
:1015B80005160816881586148B150B178316031342
:1015C8000C148B17961630308312031390000B30CF
:1015D8008F00DB308E0010141F139F138316031324
:1015E8009F139F121F1283120313DE01DF01DA011A
:1015F800DB01DC01DD010800033083160313A000C2
:101608000030A1000530A2000030A3000A168A119C
:1016180011260A128A1520300A128A156D230A1219
:101628008A1583160313D70183160317D601D7012A
:10163800D801D9015908803AFF0080307F02031D84
:10164800272B1E3058020318512B831603175808EE
:10165800B83E8400831780010130D8070318D90ADF
:101668000030D9071E2B0A168A1135260A128A1548
:1016780083160313D100831603175608B83E840057
:10168800831603135108831780000130831603174C
:10169800D6070318D70A0030D70783120313861D0D
:1016A800582B50080319372B0D3083160313D2001B
:1016B800FB30D100D10B5E2BD20B5E2B00300A120F
:1016C8008A156D230A128A15B8300A128A118A22DD
:1016D800080083160313AC008312031305120030AD
:1016E8000A168A118D270A128A1583160313AB006E
:1016F8002B08AD00C72B2D081F398038AB002B08ED
:10170800A70000300A168A11C3260A128A15DA2B96
:10171800831603132D081F396038AB002B08A70068
:1017280000300A168A11C3260A128A15DA2B831684
:1017380003132D081F394038AB002B08A7000030D1
:101748000A168A11C3260A128A15DA2B831603137E
:101758002D081F392038AB002B08A70000300A16C7
:101768008A11C3260A128A15DA2B831603132D0849
:101778001F39AB002B08A70000300A168A11C326B0
:101788000A128A15DA2B831603132C08003A031958
:10179800B92B203A0319AA2B603A03199B2B203A3C
:1017A80003198C2BE03A03197F2BDA2B83120313CE
:1017B8000516080083120313A000881120080319D6
:1017C800E72B0330F52B06300A168A11E2250A1298
:1017D8008A158312031388150000831203138811D6
:1017E80002300A168A11E2250A128A1577080A16A3
:1017F8008A11E2250A128A1578080A168A11E22542
:101808000A128A1579080A168A11E2250A128A1517
:1018180083120313A101A20176082202031D162CCC
:10182800750821020318412C200803192C2C0A16CC
:101838008A11A9250A128A15FB00831203132108AD
:101848007A07FC007C0884007B0883138000382C0E
:1018580021087A07FB007B088400831300080A1616
:101868008A11E2250A128A15013083120313A1078F
:101878000318A20A0030A207102C881500000A16C7
:101888008A1147260A128A15033903190800C73036
:10189800FB004E2CFB0B4D2C512C522C432C83124D
:1018A8000313081212300A168A115B260A128A15C7
:1018B80001300A168A115B260A128A1500300A16A8
:1018C8008A115B260A128A158312031308160C3034
:1018D80083160313A300A30B6F2C000083120313BA
:1018E800081212300A168A115B260A128A1502306B
:1018F8000A168A115B260A128A1500300A168A11FE
:101908005B260A128A158312031308160C308316F5
:101918000313A300A30B8E2C0000831203130812D9
:1019280012300A168A115B260A128A1508300A161E
:101938008A115B260A128A1500300A168A115B265C
:101948000A128A158312031308160C308316031320
:10195800A300A30BAD2C000083120313081212304E
:101968000A168A115B260A128A1501300A168A118C
:101978005B260A128A1580300A168A115B260A121B
:101988008A1583120313081683160313A4016430FF
:1019980024020318ED2C83120313081213300A16BD
:1019A8008A115B260A128A1504300A168A115B26E8
:1019B8000A128A150A168A11B1250A128A152039BF
:1019C800031DED2C013083160313A3002308A4077D
:1019D800CB2C83120313081608000A128A159C22BE
:1019E8000A128A150A128A1516270A128A150A1265
:1019F8008A1553240A128A150A168A1173260A129E
:101A08008A15E3390A128A159B200A128A150A16C2
:101A18008A1100270A128A150A168A118B260A12B9
:101A28008A15831203138610023083160313D50018
:101A38008630D4009830D300D30B202DD40B202D22
:101A4800D50B202D00008312031386140230831651
:101A58000313D5008630D4009830D300D30B322D31
:101A6800D40B322DD50B322D000083120313061828
:101A7800462D0A128A1151250A128A158312031358
:101A8800061C422D0A168A11CA250A128A15003A1E
:101A9800031D532D0A168A11A5250A128A150A163E
:101AA8008A11CA250A128A15013A031D602D0A16E1
:101AB8008A11E1260A128A150A168A11CA250A12FB
:101AC8008A15023A031D6D2D0A168A11D5250A12A8
:101AD8008A150A168A11CA250A128A15043A031D9C
:101AE8007A2D0A168A1123260A128A150A168A11CD
:101AF800CA250A128A15053A031D872D0A128A1566
:101B080030200A128A15831603135708031D912DD6
:101B18000A128A1540220A128A1583120313061E16
:101B2800392D8316031357080319392D0A128A15FC
:101B380000230A128A15392D83160313BA000430BC
:101B4800A0000030A1000530A2000030A3000A1652
:101B58008A1111260A128A1583160313B801B901CE
:101B680020300A128A156D230A128A150D30831641
:101B78000313B700FB30B600B60BC02DB70BC02D52
:101B88000E300A168A118D270A128A150238831612
:101B98000313B6003608A7000E300A168A11C326AA
:101BA8000A128A1540300A128A156D230A128A15FC
:101BB8000E300A168A118D270A128A150239031D5A
:101BC800EF2D8312031351080319DC2D0A128A1111
:101BD80061260A128A1580300A128A156D230A12A4
:101BE8008A15A53083160313B600B60BF92DFC2D04
:101BF80053300A168A11F0250A128A1559300A1626
:101C08008A11F0250A128A154E300A168A11F02513
:101C18000A128A1543300A168A11F0250A128A1503
:101C28002C300A168A11F0250A128A158316031316
:101C38003A080A168A11F0250A128A158316031320
:101C480035080A168A11F0250A128A1537300A163D
:101C58008A11F0250A128A1583120313061A392EDF
:101C68008312031351080319302E0230831603130D
:101C7800B600B60B3D2E000000300A128A156D23FF
:101C88000A128A15413083160313B700ED30B600E7
:101C9800B60B4C2EB70B4C2E512E0800861A6A2E06
:101CA80056085704031D6A2E0A168A11C1250A12FE
:101CB8008A1583120313BC0002303C0203186A2EF3
:101CC8000130D6000030D700D401D5010C1C092FF3
:101CD80010100B308F00DB308E0056035704031DA5
:101CE800982E6208BD006108BC000310BC0DBD0D34
:101CF8005508803ABE003D08803A3E02031D862EF4
:101D08003C0854020318982E013083120313D40799
:101D18000318D50A0030D5078618942E8614B62ED7
:101D2800861CB62E8610B62E83120313560357044C
:101D3800031DB62E6208BD006108BC000310BC0D6F
:101D4800BD0D5508803ABE003D08803A3E02031D8D
:101D5800AF2E3C085402031CB62E83120313D6017F
:101D6800D7018710013083120313DA070318DB0A3F
:101D78000030DB075B08803AFF0080307F02031DDC
:101D8800C72E02305A02031CD82E83120313DA011D
:101D9800DB010130DE070318DF0A0030DF070A1213
:101DA8008A1563210A128A15831203135F08803A81
:101DB800FF0080307F02031DE32E3C305E02031CCF
:101DC800F42E83120313DE01DF010130DC07031850
:101DD800DD0A0030DD070A128A113F200A128A152F
:101DE800831203135D08803AFF0080307F02031DD1
:101DF800FF2E3C305C02031C052F83120313DC0109
:101E0800DD018312031310140C100B108B174208FA
:101E1800FF0041088A00400884003F0E8300FE0E40
:101E28007E0E0900303083160313B5003508A7006D
:101E380000300A168A11C3260A128A15A83083169A
:101E48000313B5003508A70001300A168A11C32606
:101E58000A128A15093083160313B5003508A7003E
:101E680002300A168A11C3260A128A150730831609
:101E78000313B5003508A70003300A168A11C326D4
:101E88000A128A150A3083160313B5003508A7000D
:101E980005300A168A11C3260A128A15B930831624
:101EA8000313B5003508A7000D300A168A11C3269A
:101EB8000A128A15113083160313B5003508A700D6
:101EC8000E300A168A11C3260A128A15A330831601
:101ED8000313B5003508A70010300A168A11C32667
:101EE8000A128A153E3083160313B5003508A70079
:101EF80012300A168A11C3260A128A15533083161D
:101F08000313B5003508A70016300A168A11C32630
:101F18000A128A15593083160313B5003508A7002D
:101F280017300A168A11C3260A128A154E308316EC
:101F38000313B5003508A70018300A168A11C326FE
:101F48000A128A15433083160313B5003508A70013
:101F580019300A168A11C3260A128A157230831696
:101F68000313B5003508A7001A300A168A11C326CC
:101F78000A128A153C3083160313B5003508A700EA
:101F88001B300A168A11C3260A128A158030831656
:101F98000313B5003508A7001F300A168A11C32697
:101FA8000A128A1500300A168A118D270A128A1514
:101FB800013883160313B5003508A70000300A1648
:101FC8008A11C3260A128A150A128A1161260A1270
:101FD8008A15013A031DFB2F013083160313A6004F
:101FE8000030A7000A128A152C210A128A1500301F
:081FF8000A128A156D2308008E
:102B4A000A128A15A521080000300A168A11E22500
:102B5A00831203131308080000300A168A115B2631
:102B6A00831203131308080064008001840A040610
:102B7A00031900340406BA2D831203130609073910
:102B8A00F0007008F10006300800831203130609EA
:102B9A00073983160313A0002008A1000630080095
:102BAA000A128A15A5210A168A1183120313071D10
:102BBA00E02D8714080087100800F200831203131F
:102BCA001308F0007008F1008C11720893008C1D34
:102BDA00EC2D8C11080083160313A3008312031330
:102BEA0085128316031323080A168A115B26831299
:102BFA00031385160800F300F201731C082E7008EF
:102C0A00F1007108F2070310F00D0310F30C7308BA
:102C1A00031D022E72080800831603132008A4005D
:102C2A002407433E8400220883138000840A230871
:102C3A00800020084D3E840080010800831203139F
:102C4A00861A312E83160313B501B50A02300A1209
:102C5A008A15A0250A168A110A128A15A5210800C2
:102C6A008312031385120A168A11B12583160313D8
:102C7A00A3002308A40083120313851683160313E3
:102C8A002408080083120313881105300A168A11D2
:102C9A00E2250A168A110A168A11A925F300730871
:102CAA00F4008312031388157408080083160313AB
:102CBA00A20083120313130883160313A00020082B
:102CCA00A100831203138C118316031322088312A3
:102CDA00031393008C1D6F2E8C11080083120313AB
:102CEA00881105300A168A115B260A168A110A16F5
:102CFA008A11B12583160313A3002308A4008312A3
:102D0A000313881583160313240808008316031374
:102D1A00A00103300A128A15C9200A168A118316DD
:102D2A000313A00102300A128A15C9200A168A1151
:102D3A0083160313A00101300A128A15C92008005C
:102D4A00F401F5017508803AF2007108803A7202BE
:102D5A00031DB12E70087402031808008230F300B4
:102D6A00DD30F200F20BB72EF30BB72EBC2E01307A
:102D7A00F4070318F50A0030F507A72E8316031384
:102D8A00AA00831203130512831603132A08A80044
:102D9A002807A9002908AA002A080A168A115B2608
:102DAA000A168A118316031327080A168A115B2644
:102DBA0083120313051608001E30831203135E06DE
:102DCA005F0403190719EE2E0A128A1544200A16FF
:102DDA008A118312031356035704031DFD2E83160B
:102DEA0003135603031DFD2E831203130715080050
:102DFA0083120711080083120313881106300A167A
:102E0A008A115B260A168A11831203138815000099
:102E1A00831203138811C7300A168A115B260A1611
:102E2A008A118312031388150A168A1173260A1641
:102E3A008A11003A03190800192F83160313A401F3
:102E4A00A5012508803AA2002108803A2202031D22
:102E5A00302F200824020318080082308316031337
:102E6A00A300DD30A200A20B382FA30B382F0130AC
:102E7A0083160313A4070318A50A0030A507262FF3
:102E8A00F50001300A128A11E5270A168A11F400A0
:102E9A007508840074088313800002300A128A11AC
:102EAA00E5270A168A11F40072088400740883134D
:102EBA00800003300A128A11E527F400730884009F
:102ECA00740883138000080083160313A1006F2F70
:102EDA00831603136400831603178C186D2F831649
:102EEA0003132108831203178D003F30831603133F
:102EFA00A0002008831603178C050C1403100C1865
:102F0A000314003003180130831203170C08080059
:102F1A0083160313A60083120313051283160313E1
:102F2A002608A30023074038A4002408A600260880
:102F3A000A168A115B260A168A110A168A11B125FF
:102F4A0083160313A3002308A5008312031305168F
:102F5A008316031325080800F200831603178C183A
:102F6A00B22F7208831203178D0070088C003F304D
:102F7A00F1007108831603178C05831203130310DB
:102F8A008B1B03148B13831603170C1555308D00F6
:102F9A00AA308D008C140C1183120313031C080031
:102FAA008B170800F7007708F600F60DF60D831266
:102FBA0003131F087606C33976069F001F140130D3
:102FCA00F0000030F1000A168A11A5260A168A11A5
:102FDA00831203139F140130F0000030F1000A1627
:102FEA008A11A5260A168A11831203139F18F92F2C
:062FFA001F101E08080074
:02400E0014E0BC
:00000001FF
