:060000000A128A11122809
:10000800FE00030EF8000408F9000A08FA0083123B
:1000180003137F08FB000A128A156F2C0A128A1133
:1000280015280A168A11C2240A128A11EB000A1628
:100038008A11C3240A128A11EC000A168A11C424F0
:100048000A128A11ED00831790308400B8300A161E
:100058008A11D1240A128A118313C2308400CC3049
:100068000A168A11D1240A128A11563084006B307C
:100078000A168A11D124FC01FD0183010A128A1192
:10008800F62E3E3083120313B8003808A4003F3020
:10009800B9003908A5004030BA003A08A600413036
:1000A800BB003B08A7004230BC003C08A8003D301C
:1000B8000A128A11BD250A128A11831203134208F3
:1000C800B8003808C3004530B8003808A2004430EA
:1000D800B9003908A30046300A168A11CB260A123D
:1000E8008A11013083120313A5000030A6004608C8
:1000F800B8003808A7004508B9003908A80044081E
:10010800BA003A08A9004330BB003B08AA000030F7
:100118000A128A15A7220A128A110A128A151B26A0
:100128000A128A11831203134108B8003808C30061
:100138004530B8003808A2004430B9003908A30097
:1001480046300A168A11CB260A128A110130831208
:100158000313A5000030A6004608B8003808A70019
:100168004508B9003908A8004408BA003A08A900A7
:100178004330BB003B08AA0000300A128A15A722A8
:100188000A128A110A128A151B260A128A11831268
:1001980003134008B8003808C3004530B8003808D1
:1001A800A2004430B9003908A30046300A168A1163
:1001B800CB260A128A11013083120313A5000030DE
:1001C800A6004608B8003808A7004508B90039084D
:1001D800A8004408BA003A08A9004330BB003B080D
:1001E800AA0000300A128A15A7220A128A110A12D6
:1001F8008A151B260A128A11831203133F08B800B6
:100208003808C3004530B8003808A2004430B900A7
:100218003908A30046300A168A11CB260A128A1119
:10022800013083120313A5000030A6004608B80069
:100238003808A7004508B9003908A8004408BA00DA
:100248003A08A9004330BB003B08AA0000300A1254
:100258008A15A7220A128A110A128A151B260A125F
:100268008A1100300A168A11A0260A128A118312EE
:100278000313B8003808C3004530B8003808A20096
:100288004430B9003908A30046300A168A11CB2633
:100298000A128A11013083120313A5000030A60048
:1002A8004608B8003808A7004508B9003908A8006A
:1002B8004408BA003A08A9004330BB003B08AA002A
:1002C80000300A128A15A7220A128A110A128A1500
:1002D8001B260A128A1103300A168A11A0260A124E
:1002E8008A1183120313B8003808C3004530B800D8
:1002F8003808A2004430B9003908A30046300A166D
:100308008A11CB260A128A11013083120313A50021
:100318000030A6004608B8003808A7004508B9000C
:100328003908A8004408BA003A08A9004330BB00BD
:100338003B08AA0000300A128A15A7220A128A115D
:100348000A128A151B260A128A1105300A168A1102
:10035800A0260A128A1183120313B8003808C300B2
:100368004530B8003808A2004430B9003908A30065
:1003780046300A168A11CB260A128A1101308312D6
:100388000313A5000030A6004608B8003808A700E7
:100398004508B9003908A8004408BA003A08A90075
:1003A8004330BB003B08AA0000300A128A15A72276
:1003B8000A128A110A128A151B260A128A11073094
:1003C8000A168A11A0260A128A1183120313B8008A
:1003D8003808C3004530B8003808A2004430B900D6
:1003E8003908A30046300A168A11CB260A128A1148
:1003F800013083120313A5000030A6004608B80098
:100408003808A7004508B9003908A8004408BA0008
:100418003A08A9004330BB003B08AA0000300A1282
:100428008A15A7220A128A110A128A151B260A128D
:100438008A1106300A168A11A0260A128A11831216
:100448000313B8003808C3004530B8003808A200C4
:100458004430B9003908A30046300A168A11CB2661
:100468000A128A11013083120313A5000030A60076
:100478004608B8003808A7004508B9003908A80098
:100488004408BA003A08A9004330BB003B08AA0058
:1004980000300A128A15A7220A128A110A128A152E
:1004A8001B260A128A1108300A168A11A0260A1277
:1004B8008A1183120313B8003808C3004530B80006
:1004C8003808A2004430B9003908A30046300A169B
:1004D8008A11CB260A128A11013083120313A50050
:1004E8000030A6004608B8003808A7004508B9003B
:1004F8003908A8004408BA003A08A9004330BB00EC
:100508003B08AA0000300A128A15A7220A128A118B
:100518000A128A151B26080083120313D0002830FC
:10052800CF004F08AE0050080A128A1577200A1229
:100538008A11003A0319A82A0A168A11E2240A1213
:100548008A11063A0319BF2A303083120313CF00E9
:100558004F08AE0050080A128A1577200A128A112D
:10056800003A0319D02A0A168A11E2240A128A11BB
:10057800073A031DD02A013083120313DD0000302F
:10058800DE00FC01FD016430A0000030A1000A1665
:100598008A110E260A128A11831203135008840046
:1005A8002C3083130006031D08005008033E840006
:1005B80037300006031D08004A2C07150A30A00032
:1005C8000030A1000A168A110E260A128A11831217
:1005D800031307110530A0000030A1000A168A1184
:1005E8000E26080087140A30A0000030A1000A1661
:1005F8008A110E260A128A118312031387100530F6
:10060800A0000030A1000A168A110E2608008610E4
:100618000A30A0000030A1000A168A110E260A121C
:100628008A118312031386140530A0000030A1003C
:100638000A168A110E260800831203135008023E78
:10064800840083130008013A0319E12A033A0319C5
:10065800F62A013A03190B2B6C2C08005008023EAD
:1006680084000003031D512B0A168A11E2240A1282
:100678008A11063A031D512B013083120313DD0042
:100688000030DE00FC01FD016430A0000030A10054
:100698000A168A110E260A128A11831203135008A9
:1006A800023E8400023083130006031D08000A1668
:1006B8008A11E2240A128A11073A031D0800013040
:1006C80083120313DD000030DE00FC01FD016430FD
:1006D800A0000030A1000A168A110E260800831215
:1006E80003135008023E840083130008031D08000A
:1006F80000300A168A11A0260A128A1183120313DF
:10070800CF004F08B50003300A128A15BD23080030
:10071800831203135008023E840083130008031D4C
:10072800080003300A168A11A0260A128A118312B9
:100738000313CF004F08B50004300A128A15BD23F1
:100748000800831203135008023E84008313000834
:100758000319BA2B5008023E84000008CF004F0846
:10076800A00000300A168A114F27080000300A1628
:100778008A1131260A128A1183120313CF004F08F7
:10078800B50005300A128A15BD2308008312031329
:100798005008023E840083130008031DE52B6D03F7
:1007A800031DDD2BB501B50A06300A128A15BD23D3
:1007B800080083120313B50106300A128A15BD23F7
:1007C8000800831203135008023E840083130003B9
:1007D800031DF12BED01ED0A08005008023E8400CC
:1007E8000008031D0800ED0108005008023E8400BF
:1007F8000008031D08000A168A1179260A128A11B0
:100808008312031368080319102CB501B50A0730C1
:100818000A128A15BD230800023083120313CF0081
:100828004F08B50007300A128A15BD2308000A16BA
:100838008A1159250A128A11E3390A168A112327BF
:100848000A128A110A168A11B6250A128A110A167C
:100858008A11EC250A128A1183120313B501B50A0D
:1008680009300A128A15BD23080083120313690888
:10087800031D422C0A128A116D24080083120313E7
:10088800B50108300A128A15BD2308008312031324
:10089800500A840083130008013A0319202B033AF5
:1008A8000319322B013A0319732B073A03198C2BBE
:1008B800013A0319A52B033A0319CA2B013A031964
:1008C800F92B0F3A0319392C013A03191B2C6C2CFC
:1008D8000800003083120313C7000030C600003040
:1008E800C5000030C4004930BB003B08A2004A30B4
:1008F800BC003C08A30048300A168A11CB260A120D
:100908008A11831203134808BB00BC01BD01BE0154
:100918003E08C7003D08C6003C08C5003B08C400A7
:100928004908BB00BC01BD01BE014408BF00450821
:10093800C0004608C1004708C20008300310BF0DB8
:10094800C00DC10DC20DFF3E031DA22C3F08BB0701
:1009580040080318400FB12CB22CBC0741080318FB
:10096800410FB72CB82CBD0742080318420ABE072E
:100978003E08C7003D08C6003C08C5003B08C40047
:100988004A08BB00BC01BD01BE014408BF004508C0
:10099800C0004608C1004708C20008300310BF0D58
:1009A800C00DC10DC20DFF3E031DD22C3F08BB0771
:1009B80040080318400FE12CE22CBC07410803183B
:1009C800410FE72CE82CBD0742080318420ABE076E
:1009D8003E08C7003D08C6003C08C5003B08C400E7
:1009E8000330BB003B08B50008300A128A15BD2346
:1009F8000A128A11003083120313CE000030CD0092
:100A08000030CC000030CB0047084E02031D162DE5
:100A180046084D02031D162D45084C02031D162DD0
:100A280044084B020318B62D4B08BB003B08CA000C
:100A38004B08BB004C08BC004D08BD004E08BE006A
:100A480008300310BE0CBD0CBC0CBB0CFF3E031DD4
:100A5800252D3B08BF003F08C9004B08BB004C08C8
:100A6800BC004D08BD004E08BE0010300310BE0C7F
:100A7800BD0CBC0CBB0CFF3E031D3A2D3B08BF0050
:100A88003F08C8004E084D044C044B040319752D4B
:100A9800003083120313A3000030A2000030A1002D
:100AA8000A30A0004E08A7004D08A6004C08A50073
:100AB8004B08A4000A128A15BD200A128A11831253
:100AC80003132308220421042004031D7D2DB501EE
:100AD800B50A0C300A128A15BD230A128A1183122C
:100AE8000313B501B50A0B300A128A15BD230A1281
:100AF8008A11013083120313A5000030A6004808AC
:100B0800BB003B08A7004908BC003C08A8004A08ED
:100B1800BD003D08A9004330BE003E08AA000130D0
:100B28000A128A15A7220A128A118312031343088C
:100B3800BB003B08B5000A300A128A15BD230A1209
:100B48008A11013083120313CB07003003180130D8
:100B5800CC07003003180130CD07003003180130EE
:100B6800CE07082DB501B50A08300A128A15BD232B
:100B7800080083120313B100081213300A168A11F1
:100B880004250A128A1101300A168A1104250A124C
:100B98008A110A168A11C9240A128A117F39831206
:100BA8000313A9002908B2000A168A11C9240A12D7
:100BB8008A117F3983120313A9002908B3000A1682
:100BC8008A11C9240A128A113F3983120313A90012
:100BD8002908B4000A168A11C9240A128A11831234
:100BE8000313A9002908B7000A168A11C9240A1292
:100BF8008A113F3983120313A9002908B7000A167E
:100C08008A11C9240A128A111F3983120313A900F1
:100C18002908B5000A168A11C9240A128A118312F2
:100C28000313A9002908B60008163208A9000430E1
:100C38000310A90CFF3E031D1C2E29080739AA0022
:100C48002A08AB0032080F39A9002908B2000A3077
:100C5800A9002908A0002B080A168A1146250A129D
:100C68008A11831203133207AA00310884002A0864
:100C7800831380003308A90004300310A90CFF3E39
:100C8800031D412E29080739AA002A08AC00330899
:100C98000F39A9002908B3000A30A9002908A000C3
:100CA8002C080A168A1146250A128A118312031380
:100CB8003307AA00240884002A0883138000340814
:100CC800A90004300310A90CFF3E031D662E290855
:100CD8000339AA002A08AD0034080F39A9002908E9
:100CE800B4000A30A9002908A0002D080A168A11A4
:100CF80046250A128A11831203133407AA0025080D
:100D080084002A08831380003708A90004300310E0
:100D1800A90CFF3E031D8B2E29080339AA002A08B7
:100D2800AE0037080F39A9002908B7000A30A90012
:100D38002908A0002E080A168A1146250A128A11C7
:100D4800831203133707AA00260884002A0883138E
:100D580080003508A90004300310A90CFF3E031DCC
:100D6800B02E29080139AA002A08AF0035080F3922
:100D7800A9002908B5000A30A9002908A0002F08F1
:100D88000A168A1146250A128A1183120313350797
:100D9800AA00270884002A08831380003608A900BF
:100DA80004300310A90CFF3E031DD52E29080F3966
:100DB800AA002A08B00036080F39A9002908B60089
:100DC8000A30A9002908A00030080A168A11462509
:100DD800831203133607AA00280884002A088313FD
:100DE800800008000A128A1567210A128A110A125D
:100DF8008A1531250A128A110A128A1523230A1222
:100E08008A11831203138610023083120313D5004C
:100E18008630D4009830D300D30B102FD40B102F6A
:100E2800D50B102F0000831203138614023083128F
:100E38000313D5008630D4009830D300D30B222F6B
:100E4800D40B222FD50B222F000083120313061870
:100E58008C2F8610023083120313D5008630D400FD
:100E68009830D300D30B362FD40B362FD50B362F13
:100E78000000831203138614023083120313D50073
:100E88008630D4009830D300D30B482FD40B482F8A
:100E9800D50B482F00000A168A1159250A128A1103
:100EA800E3390A168A1123270A128A110A168A11A7
:100EB800B6250A128A110A168A11EC250A128A1115
:100EC800831203138610023083120313D500863071
:100ED800D4009830D300D30B6F2FD40B6F2FD50BC2
:100EE8006F2F00008312031386140230831203133A
:100EF800D5008630D4009830D300D30B812FD40B83
:100F0800812FD50B812F000083120313061C882F15
:100F18000A168A11E2240A128A11003A031D992F2F
:100F28000A168A11C5240A128A110A168A11E2249D
:100F38000A128A11013A031DA62F0A168A11822560
:100F48000A128A110A168A11E2240A128A11023A2E
:100F5800031DB32F0A168A11F7240A128A110A16DA
:100F68008A11E2240A128A11043A031DC02F0A16B4
:100F78008A1112250A128A110A168A11E2240A1203
:100F88008A11053A031DCD2F0A168A1134250A1233
:100F98008A11831203136A08031DD72F0A128A15B0
:100FA8000B210A128A1183120313061EE32F6A0803
:100FB8000319E32F0A128A15CB210A128A11831208
:100FC800031369080319292F0A128A1145200A12E6
:100FD8008A1183120313E901292F8312031385123F
:100FE8000A168A11C92483120313A3002308A40034
:060FF80085162408080024
:10100000013083120313A9000030AA002708803A98
:10101000A8002A08803A2802031D10282908260261
:10102000031C08008312031387140230A000003051
:10103000A1000A168A110E260A128A1583120313BA
:1010400087100630A0000030A1000A168A110E2673
:101050000A128A15013083120313A9070318AA0A7A
:101060000030AA07062883120313AD000130A9023D
:101070000030031CAA03AA02290A03192A0A031929
:1010800074282D08840083130008031955282808A4
:1010900084000A168A1100200A128A15AB002D0856
:1010A000840000082B0603196B28280884000A1600
:1010B0008A110020AB00AC01AB09AC09AB0A0319E3
:1010C000AC0A2D08840000082B07A8002C08031880
:1010D0002C0AA90008000130AB002B08AD07013035
:1010E000AB002B08A8073628A801A9010800831225
:1010F0000313B200B2282E08AF002F08A8002E0854
:101100000A168A11F7260A128A1583120313210878
:10111000AA002008A90032080A128A1533200A12F0
:101120008A158312031328082904031D99283208FD
:1011300008002E0884000A168A1100200A128A1557
:10114000AF00B0012F08A0003008A1003208013E16
:101150000A168A116D250A128A1583120313B1002B
:101160003108B20032080319BB2832088400831307
:101170000008031D7B280030080083120313230896
:1011800022042104200403190229A901A90AA31B8E
:10119000D7280130A8000310A00DA10DA20DA30DAA
:1011A000A80BCB280130A8002808A907C7282308C6
:1011B0002702031DE52822082602031DE528210831
:1011C0002502031DE52820082402031CF528200819
:1011D000A4022108031C210FA5022208031C220FD0
:1011E000A6022308031C230FA70201300310A30C3F
:1011F000A20CA10CA00CFF3E031DF6280130A90291
:10120000031DD7282708A3002608A2002508A1004F
:101210002408A0000800023083120313A00000304D
:10122000A1000530A2000030A3000A168A11222571
:101230000A128A1520300A128A1538220A128A15D3
:101240000D3083120313B600FB30B500B50B262911
:10125000B60B26290E300A168A11D0250A128A15D5
:10126000023883120313B5003508A7000E300A16A2
:101270008A119C250A128A1540300A128A153822D2
:101280000A128A150E300A168A11D0250A128A15FA
:101290000239031D552983120313580803194229E3
:1012A0000A128A1508270A128A1560300A128A154E
:1012B00038220A128A15A53083120313B500B50B24
:1012C0005F29622983120313EA01EA0A08008316E0
:1012D00003130F178F160F120F14831203138501B8
:1012E00086018701880189010B308316031385006D
:1012F0003D308600103087000730880007308900B5
:1013000083160317880189010814881588160817A1
:101310008817091483160313811315148312061CEE
:101320008E298316031395168312861E9429F03096
:1013300094051412831603131417941383120313C2
:101340009416831603138C11831203138516051646
:101350000816881586148B150B17831603130C14A7
:101360008B17961630308312031390000B308F00CA
:10137000DB308E0010141F139F13831603139F136B
:101380009F121F1283120313E501E601E101E2013E
:10139000E301E4010800033083120313A0000030CE
:1013A000A1000530A2000030A3000A168A112225F0
:1013B0000A128A1520300A128A1538220A128A1552
:1013C00083120313EA0183160313BE01BF01C00198
:1013D000C1014108803AFF0080307F02031DF229DD
:1013E0001E30400203181C2A831603134008A03E37
:1013F0008400831380010130C0070318C10A003044
:10140000C107E9290A128A11F1270A128A158312E3
:101410000313D100831603133E08A03E84008312F9
:101420000313510883138000013083160313BE0792
:101430000318BF0A0030BF0783120313861D232A37
:1014400059080319022A0D3083120313D200FB300E
:10145000D100D10B292AD20B292A00300A128A1571
:1014600038220A128A15A0300A128A119022080026
:1014700083120313AC00051200300A168A11D0251E
:101480000A128A1583120313AB002B08AD00902AB1
:101490002D081F398038AB002B08A70000300A1632
:1014A0008A119C250A128A15A32A831203132D0878
:1014B0001F396038AB002B08A70000300A168A11CC
:1014C0009C250A128A15A32A831203132D081F399B
:1014D0004038AB002B08A70000300A168A119C2563
:1014E0000A128A15A32A831203132D081F392038E4
:1014F000AB002B08A70000300A168A119C250A129F
:101500008A15A32A831203132D081F39AB002B0859
:10151000A70000300A168A119C250A128A15A32AF0
:10152000831203132C08003A0319822A203A031964
:10153000732A603A0319642A203A0319552AE03ABB
:101540000319482AA32A83120313051608008312DD
:101550000313AD0088112D080319B02A0330BE2AE9
:1015600006300A168A1104250A128A1583120313FB
:101570008815000083120313881102300A168A119D
:1015800004250A128A158312031327080A168A11E2
:1015900004250A128A158312031328080A168A11D1
:1015A00004250A128A158312031329080A168A11C0
:1015B00004250A128A1583120313AE01AF0126080F
:1015C0002F02031DE52A25082E020318102B2D08D3
:1015D0000319FB2A0A168A11C9240A128A158312D2
:1015E0000313AB002E082A07AC002C0884002B083C
:1015F00083138000072B2E082A07AB002B088400DA
:10160000831300080A168A1104250A128A1501306C
:1016100083120313AE070318AF0A0030AF07DF2AA7
:10162000881500000A168A1159250A128A150339ED
:1016300003190800C73083120313AB001F2BAB0B39
:101640001E2B222B122B83120313081212300A16A0
:101650008A1104250A128A1501300A168A110425F6
:101660000A128A1500300A168A1104250A128A15F0
:101670008312031308160C3083120313A300A30B69
:101680003F2B000083120313081212300A168A112E
:1016900004250A128A1502300A168A1104250A1234
:1016A0008A1500300A168A1104250A128A15831237
:1016B000031308160C3083120313A300A30B5E2B35
:1016C000000083120313081212300A168A1104252F
:1016D0000A128A1508300A168A1104250A128A1578
:1016E00000300A168A1104250A128A158312031380
:1016F00008160C3083120313A300A30B7D2B0000EC
:1017000083120313081212300A168A1104250A12D2
:101710008A1501300A168A1104250A128A158030AA
:101720000A168A1104250A128A1583120313081651
:10173000A401643024020318B92B081213300A16CE
:101740008A1104250A128A1504300A168A11042502
:101750000A128A150A168A11C9240A128A15203912
:10176000031DB92B013083120313A3002308A40720
:10177000992B831203130816080083120313BA006F
:101780000430A0000030A1000530A2000030A3000A
:101790000A168A1122250A128A1583120313B80128
:1017A000B90120300A128A1538220A128A150D3022
:1017B00083120313B700FB30B600B60BDD2BB70B5B
:1017C000DD2B0E300A168A11D0250A128A1502382E
:1017D00083120313B6003608A7000E300A168A11CA
:1017E0009C250A128A1540300A128A1538220A12DC
:1017F0008A150E300A168A11D0250A128A15023966
:10180000031D0C2C831203135A080319F92B0A1217
:101810008A1508270A128A1580300A128A1538227A
:101820000A128A15A53083120313B600B60B162CC4
:10183000192C53300A168A11EB240A128A155930D2
:101840000A168A11EB240A128A154E300A168A11DA
:10185000EB240A128A1543300A168A11EB240A1265
:101860008A152C300A168A11EB240A128A15831263
:1018700003133A080A168A11EB240A128A158312F6
:10188000031335080A168A11EB240A128A15373019
:101890000A168A11EB240A128A1583120313061AF8
:1018A000562C831203135A0803194D2C023083124D
:1018B0000313B600B60B5A2C000000300A128A152A
:1018C00038220A128A15413083120313B700ED3013
:1018D000B600B60B692CB70B692C6E2C0800861A63
:1018E000872C5D085E04031D872C0A168A11D924F3
:1018F0000A128A15F500023075020318872C013090
:1019000083120313DD000030DE00FC01FD018312B1
:1019100003130C1C242D10100B308F00DB308E00B5
:101920005D035E04031DB62C6C08F6006B08F50021
:101930000310F50DF60D7D08803AF7007608803A21
:101940007702031DA52C75087C020318B62C013004
:10195000FC070318FD0A0030FD07831203138718E4
:10196000B32C8714D42C871CD42CD32C83120313B0
:101970005D035E04031DD42C6C08F6006B08F500B3
:101980000310F50DF60D7D08803AF7007608803AD1
:101990007702031DCD2C75087C02031CD42C831206
:1019A0000313DD01DE018710013083120313E10709
:1019B0000318E20A0030E2076208803AFF00803034
:1019C0007F02031DE52C02306102031CF62C8312FA
:1019D0000313E101E2010130E5070318E60A0030D4
:1019E000E6070A168A11BE270A128A158312031304
:1019F0006608803AFF0080307F02031D012D3C30D5
:101A00006502031C0F2D83120313E501E60101306B
:101A1000E3070318E40A0030E407E901E90A831246
:101A200003136408803AFF0080307F02031D1A2DE3
:101A30003C306302031C202D83120313E301E401F5
:101A40008312031310140C100B108B177B08FF006C
:101A50007A088A0079088400780E8300FE0E7E0ED4
:101A60000900303083120313B5003508A700003099
:101A70000A168A119C250A128A15A83083120313AC
:101A8000B5003508A70001300A168A119C250A12F4
:101A90008A15093083120313B5003508A7000230F8
:101AA0000A168A119C250A128A150730831203131D
:101AB000B5003508A70003300A168A119C250A12C2
:101AC0008A150A3083120313B5003508A7000530C4
:101AD0000A168A119C250A128A15B930831203133B
:101AE000B5003508A7000D300A168A119C250A1288
:101AF0008A15113083120313B5003508A7000E3084
:101B00000A168A119C250A128A15A3308312031320
:101B1000B5003508A70010300A168A119C250A1254
:101B20008A153E3083120313B5003508A700123022
:101B30000A168A119C250A128A1553308312031340
:101B4000B5003508A70016300A168A119C250A121E
:101B50008A15593083120313B5003508A7001730D2
:101B60000A168A119C250A128A154E308312031315
:101B7000B5003508A70018300A168A119C250A12EC
:101B80008A15433083120313B5003508A7001930B6
:101B90000A168A119C250A128A15723083120313C1
:101BA000B5003508A7001A300A168A119C250A12BA
:101BB0008A153C3083120313B5003508A7001B308B
:101BC0000A168A119C250A128A1580308312031383
:101BD000B5003508A7001F300A168A119C250A1285
:101BE0008A1500300A168A11D0250A128A15013882
:101BF00083120313B5003508A70000300A168A11B6
:101C00009C250A128A150A128A1508270A128A15B3
:101C1000013A031D162E013083120313A600003073
:101C2000A7000A128A1500200A128A1500300A122B
:101C30008A1538220800003083120313B5000030E3
:101C4000B4000030B3000030B2003030A7002708E5
:101C5000A2002F30A8002808A30031300A168A11EC
:101C6000CB260A128A15831203133108A700A80194
:101C7000A901AA012A08B5002908B4002808B30060
:101C80002708B2003008A700A801A901AA0132085C
:101C9000AB003308AC003408AD003508AE000830A6
:101CA0000310AB0DAC0DAD0DAE0DFF3E031D502E60
:101CB0002B08A7072C0803182C0F5F2E602EA807EF
:101CC0002D0803182D0F652E662EA9072E08031860
:101CD0002E0AAA072A08B5002908B4002808B3006C
:101CE0002708B2002F08A700A801A901AA013208FD
:101CF000AB003308AC003408AD003508AE00083046
:101D00000310AB0DAC0DAD0DAE0DFF3E031D802ECF
:101D10002B08A7072C0803182C0F8F2E902EA8072E
:101D20002D0803182D0F952E962EA9072E0803189F
:101D30002E0AAA072A08B5002908B4002808B3000B
:101D40002708B2003508AA003408A9003308A80003
:101D50003208A7000130B2070030B3070318B40AF5
:101D6000B4070318B50AB5072A08031DC52E1F308E
:101D70002902031DC32EFF302802031DC32EFF308E
:101D80002702031DC32E031CCD2E0030B5001F30CB
:101D9000B400FF30B300FF30B2003208A7002708BC
:101DA000AF003208A7003308A8003408A90035089E
:101DB000AA0008300310AA0CA90CA80CA70CFF3E1F
:101DC000031DDA2E2708AB002B08B0003208A7004D
:101DD0003308A8003408A9003508AA001030031001
:101DE000AA0CA90CA80CA70CFF3E031DEF2E270878
:101DF000AB002B08B1003008A7002708A3002F086C
:101E0000A8002808A40031080A168A1155260800DF
:101E100083120313B101B201E701DB01DC010630DB
:101E200083120313B0001330AF00AD30AE00AE0B21
:101E3000172FAF0B172FB00B172F83120313B301FC
:101E4000B4013408803AFF0080307F02031D2A2F3E
:101E50000D3033020318FE2F8312031333080E3E96
:101E600084000A168A1100200A128A15AE002E0874
:101E7000A70006300A168A119C250A128A158312B9
:101E800003133308013E84000A168A1100200A1247
:101E90008A15AE002E08A70007300A168A119C2565
:101EA0000A128A158312031333081B3E84000A1694
:101EB0008A1100200A128A15AE002E08A7000830E9
:101EC0000A168A119C250A128A15831203133308F5
:101ED0000E3E84000A168A1100200A128A15AE00EE
:101EE0002E08A70009300A168A119C250A128A15A5
:101EF000831203133308013E84000A168A1100205E
:101F00000A128A15AE002E08A7000A300A168A1196
:101F10009C250A128A158312031333081B3E840082
:101F20000A168A1100200A128A15AE002E08A70090
:101F30000B300A168A119C250A128A150E300A16D1
:101F40008A11D0250A128A15023883120313AE00B3
:101F50002E08A7000E300A168A119C250A128A152F
:101F600040300A128A1538220A128A158312031386
:101F7000B101B201831203133208803AFF008030AE
:101F80007F02031DC52F053031020318EB2F0E30E1
:101F90000A168A11D0250A128A1502390319DA2F76
:101FA00083120313E701E70A3408DC003308DB007F
:101FB00001300800013083120313B1070318B20A7D
:101FC0000030B207C73083120313AE00E72FAE0B09
:101FD000E62FEA2FBA2F013083120313B307031839
:101FE000B40A0030B4073408803AFF0080307F0222
:101FF000031DFC2F0D303302031C2C2F0030080072
:1020000010308A000408840A820700343F344734C1
:102010004F3457345F3477347E347F34863487349A
:10202000373467346F344F34593463346D34773414
:1020300095349F349F34A934A934453481348B348A
:1020400018341B341E34213424342D347B34303482
:102050007E343334153427342A344E343134423408
:102060004C3449344E344B3400344E3432344234E0
:0A2070004C3449344E344B34003434
:102984005834023401340A168A117F2708000030B3
:102994000A168A110425831203131308080064001D
:1029A4008001840A0406031900340406D22C83121D
:1029B400031306090739F0007008F10071080800D4
:1029C4008312031306090739A0002008A100210877
:1029D400080083120313A300851223080A168A1120
:1029E400042583120313851608000A168A117F270B
:1029F4000A168A1183120313071D022D8714080077
:102A04008710080083120313A2001308A0002008F3
:102A1400A1008C11220893008C1D0E2D8C1108002E
:102A240083120313861A1E2DB501B50A02300A1249
:102A34008A15BD230A168A110A168A117F270800EF
:102A4400831203132008A4002407C23E8400220832
:102A540083138000840A230880002008563E8400E3
:102A64008001080083120313861A422D0230BB0032
:102A74003B08B50002300A128A15BD230A168A11D2
:102A84000A168A117F27080083120313A300A201E8
:102A9400231C502D2008A1002108A2070310A00D1B
:102AA4000310A30C2308031D4A2D220808008312D7
:102AB4000313881105300A168A1104250A168A118F
:102AC4000A168A11C92483120313A3002308A4003D
:102AD40088152408080083120313A2002208840026
:102AE400831300082006031D792D220808002208FC
:102AF40084000130A2070008031D702D0030080077
:102B04001E308312031365066604031907198F2DFB
:102B14000A168A1179260A168A11831203135D0391
:102B24005E04031D9A2D6803031D9A2D07150800E2
:102B34000711080083120313AA0005122A08A8002B
:102B44002807A9002908AA002A080A168A110425B8
:102B54000A168A118312031327080A168A110425F8
:102B6400831203130516080083120313A001033014
:102B74000A168A114F270A168A1183120313A00119
:102B840002300A168A114F270A168A118312031378
:102B9400A00101300A168A114F270800831203137B
:102BA400A60005122608A30023074038A400240821
:102BB400A60026080A168A1104250A168A110A167E
:102BC4008A11C92483120313A3002308A500051640
:102BD4002508080083120313881106300A168A1187
:102BE40004250A168A118312031388150000831220
:102BF40003138811C7300A168A1104250A168A118C
:102C04008312031388150A168A1159250A168A1184
:102C1400003A03190800052E83120313A401A50129
:102C24002508803AA2002108803A2202031D1C2EA6
:102C34002008240203180800823083120313A3001F
:102C4400DD30A200A20B242EA30B242E013083120C
:102C54000313A4070318A50A0030A507122E831234
:102C64000313A100372E8312031364008316031782
:102C74008C18352E831203132108831203178D0039
:102C84003F3083120313A0002008831603178C051A
:102C94000C1403100C1803140030031801308312B1
:102CA40003170C08080083120313A6002608A500C6
:102CB4002508A00001300A168A114F270A168A1126
:102CC400831203132308A5002508A00002300A1666
:102CD4008A114F270A168A11831203132408A500A8
:102CE4002508A00003300A168A114F270800831212
:102CF40003136D03031D852E03300A168A11A026C3
:102D04000A168A118B2E00300A168A1131260A16E9
:102D14008A1183120313A8002808A90000300A1698
:102D24008A11A0260A168A11831203132902031892
:102D34009E2EE801E80A0800E80108008312031344
:102D4400A70007102708A600A60DA60D1F08260633
:102D5400C33926069F001F140130A0000030A100D3
:102D64000A168A110E260A168A11831203139F1457
:102D74000130A0000030A1000A168A110E260A169E
:102D84008A11831203139F18C32E1F1007141E08E1
:102D9400080083120313A50001300A168A11312694
:102DA4000A168A1183120313A40025088400240838
:102DB4008313800002300A168A1131260A168A11FA
:102DC40083120313A40022088400240883138000C0
:102DD40003300A168A11312683120313A400230830
:102DE4008400240883138000080083120313A600C0
:102DF4002608A2002208A700270884000A168A11C0
:102E040000200A168A11003A03190D2F0130A2007E
:102E14002208A707FE2E2608A2008030A300A209DC
:102E2400A309A20A0319A30A2708A4008030A50055
:102E340022082407A00023080318230A2507A10059
:102E4400080083120313A500881106300A168A119C
:102E540004250A168A11831203138815312F83124D
:102E64000313881101300A168A1104250A168A11DF
:102E74008312031325080A168A1104250A168A11D7
:102E8400831203138815462F0A168A1159250A1628
:102E94008A11013903190800462F83120313A20073
:102EA400831603178C18522F8312031322088312DC
:102EB40003178D00831203132008831203178C0059
:102EC4003F3083120313A1002108831603178C05D6
:102ED4008312031303108B1B03148B138316031722
:102EE4000C1555308D00AA308D008C140C118312F2
:102EF4000313031C08008B1708001E3083120313EE
:102F040065066604031907198C2F0A168A11792697
:102F14000A168A118312031368030319851CA12F4F
:102F24000719A12F07150030A000A1007830A200D6
:102F34000030A3000A168A1122250A168A11831268
:102F440003135608031908000A168A1179260A166B
:102F54008A11831203136808031D851CBC2F0030DB
:102F6400A000A1007830A2000030A3000A168A1144
:102F74002225080007110800F301F4017408803ABF
:102F8400FF0080307F02031DC92F05307302031830
:102F940008007308F0007007C23E84008313000821
:102FA400F100840A0008F2007208803AFF008030C1
:102FB4007F02031DDF2F01307102031CF32F7308FE
:102FC400F0007007C23E8400FF3083138007840F33
:102FD40000080318000AFF00FF307F078000840305
:102FE400F92F7308563E840083138001800A013050
:0C2FF400F3070318F40A0030F407C02FA4
:02400E0014E0BC
:00000001FF
