:060000000A128A11122809
:10000800FE00030EF8000408F9000A08FA0083123B
:1000180003137F08FB000A128A11392F0A128A116A
:1000280015280A168A119A240A128A11ED000A164E
:100038008A119B240A128A11EE000A168A119C243E
:100048000A128A11EF00831790308400B8300A161C
:100058008A11A5240A128A118313C2308400CC3075
:100068000A168A11A5240A128A11583084006D30A4
:100078000A168A11A524FC01FD0183010A128A15BA
:10008800532C3E3083120313B8003808A4003F30C5
:10009800B9003908A5004030BA003A08A600413036
:1000A800BB003B08A7004230BC003C08A8003D301C
:1000B8000A128A1100260A128A11831203134208AF
:1000C800B8003808C3004530B8003808A2004430EA
:1000D800B9003908A30046300A168A1198260A1270
:1000E8008A11013083120313A5000030A6004608C8
:1000F800B8003808A7004508B9003908A80044081E
:10010800BA003A08A9004330BB003B08AA000030F7
:100118000A128A158B220A128A110A128A151B26BC
:100128000A128A11831203134108B8003808C30061
:100138004530B8003808A2004430B9003908A30097
:1001480046300A168A1198260A128A11013083123B
:100158000313A5000030A6004608B8003808A70019
:100168004508B9003908A8004408BA003A08A900A7
:100178004330BB003B08AA0000300A128A158B22C4
:100188000A128A110A128A151B260A128A11831268
:1001980003134008B8003808C3004530B8003808D1
:1001A800A2004430B9003908A30046300A168A1163
:1001B80098260A128A11013083120313A500003011
:1001C800A6004608B8003808A7004508B90039084D
:1001D800A8004408BA003A08A9004330BB003B080D
:1001E800AA0000300A128A158B220A128A110A12F2
:1001F8008A151B260A128A11831203133F08B800B6
:100208003808C3004530B8003808A2004430B900A7
:100218003908A30046300A168A1198260A128A114C
:10022800013083120313A5000030A6004608B80069
:100238003808A7004508B9003908A8004408BA00DA
:100248003A08A9004330BB003B08AA0000300A1254
:100258008A158B220A128A110A128A151B260A127B
:100268008A1100300A168A116D260A128A11831221
:100278000313B8003808C3004530B8003808A20096
:100288004430B9003908A30046300A168A11982666
:100298000A128A11013083120313A5000030A60048
:1002A8004608B8003808A7004508B9003908A8006A
:1002B8004408BA003A08A9004330BB003B08AA002A
:1002C80000300A128A158B220A128A110A128A151C
:1002D8001B260A128A1103300A168A116D260A1281
:1002E8008A1183120313B8003808C3004530B800D8
:1002F8003808A2004430B9003908A30046300A166D
:100308008A1198260A128A11013083120313A50054
:100318000030A6004608B8003808A7004508B9000C
:100328003908A8004408BA003A08A9004330BB00BD
:100338003B08AA0000300A128A158B220A128A1179
:100348000A128A151B260A128A1105300A168A1102
:100358006D260A128A1183120313B8003808C300E5
:100368004530B8003808A2004430B9003908A30065
:1003780046300A168A1198260A128A110130831209
:100388000313A5000030A6004608B8003808A700E7
:100398004508B9003908A8004408BA003A08A90075
:1003A8004330BB003B08AA0000300A128A158B2292
:1003B8000A128A110A128A151B260A128A11073094
:1003C8000A168A116D260A128A1183120313B800BD
:1003D8003808C3004530B8003808A2004430B900D6
:1003E8003908A30046300A168A1198260A128A117B
:1003F800013083120313A5000030A6004608B80098
:100408003808A7004508B9003908A8004408BA0008
:100418003A08A9004330BB003B08AA0000300A1282
:100428008A158B220A128A110A128A151B260A12A9
:100438008A1106300A168A116D260A128A11831249
:100448000313B8003808C3004530B8003808A200C4
:100458004430B9003908A30046300A168A11982694
:100468000A128A11013083120313A5000030A60076
:100478004608B8003808A7004508B9003908A80098
:100488004408BA003A08A9004330BB003B08AA0058
:1004980000300A128A158B220A128A110A128A154A
:1004A8001B260A128A1108300A168A116D260A12AA
:1004B8008A1183120313B8003808C3004530B80006
:1004C8003808A2004430B9003908A30046300A169B
:1004D8008A1198260A128A11013083120313A50083
:1004E8000030A6004608B8003808A7004508B9003B
:1004F8003908A8004408BA003A08A9004330BB00EC
:100508003B08AA0000300A128A158B220A128A11A7
:100518000A128A151B26080083120313D0002830FC
:10052800CF004F08AE0050080A128A155B200A1245
:100538008A11003A0319A82A0A168A11B6240A123F
:100548008A11063A0319BF2A303083120313CF00E9
:100558004F08AE0050080A128A155B200A128A1149
:10056800003A0319D02A0A168A11B6240A128A11E7
:10057800073A031DD02A013083120313DF0000302D
:10058800E000FC01FD016430A0000030A1000A1663
:100598008A11DB250A128A1183120313500884007A
:1005A8002C3083130006031D08005008033E840006
:1005B80037300006031D08008D2C07150A30A000EF
:1005C8000030A1000A168A11DB250A128A1183124B
:1005D800031307110530A0000030A1000A168A1184
:1005E800DB25080087140A30A0000030A1000A1695
:1005F8008A11DB250A128A1183120313871005302A
:10060800A0000030A1000A168A11DB250800861018
:100618000A30A0000030A1000A168A11DB250A1250
:100628008A118312031386140530A0000030A1003C
:100638000A168A11DB250800831203135008023EAC
:10064800840083130008013A0319E12A033A0319C5
:10065800F62A013A03190B2BAF2C08005008023E6A
:1006680084000003031D5D2B0A168A11B6240A12A2
:100678008A11063A031D5D2B013083120313DF0034
:100688000030E000FC01FD016430A0000030A10052
:100698000A168A11DB250A128A110A3083120313FB
:1006A800CF004F08B50002300A128A15A1230A129A
:1006B8008A11831203135008023E84000230831308
:1006C8000006031D8C2B0A168A11B6240A128A11F9
:1006D800073A031D8C2B013083120313DF0000300F
:1006E800E000FC01FD016430A0000030A1000A1602
:1006F8008A11DB250A128A110A3083120313CF00EC
:100708004F08B50002300A128A15A1230A128A116D
:10071800831203135008023E84000A308313000634
:10072800031D08000A168A11B6240A128A11043A0F
:100738000319A62B0A168A11B6240A128A11053A39
:10074800031D0800013083120313DF000030E000AE
:10075800FC01FD016430A0000030A1000A168A11D6
:10076800DB250800831203135008023E840083131C
:100778000008031D080000300A168A116D260A12A7
:100788008A1183120313CF004F08B50003300A12F1
:100798008A15A1230800831203135008023E84001F
:1007A80083130008031D080003300A168A116D26FA
:1007B8000A128A1183120313CF004F08B5000430C0
:1007C8000A128A15A1230800831203135008023E57
:1007D8008400831300080319FD2B5008023E84008F
:1007E8000008CF004F08A00000300A168A111C2705
:1007F800080000300A168A11FE250A128A1183128F
:100808000313CF004F08B50005300A128A15A1233B
:100818000800831203135008023E84008313000863
:10082800031D282C6F03031D202CB501B50A0630C3
:100838000A128A15A123080083120313B501063092
:100848000A128A15A1230800831203135008023ED6
:10085800840083130003031D342CEF01EF0A080002
:100868005008023E84000008031D0800EF0108003C
:100878005008023E84000008031D08000A168A1169
:1008880046260A128A11831203136A080319532C85
:10089800B501B50A07300A128A15A12308000230EB
:1008A80083120313CF004F08B50007300A128A15C8
:1008B800A12308000A168A113B250A128A11E33976
:1008C8000A168A11F0260A128A110A168A11832535
:1008D8000A128A110A168A11B9250A128A11831274
:1008E8000313B501B50A09300A128A15A1230800B5
:1008F800831203136B08031D852C0A128A11B02476
:10090800080083120313B50108300A128A15A123BF
:10091800080083120313500A840083130008013A65
:100928000319202B033A0319322B013A0319B62B6A
:10093800073A0319CF2B013A0319E82B033A031995
:100948000D2C013A03193C2C0F3A03197C2C013A5F
:1009580003195E2CAF2C0800003083120313C70064
:100968000030C6000030C5000030C4004930BB006C
:100978003B08A2004A30BC003C08A30048300A16D5
:100988008A1198260A128A11831203134808BB0099
:10099800BC01BD01BE013E08C7003D08C6003C08B9
:1009A800C5003B08C4004908BB00BC01BD01BE012D
:1009B8004408BF004508C0004608C1004708C200F7
:1009C80008300310BF0DC00DC10DC20DFF3E031D41
:1009D800E52C3F08BB0740080318400FF42CF52C02
:1009E800BC0741080318410FFA2CFB2CBD0742082D
:1009F8000318420ABE073E08C7003D08C6003C0867
:100A0800C5003B08C4004A08BB00BC01BD01BE01CB
:100A18004408BF004508C0004608C1004708C20096
:100A280008300310BF0DC00DC10DC20DFF3E031DE0
:100A3800152D3F08BB0740080318400F242D252D0E
:100A4800BC0741080318410F2A2D2B2DBD0742086A
:100A58000318420ABE073E08C7003D08C6003C0806
:100A6800C5003B08C4000330BB003B08B500083094
:100A78000A128A15A1230A128A110030831203135D
:100A8800CE000030CD000030CC000030CB0047084D
:100A98004E02031D592D46084D02031D592D4508C8
:100AA8004C02031D592D44084B020318F92D4B081D
:100AB800BB003B08CA004B08BB004C08BC004D08F3
:100AC800BD004E08BE0008300310BE0CBD0CBC0CA7
:100AD800BB0CFF3E031D682D3B08BF003F08C90043
:100AE8004B08BB004C08BC004D08BD004E08BE00BA
:100AF80010300310BE0CBD0CBC0CBB0CFF3E031D1C
:100B08007D2D3B08BF003F08C8004E084D044C042B
:100B18004B040319B82D003083120313A3000030CF
:100B2800A2000030A1000A30A0004E08A7004D081E
:100B3800A6004C08A5004B08A4000A128A15A1209B
:100B48000A128A11831203132308220421042004A1
:100B5800031DC02DB501B50A0C300A128A15A12350
:100B68000A128A1183120313B501B50A0B300A124F
:100B78008A15A1230A128A11013083120313A500D2
:100B88000030A6004808BB003B08A7004908BC0085
:100B98003C08A8004A08BD003D08A9004330BE0033
:100BA8003E08AA0001300A128A158B220A128A11FD
:100BB800831203134308BB003B08B5000A300A122E
:100BC8008A15A1230A128A11013083120313CB0755
:100BD800003003180130CC07003003180130CD076E
:100BE800003003180130CE074B2DB501B50A083087
:100BF8000A128A15A123080083120313B1000812F0
:100C080013300A168A11D8240A128A1101300A16DA
:100C18008A11D8240A128A110A168A119D240A12E6
:100C28008A117F3983120313A9002908B2000A1612
:100C38008A119D240A128A117F3983120313A9008D
:100C48002908B3000A168A119D240A128A113F390D
:100C580083120313A9002908B4000A168A119D24D7
:100C68000A128A1183120313A9002908B7000A1669
:100C78008A119D240A128A113F3983120313A9008D
:100C88002908B7000A168A119D240A128A111F39E9
:100C980083120313A9002908B5000A168A119D2496
:100CA8000A128A1183120313A9002908B60008162C
:100CB8003208A90004300310A90CFF3E031D5F2E63
:100CC80029080739AA002A08AB0032080F39A900F9
:100CD8002908B2000A30A9002908A0002B080A1622
:100CE8008A1128250A128A11831203133207AA00CF
:100CF800310884002A08831380003308A9000430CF
:100D08000310A90CFF3E031D842E29080739AA00E9
:100D18002A08AC0033080F39A9002908B3000A30A3
:100D2800A9002908A0002C080A168A1128250A12E9
:100D38008A11831203133307AA00240884002A089F
:100D4800831380003408A90004300310A90CFF3E67
:100D5800031DA92E29080339AA002A08AD00340862
:100D68000F39A9002908B4000A30A9002908A000F1
:100D78002D080A168A1128250A128A1183120313CC
:100D88003407AA00250884002A088313800037083E
:100D9800A90004300310A90CFF3E031DCE2E29081C
:100DA8000339AA002A08AE0037080F39A900290814
:100DB800B7000A30A9002908A0002E080A168A11CF
:100DC80028250A128A11831203133707AA00260856
:100DD80084002A08831380003508A9000430031012
:100DE800A90CFF3E031DF32E29080139AA002A0881
:100DF800AF0035080F39A9002908B5000A30A90045
:100E08002908A0002F080A168A1128250A128A1113
:100E1800831203133507AA00270884002A088313BE
:100E280080003608A90004300310A90CFF3E031DFA
:100E3800182F29080F39AA002A08B00036080F39D8
:100E4800A9002908B6000A30A9002908A00030081E
:100E58000A168A112825831203133607AA002808C0
:100E680084002A08831380000800861A512F5F081F
:100E78006004031D512F0A168A11AD240A128A1123
:100E8800F500023075020318512F01308312031345
:100E9800DF000030E000FC01FD01831203130C1C8D
:100EA800EE2F10100B308F00DB308E005F036004D4
:100EB800031D802F6E08F6006D08F5000310F50D70
:100EC800F60D7D08803AF7007608803A7702031D10
:100ED8006F2F75087C020318802F0130FC07031858
:100EE800FD0A0030FD078312031387187D2F87142E
:100EF8009E2F871C9E2F9D2F831203135F03600470
:100F0800031D9E2F6E08F6006D08F5000310F50D01
:100F1800F60D7D08803AF7007608803A7702031DBF
:100F2800972F75087C02031C9E2F83120313DF0181
:100F3800E0018710013083120313E3070318E40A62
:100F48000030E4076408803AFF0080307F02031D08
:100F5800AF2F02306302031CC02F83120313E30177
:100F6800E4010130E7070318E80A0030E8070A1629
:100F78008A11BE270A128A11831203136808803A5D
:100F8800FF0080307F02031DCB2F3C306702031C1B
:100F9800D92F83120313E701E8010130E50703188D
:100FA800E60A0030E607EB01EB0A83120313660832
:100FB800803AFF0080307F02031DE42F3C30650239
:100FC800031CEA2F83120313E501E60183120313BE
:100FD80010140C100B108B177B08FF007A088A007E
:100FE80079088400780E8300FE0E7E0E09000A162A
:060FF8008A117F270800AA
:1010040083120313A200220884008313000820061D
:10101400031D0E2822080800220884000130A207BC
:101024000008031D05280030080083120313AD00D7
:101034000130A9020030031CAA03AA02290A0319D9
:101044002A0A031958282D08840083130008031959
:101054003928280884000A168A1100200A128A15E1
:10106400AB002D08840000082B0603194F2828081C
:1010740084000A168A110020AB00AC01AB09AC094C
:10108400AB0A0319AC0A2D08840000082B07A8003A
:101094002C0803182C0AA90008000130AB002B0807
:1010A400AD070130AB002B08A8071A28A801A90135
:1010B400080083120313B20096282E08AF002F08ED
:1010C400A8002E080A168A11C4260A128A15831249
:1010D40003132108AA002008A90032080A128A155D
:1010E40017200A128A158312031328082904031DE2
:1010F4007D28320808002E0884000A168A11002070
:101104000A128A15AF00B0012F08A0003008A10010
:101114003208013E0A128A1502200A128A15831225
:101124000313B1003108B200320803199F283208B2
:10113400840083130008031D5F2800300800831215
:10114400031323082204210420040319E628A90117
:10115400A90AA31BBB280130A8000310A00DA10DF0
:10116400A20DA30DA80BAF280130A8002808A907D9
:10117400AB2823082702031DC92822082602031DC1
:10118400C92821082502031DC92820082402031C9C
:10119400D9282008A4022108031C210FA502220833
:1011A400031C220FA6022308031C230FA7020130ED
:1011B4000310A30CA20CA10CA00CFF3E031DDA2803
:1011C4000130A902031DBB282708A3002608A2009A
:1011D4002508A1002408A00008000230831203138C
:1011E400A0000030A1000530A2000030A3000A16C0
:1011F4008A1104250A128A1520300A128A151C2223
:101204000A128A150D3083120313B600FB30B500A1
:10121400B50B0A29B60B0A290E300A168A119D2528
:101224000A128A15023883120313B5003508A70081
:101234000E300A168A1169250A128A1540300A12DC
:101244008A151C220A128A150E300A168A119D2547
:101254000A128A150239031D3929831203135A0805
:10126400031926290A128A1508270A128A156030DA
:101274000A128A151C220A128A15A5308312031336
:10128400B500B50B4329462983120313EC01EC0A7C
:101294000800831603130F178F160F120F148312EF
:1012A4000313850186018701880189010B308316A8
:1012B400031385003D308600103087000730880016
:1012C40007308900831603178801890108148815DB
:1012D4008816081788170914831603138113151425
:1012E4008312061C72298316031395168312861E15
:1012F4007829F030940514128316031314179413E9
:10130400831203139416831603138C11831203138D
:10131400851605160816881586148B150B17831663
:1013240003130C148B17961630308312031390009A
:101334000B308F00DB308E0010141F139F138316A5
:1013440003139F139F121F1283120313E701E80173
:10135400E301E401E501E60108000330831203130D
:10136400A0000030A1000530A2000030A3000A163E
:101374008A1104250A128A1520300A128A151C22A1
:101384000A128A1583120313EC0183160313BE0198
:10139400BF01C001C1014108803AFF0080307F02D3
:1013A400031DD6291E3040020318002A8316031396
:1013B4004008A03E8400831380010130C007031855
:1013C400C10A0030C107CD290A168A11E6240A127F
:1013D4008A1583120313D100831603133E08A03E1B
:1013E4008400831203135108831380000130831691
:1013F4000313BE070318BF0A0030BF078312031389
:10140400861D072A5B080319E6290D30831203138E
:10141400D200FB30D100D10B0D2AD20B0D2A0030A3
:101424000A128A151C220A128A15A0300A128A117D
:101434009022080083120313AC00051200300A1630
:101444008A119D250A128A1583120313AB002B08F7
:10145400AD00742A2D081F398038AB002B08A70073
:1014640000300A168A1169250A128A15872A8312FE
:1014740003132D081F396038AB002B08A700003078
:101484000A168A1169250A128A15872A83120313F8
:101494002D081F394038AB002B08A70000300A166E
:1014A4008A1169250A128A15872A831203132D08C3
:1014B4001F392038AB002B08A70000300A168A1108
:1014C40069250A128A15872A831203132D081F39E6
:1014D400AB002B08A70000300A168A1169250A12EE
:1014E4008A15872A831203132C08003A0319662AE3
:1014F400203A0319572A603A0319482A203A031953
:10150400392AE03A03192C2A872A83120313051671
:10151400080083120313AD0088112D080319942ABF
:101524000330A22A06300A168A11D8240A128A1510
:1015340083120313881500008312031388110230E9
:101544000A168A11D8240A128A158312031327084B
:101554000A168A11D8240A128A158312031328083A
:101564000A168A11D8240A128A1583120313290829
:101574000A168A11D8240A128A1583120313AE019B
:10158400AF0126082F02031DC92A25082E020318BD
:10159400F42A2D080319DF2A0A168A119D240A1237
:1015A4008A1583120313AB002E082A07AC002C08FB
:1015B40084002B0883138000EB2A2E082A07AB0033
:1015C4002B088400831300080A168A11D8240A12EF
:1015D4008A15013083120313AE070318AF0A0030D3
:1015E400AF07C32A881500000A168A113B250A1280
:1015F4008A15033903190800C73083120313AB009B
:10160400032BAB0B022B062BF62A831203130812AF
:1016140012300A168A11D8240A128A1501300A16C1
:101624008A11D8240A128A1500300A168A11D8247D
:101634000A128A158312031308160C30831203133B
:10164400A300A30B232B00008312031308121230F0
:101654000A168A11D8240A128A1502300A168A1127
:10166400D8240A128A1500300A168A11D8240A12BC
:101674008A158312031308160C3083120313A30074
:10168400A30B422B000083120313081212300A1614
:101694008A11D8240A128A1508300A168A11D82405
:1016A4000A128A1500300A168A11D8240A128A15D9
:1016B4008312031308160C3083120313A300A30B25
:1016C400612B000083120313081212300A168A11C8
:1016D400D8240A128A1501300A168A11D8240A124B
:1016E4008A1580300A168A11D8240A128A158312A0
:1016F40003130816A4016430240203189D2B081256
:1017040013300A168A11D8240A128A1504300A16CC
:101714008A11D8240A128A150A168A119D240A12DB
:101724008A152039031D9D2B013083120313A30056
:101734002308A4077D2B83120313081608008312C1
:101744000313BA000430A0000030A1000530A20049
:101754000030A3000A168A1104250A128A1583127E
:101764000313B801B90120300A128A151C220A1287
:101774008A150D3083120313B700FB30B600B60B85
:10178400C12BB70BC12B0E300A168A119D250A12E4
:101794008A15023883120313B6003608A7000E30E8
:1017A4000A168A1169250A128A1540300A128A1506
:1017B4001C220A128A150E300A168A119D250A1255
:1017C4008A150239031DF02B831203135C080319D5
:1017D400DD2B0A128A1508270A128A1580300A128C
:1017E4008A151C220A128A15A53083120313B60027
:1017F400B60BFA2BFD2B53300A168A11BF240A129A
:101804008A1559300A168A11BF240A128A154E30D5
:101814000A168A11BF240A128A1543300A168A113D
:10182400BF240A128A152C300A168A11BF240A1200
:101834008A15831203133A080A168A11BF240A125E
:101844008A158312031335080A168A11BF240A1253
:101854008A1537300A168A11BF240A128A15831290
:101864000313061A3A2C831203135C080319312C50
:10187400023083120313B600B60B3E2C0000003076
:101884000A128A151C220A128A1541308312031384
:10189400B700ED30B600B60B4D2CB70B4D2C522CC7
:1018A40008000A128A154B210A128A150A128A158F
:1018B40031250A128A150A128A1507230A128A1573
:1018C400831203138610023083120313D50086306B
:1018D400D4009830D300D30B6D2CD40B6D2CD50BC6
:1018E4006D2C000083120313861402308312031339
:1018F400D5008630D4009830D300D30B7F2CD40B82
:101904007F2CD50B7F2C0000831203130618CC2CDC
:10191400D601D7010A168A11B6240A128A1583122F
:101924000313D3005708803AD40080305402031DB7
:101934009D2C530856020318CC2C831203138610D3
:10194400023083120313D5008630D4009830D300BC
:10195400D30BAA2CD40BAA2CD50BAA2C00008312CF
:1019640003138614023083120313D5008630D40087
:101974009830D300D30BBC2CD40BBC2CD50BBC2C73
:101984000000013083120313D6070318D70A00306E
:10199400D7078C2C0A168A11B6240A128A15003A23
:1019A400031DD92C0A128A11FB270A128A150A165A
:1019B4008A11B6240A128A15013A031DE62C0A1666
:1019C4008A114F250A128A150A168A11B6240A1298
:1019D4008A15023A031DF32C0A168A11CB240A1223
:1019E4008A150A168A11B6240A128A15043A031DA6
:1019F400002D0A168A11F4240A128A150A168A116D
:101A0400B6240A128A15053A031D0D2D0A168A11E9
:101A140016250A128A15831203136C08031D172D49
:101A24000A128A15EF200A128A1583120313061E5E
:101A3400232D6C080319232D0A128A15AF210A12CB
:101A44008A15831203136B080319862C0A128A1150
:101A540045200A128A1583120313EB01862C3030B9
:101A640083120313B5003508A70000300A168A1143
:101A740069250A128A15A83083120313B5003508A4
:101A8400A70001300A168A1169250A128A1509303D
:101A940083120313B5003508A70002300A168A1111
:101AA40069250A128A15073083120313B500350815
:101AB400A70003300A168A1169250A128A150A300A
:101AC40083120313B5003508A70005300A168A11DE
:101AD40069250A128A15B93083120313B500350833
:101AE400A7000D300A168A1169250A128A151130C9
:101AF40083120313B5003508A7000E300A168A11A5
:101B040069250A128A15A33083120313B500350818
:101B1400A70010300A168A1169250A128A153E3068
:101B240083120313B5003508A70012300A168A1170
:101B340069250A128A15533083120313B500350838
:101B4400A70016300A168A1169250A128A15593017
:101B540083120313B5003508A70017300A168A113B
:101B640069250A128A154E3083120313B50035080D
:101B7400A70018300A168A1169250A128A154330FB
:101B840083120313B5003508A70019300A168A1109
:101B940069250A128A15723083120313B5003508B9
:101BA400A7001A300A168A1169250A128A153C30D0
:101BB40083120313B5003508A7001B300A168A11D7
:101BC40069250A128A15803083120313B50035087B
:101BD400A7001F300A168A1169250A128A150030D7
:101BE4000A168A119D250A128A15013883120313D5
:101BF400B5003508A70000300A168A1169250A12B3
:101C04008A150A128A1508270A128A15013A031D31
:101C1400162E013083120313A6000030A7000A1603
:101C24008A114C270A128A1500300A128A151C22BE
:101C34000800003083120313B5000030B4000030F4
:101C4400B3000030B2003030A7002708A2002F30C4
:101C5400A8002808A30031300A168A1198260A120F
:101C64008A15831203133108A700A801A901AA0148
:101C74002A08B5002908B4002808B3002708B200D0
:101C84003008A700A801A901AA013208AB00330853
:101C9400AC003408AD003508AE0008300310AB0DBD
:101CA400AC0DAD0DAE0DFF3E031D502E2B08A70746
:101CB4002C0803182C0F5F2E602EA8072D0803187C
:101CC4002D0F652E662EA9072E0803182E0AAA07C3
:101CD4002A08B5002908B4002808B3002708B20070
:101CE4002F08A700A801A901AA013208AB003308F4
:101CF400AC003408AD003508AE0008300310AB0D5D
:101D0400AC0DAD0DAE0DFF3E031D802E2B08A707B5
:101D14002C0803182C0F8F2E902EA8072D080318BB
:101D24002D0F952E962EA9072E0803182E0AAA0702
:101D34002A08B5002908B4002808B3002708B2000F
:101D44003508AA003408A9003308A8003208A700FF
:101D54000130B2070030B3070318B40AB4070318FC
:101D6400B50AB5072A08031DC52E1F302902031D15
:101D7400C32EFF302802031DC32EFF302702031D8C
:101D8400C32E031CCD2E0030B5001F30B400FF302D
:101D9400B300FF30B2003208A7002708AF003208B2
:101DA400A7003308A8003408A9003508AA000830A1
:101DB4000310AA0CA90CA80CA70CFF3E031DDA2ED5
:101DC4002708AB002B08B0003208A7003308A8008E
:101DD4003408A9003508AA0010300310AA0CA90C75
:101DE400A80CA70CFF3E031DEF2E2708AB002B0801
:101DF400B1003008A7002708A3002F08A80028086E
:101E0400A40031080A168A1122260800831203133B
:101E1400B101B201E901DD01DE01063083120313D1
:101E2400B0001330AF00AD30AE00AE0B172FAF0BC8
:101E3400172FB00B172F83120313B301B401340807
:101E4400803AFF0080307F02031D2A2F0D303302B9
:101E54000318FE2F8312031333080E3E84000A1660
:101E64008A1100200A128A15AE002E08A700063037
:101E74000A168A1169250A128A1583120313330874
:101E8400013E84000A168A1100200A128A15AE0047
:101E94002E08A70007300A168A1169250A128A1526
:101EA4008312031333081B3E84000A168A11002090
:101EB4000A128A15AE002E08A70008300A168A11E5
:101EC40069250A128A158312031333080E3E84000F
:101ED4000A168A1100200A128A15AE002E08A700DD
:101EE40009300A168A1169250A128A158312031306
:101EF4003308013E84000A168A1100200A128A154A
:101F0400AE002E08A7000A300A168A1169250A12A3
:101F14008A158312031333081B3E84000A168A11A0
:101F240000200A128A15AE002E08A7000B300A16EC
:101F34008A1169250A128A150E300A168A119D25FE
:101F44000A128A15023883120313AE002E08A70062
:101F54000E300A168A1169250A128A1540300A12AF
:101F64008A151C220A128A1583120313B101B201C5
:101F7400831203133208803AFF0080307F02031D6E
:101F8400C52F053031020318EB2F0E300A168A11C3
:101F94009D250A128A1502390319DA2F83120313B5
:101FA400E901E90A3408DE003308DD0001300800E5
:101FB400013083120313B1070318B20A0030B207C9
:101FC400C73083120313AE00E72FAE0BE62FEA2FC0
:101FD400BA2F013083120313B3070318B40A003075
:101FE400B4073408803AFF0080307F02031DFC2FC1
:101FF4000D303302031C2C2F0030080010308A00EF
:102004000408840A820700343F3447344F34573479
:102014005F3477347E347F3486348734373467349E
:102024006F344F34593463346D34773495349F347A
:102034009F34A934A934453481348B3418341B3487
:102044001E34213424342D347B3430347E34333400
:10205400153427342A344E34313442344C34493420
:102064004E344B3400344E34323442344C344934DC
:062074004E344B34003431
:1029340058340234013400300A168A11D824831220
:1029440003131308080064008001840A04060319B1
:1029540000340406A62C8312031308080739F00078
:102964007008F1007108080083120313080807397E
:10297400A0002008A1002108080083120313A3006B
:10298400851223080A168A11D82483120313851684
:1029940008000A168A117F270A168A118312031364
:1029A400071DD62C87140800871008008312031310
:1029B400A2001308A0002008A1008C112208930093
:1029C4008C1DE22C8C1108008312031385120A1645
:1029D4008A119D2483120313A3002308A4008516DF
:1029E4002408080083120313861A002DB501B50AC2
:1029F40002300A128A15A1230A168A110A168A11AC
:102A04007F270800831203132008A4002407C23E72
:102A14008400220883138000840A2308800020088D
:102A2400583E84008001080083120313861A242D63
:102A34000230BB003B08B50002300A128A15A123FC
:102A44000A168A110A168A117F27080083120313B3
:102A5400A300A201231C322D2008A1002108A207F3
:102A64000310A00D0310A30C2308031D2C2D220812
:102A7400080083120313881105300A168A11D8241A
:102A84000A168A110A168A119D2483120313A300BD
:102A94002308A4008815240808001E308312031399
:102AA40067066804031907195C2D0A168A1146265D
:102AB4000A168A11831203135F036004031D672D32
:102AC4006A03031D672D0715080007110800831208
:102AD4000313AA0005122A08A8002807A900290838
:102AE400AA002A080A168A11D8240A168A118312FF
:102AF400031327080A168A11D82483120313051610
:102B0400080083120313A00103300A168A111C273C
:102B14000A168A1183120313A00102300A168A11BD
:102B24001C270A168A1183120313A00101300A1606
:102B34008A111C27080083120313A6000512260815
:102B4400A30023074038A4002408A60026080A1678
:102B54008A11D8240A168A110A168A119D2483120E
:102B64000313A3002308A5000516250808008312F3
:102B74000313881106300A168A11D8240A168A11FA
:102B84008312031388150000831203138811C730BE
:102B94000A168A11D8240A168A1183120313881577
:102BA4000A168A113B250A168A11003A03190800ED
:102BB400D22D83120313A401A5012508803AA20093
:102BC4002108803A2202031DE92D2008240203185B
:102BD4000800823083120313A300DD30A200A20B8D
:102BE400F12DA30BF12D013083120313A407031855
:102BF400A50A0030A507DF2D83120313A100042EBC
:102C0400831203136400831603178C18022E831295
:102C140003132108831203178D003F30831203131B
:102C2400A0002008831603178C050C1403100C183D
:102C34000314003003180130831203170C08080032
:102C440083120313A6002608A5002508A00001305E
:102C54000A168A111C270A168A11831203132308E1
:102C6400A5002508A00002300A168A111C270A169E
:102C74008A11831203132408A5002508A000033039
:102C84000A168A111C270800831203136F03031DFD
:102C9400522E03300A168A116D260A168A11582EEE
:102CA40000300A168A11FE250A168A1183120313AC
:102CB400A8002808A90000300A168A116D260A16F1
:102CC4008A1183120313290203186B2EEA01EA0AFC
:102CD4000800EA01080083120313A700071027085D
:102CE400A600A60DA60D1F082606C33926069F00BA
:102CF4001F140130A0000030A1000A168A11DB2540
:102D04000A168A11831203139F140130A0000030A5
:102D1400A1000A168A11DB250A168A1183120313ED
:102D24009F18902E1F1007141E0808008312031307
:102D3400A50001300A168A11FE250A168A1183128B
:102D44000313A400250884002408831380000230A0
:102D54000A168A11FE250A168A1183120313A40087
:102D64002208840024088313800003300A168A1181
:102D7400FE2583120313A40023088400240883136C
:102D84008000080083120313A6002608A20022086C
:102D9400A700270884000A168A1100200A168A113F
:102DA400003A0319DA2E0130A2002208A707CB2E1D
:102DB4002608A2008030A300A209A309A20A0319CD
:102DC400A30A2708A4008030A50022082407A00035
:102DD40023080318230A2507A100080083120313FC
:102DE400A500881106300A168A11D8240A168A11F9
:102DF400831203138815FE2E8312031388110130E6
:102E04000A168A11D8240A168A1183120313250874
:102E14000A168A11D8240A168A11831203138815F4
:102E2400132F0A168A113B250A168A110139031930
:102E34000800132F83120313A200831603178C18A0
:102E44001F2F831203132208831203178D0083128A
:102E540003132008831203178C003F3083120313DB
:102E6400A1002108831603178C0583120313031092
:102E74008B1B03148B13831603170C1555308D000D
:102E8400AA308D008C140C1183120313031C080048
:102E94008B170800013083120313A9000030AA0025
:102EA4002708803AA8002A08803A2802031D5C2FCC
:102EB40029082602031C0800831203138714023016
:102EC400A0000030A1000A168A11DB250A168A1117
:102ED4008312031387100630A0000030A1000A16E5
:102EE4008A11DB250A168A11013083120313A907FC
:102EF4000318AA0A0030AA07522F1E3083120313A4
:102F040067066804031907198C2F0A168A114626C6
:102F14000A168A11831203136A030319851CA12F4D
:102F24000719A12F07150030A000A1007830A200D6
:102F34000030A3000A168A1104250A168A11831286
:102F440003135808031908000A168A1146260A169C
:102F54008A11831203136A08031D851CBC2F0030D9
:102F6400A000A1007830A2000030A3000A168A1144
:102F74000425080007110800F301F4017408803ADD
:102F8400FF0080307F02031DC92F05307302031830
:102F940008007308F0007007C23E84008313000821
:102FA400F100840A0008F2007208803AFF008030C1
:102FB4007F02031DDF2F01307102031CF32F7308FE
:102FC400F0007007C23E8400FF3083138007840F33
:102FD40000080318000AFF00FF307F078000840305
:102FE400F92F7308583E840083138001800A01304E
:0C2FF400F3070318F40A0030F407C02FA4
:02400E0014E0BC
:00000001FF
