:060000000A128A11122809
:10000800FE00030EF8000408F9000A08FA0083123B
:1000180003137F08FB000A128A15702C0A128A1132
:1000280015280A168A11BC240A128A11EA000A162F
:100038008A11BD240A128A11EB000A168A11BE24FD
:100048000A128A11EC000A168A11BF240A128A11B0
:10005800ED000A168A11C0240A128A11EE008317CD
:1000680090308400B8300A168A11C9240A128A11FD
:100078008313C2308400CC300A168A11C9240A12AC
:100088008A11553084006A300A168A11C924FC0185
:10009800FD0183010A128A15D72B3E308312031300
:1000A800B8003808A4003F30B9003908A50040302E
:1000B800BA003A08A6004130BB003B08A70042300E
:1000C800BC003C08A8003D300A128A110C260A120E
:1000D8008A11831203134208B8003808C300453058
:1000E800B8003808A2004430B9003908A3004630E7
:1000F8000A168A11C9260A128A11013083120313BB
:10010800A5000030A6004608B8003808A700450832
:10011800B9003908A8004408BA003A08A9004330D1
:10012800BB003B08AA0000300A128A15C9220A122D
:100138008A110A128A151D260A128A1183120313BC
:100148004108B8003808C3004530B8003808A20094
:100158004430B9003908A30046300A168A11C92666
:100168000A128A11013083120313A5000030A60079
:100178004608B8003808A7004508B9003908A8009B
:100188004408BA003A08A9004330BB003B08AA005B
:1001980000300A128A15C9220A128A110A128A150F
:1001A8001D260A128A11831203134008B800380862
:1001B800C3004530B8003808A2004430B9003908F7
:1001C800A30046300A168A11C9260A128A1101307C
:1001D80083120313A5000030A6004608B8003808AB
:1001E800A7004508B9003908A8004408BA003A0829
:1001F800A9004330BB003B08AA0000300A128A1548
:10020800C9220A128A110A128A151D260A128A118F
:10021800831203133F08B8003808C3004530B800FC
:100228003808A2004430B9003908A30046300A163D
:100238008A11C9260A128A11013083120313A500F4
:100248000030A6004608B8003808A7004508B900DD
:100258003908A8004408BA003A08A9004330BB008E
:100268003B08AA0000300A128A15C9220A128A110C
:100278000A128A151D260A128A1100300A168A11D6
:100288009E260A128A1183120313B8003808C30085
:100298004530B8003808A2004430B9003908A30036
:1002A80046300A168A11C9260A128A1101308312A9
:1002B8000313A5000030A6004608B8003808A700B8
:1002C8004508B9003908A8004408BA003A08A90046
:1002D8004330BB003B08AA0000300A128A15C92225
:1002E8000A128A110A128A151D260A128A11033067
:1002F8000A168A119E260A128A1183120313B8005D
:100308003808C3004530B8003808A2004430B900A6
:100318003908A30046300A168A11C9260A128A111A
:10032800013083120313A5000030A6004608B80068
:100338003808A7004508B9003908A8004408BA00D9
:100348003A08A9004330BB003B08AA0000300A1253
:100358008A15C9220A128A110A128A151D260A123A
:100368008A1105300A168A119E260A128A118312EA
:100378000313B8003808C3004530B8003808A20095
:100388004430B9003908A30046300A168A11C92634
:100398000A128A11013083120313A5000030A60047
:1003A8004608B8003808A7004508B9003908A80069
:1003B8004408BA003A08A9004330BB003B08AA0029
:1003C80000300A128A15C9220A128A110A128A15DD
:1003D8001D260A128A1107300A168A119E260A1249
:1003E8008A1183120313B8003808C3004530B800D7
:1003F8003808A2004430B9003908A30046300A166C
:100408008A11C9260A128A11013083120313A50022
:100418000030A6004608B8003808A7004508B9000B
:100428003908A8004408BA003A08A9004330BB00BC
:100438003B08AA0000300A128A15C9220A128A113A
:100448000A128A151D260A128A1106300A168A11FE
:100458009E260A128A1183120313B8003808C300B3
:100468004530B8003808A2004430B9003908A30064
:1004780046300A168A11C9260A128A1101308312D7
:100488000313A5000030A6004608B8003808A700E6
:100498004508B9003908A8004408BA003A08A90074
:1004A8004330BB003B08AA0000300A128A15C92253
:1004B8000A128A110A128A151D260A128A11083090
:1004C8000A168A119E260A128A1183120313B8008B
:1004D8003808C3004530B8003808A2004430B900D5
:1004E8003908A30046300A168A11C9260A128A1149
:1004F800013083120313A5000030A6004608B80097
:100508003808A7004508B9003908A8004408BA0007
:100518003A08A9004330BB003B08AA0000300A1281
:100528008A15C9220A128A110A128A151D2608007C
:1005380083120313D0002830CF004F08AE005008B4
:100548000A128A1543200A128A11003A0319B42A9A
:100558000A128A11F5270A128A11063A0319CB2AB8
:10056800303083120313CF004F08AE0050080A1230
:100578008A1543200A128A11003A0319DC2A0A1242
:100588008A11F5270A128A11073A031DDC2A01305D
:1005980083120313DC000030DD00FC01FD01643030
:1005A800A0000030A1000A168A110B260A128A112F
:1005B80083120313500884002C3083130006031D94
:1005C80008005008033E840037300006031D080069
:1005D800992C07150A30A0000030A1000A168A11CC
:1005E8000B260A128A118312031307110530A00083
:1005F8000030A1000A168A110B26080087140A3059
:10060800A0000030A1000A168A110B260A128A11CE
:100618008312031387100530A0000030A1000A16CA
:100628008A110B26080086100A30A0000030A100AD
:100638000A168A110B260A128A11831203138614CA
:100648000530A0000030A1000A168A110B26080008
:10065800831203135008023E840083130008013AF2
:100668000319ED2A033A0319022B013A0319172B30
:10067800BB2C08005008023E84000003031D692BB0
:100688000A128A11F5270A128A11063A031D692BE4
:10069800013083120313DC000030DD00FC01FD0192
:1006A8006430A0000030A1000A168A110B260A1235
:1006B8008A110A3083120313CF004F08B5000230A5
:1006C8000A128A1145270A128A1183120313500845
:1006D800023E8400023083130006031D982B0A1281
:1006E8008A11F5270A128A11073A031D982B01303F
:1006F80083120313DC000030DD00FC01FD016430CF
:10070800A0000030A1000A168A110B260A128A11CD
:100718000A3083120313CF004F08B50002300A12C3
:100728008A1145270A128A11831203135008023EC0
:1007380084000A3083130006031D08000A128A1178
:10074800F5270A128A11043A0319B22B0A128A11E0
:10075800F5270A128A11053A031D08000130831291
:100768000313DC000030DD00FC01FD016430A00053
:100778000030A1000A168A110B2608008312031301
:100788005008023E840083130008031D080000304F
:100798000A168A119E260A128A1183120313CF00A1
:1007A8004F08B50003300A128A1145270800831242
:1007B80003135008023E840083130008031D080039
:1007C80003300A168A119E260A128A11831203130D
:1007D800CF004F08B50004300A128A1145270800D7
:1007E800831203135008023E840083130008031980
:1007F800092C5008023E84000008CF004F08A000D2
:1008080000300A168A114D27080000300A168A118E
:100818002F260A128A1183120313CF004F08B5003E
:1008280005300A128A11452708008312031350085D
:10083800023E840083130008031D342C6E03031D3D
:100848002C2CB501B50A06300A128A114527080072
:1008580083120313B50106300A128A1145270800CE
:10086800831203135008023E840083130003031D00
:10087800402CEE01EE0A08005008023E84000008F1
:10088800031D0800EE0108005008023E840000081D
:10089800031D08000A168A1177260A128A11831284
:1008A8000313670803195F2CB501B50A07300A124C
:1008B8008A1145270800023083120313CF004F081E
:1008C800B50007300A128A11452708000A168A114E
:1008D80056250A128A11E3390A168A1121270A12A3
:1008E8008A110A168A11B3250A128A110A168A1160
:1008F800E9250A128A1183120313B501B50A0930D2
:100908000A128A1145270800831203136808031D79
:10091800912C0A128A11BC24080083120313B50112
:1009280008300A128A114527080083120313500A57
:10093800840083130008013A03192C2B033A031986
:100948003E2B013A0319C22B073A0319DB2B013A54
:100958000319F42B033A0319192C013A0319482CEB
:100968000F3A0319882C013A03196A2CBB2C08008A
:10097800003083120313C7000030C6000030C500E2
:100988000030C4004930BB003B08A2004A30BC001C
:100998003C08A30048300A168A11C9260A128A118F
:1009A800831203134808BB00BC01BD01BE013E0809
:1009B800C7003D08C6003C08C5003B08C4004908FC
:1009C800BB00BC01BD01BE014408BF004508C00012
:1009D8004608C1004708C20008300310BF0DC00D0B
:1009E800C10DC20DFF3E031DF12C3F08BB07400897
:1009F8000318400F002D012DBC0741080318410FB3
:100A0800062D072DBD0742080318420ABE073E08F7
:100A1800C7003D08C6003C08C5003B08C4004A089A
:100A2800BB00BC01BD01BE014408BF004508C000B1
:100A38004608C1004708C20008300310BF0DC00DAA
:100A4800C10DC20DFF3E031D212D3F08BB07400805
:100A58000318400F302D312DBC0741080318410FF2
:100A6800362D372DBD0742080318420ABE073E0837
:100A7800C7003D08C6003C08C5003B08C400033059
:100A8800BB003B08B50008300A128A1145270A1234
:100A98008A11003083120313CE000030CD000030DD
:100AA800CC000030CB0047084E02031D652D4608D8
:100AB8004D02031D652D45084C02031D652D440894
:100AC8004B020318052E4B08BB003B08CA004B0815
:100AD800BB004C08BC004D08BD004E08BE000830E5
:100AE8000310BE0CBD0CBC0CBB0CFF3E031D742DCB
:100AF8003B08BF003F08C9004B08BB004C08BC00BE
:100B08004D08BD004E08BE0010300310BE0CBD0CD1
:100B1800BC0CBB0CFF3E031D892D3B08BF003F08E2
:100B2800C8004E084D044C044B040319C42D003072
:100B380083120313A3000030A2000030A1000A3082
:100B4800A0004E08A7004D08A6004C08A5004B08B9
:100B5800A4000A128A1589200A128A118312031323
:100B68002308220421042004031DCC2DB501B50A55
:100B78000C300A128A1145270A128A1183120313AC
:100B8800B501B50A0B300A128A1145270A128A11D3
:100B9800013083120313A5000030A6004808BB00EB
:100BA8003B08A7004908BC003C08A8004A08BD004B
:100BB8003D08A9004330BE003E08AA0001300A12D1
:100BC8008A15C9220A128A11831203134308BB002B
:100BD8003B08B5000A300A128A1145270A128A1101
:100BE800013083120313CB07003003180130CC0700
:100BF800003003180130CD07003003180130CE074C
:100C0800572DB501B50A08300A128A114527080080
:100C180083120313B100081213300A168A11F32441
:100C28000A128A1101300A168A11F3240A128A114B
:100C38000A168A11C1240A128A117F3983120313F2
:100C4800A9002908B2000A168A11C1240A128A11B9
:100C58007F3983120313A9002908B3000A168A11E1
:100C6800C1240A128A113F3983120313A9002908E3
:100C7800B4000A168A11C1240A128A1183120313B6
:100C8800A9002908B7000A168A11C1240A128A1174
:100C98003F3983120313A9002908B7000A168A11DD
:100CA800C1240A128A111F3983120313A9002908C3
:100CB800B5000A168A11C1240A128A118312031375
:100CC800A9002908B60008163208A9000430031044
:100CD800A90CFF3E031D6B2E29080739AA002A0814
:100CE800AB0032080F39A9002908B2000A30A90060
:100CF8002908A0002B080A168A1143250A128A110E
:100D0800831203133207AA00310884002A088313C8
:100D180080003308A90004300310A90CFF3E031D0E
:100D2800902E29080739AA002A08AC0033080F3981
:100D3800A9002908B3000A30A9002908A0002C0836
:100D48000A168A1143250A128A11831203133307DC
:100D5800AA00240884002A08831380003408A90004
:100D680004300310A90CFF3E031DB52E29080339D2
:100D7800AA002A08AD0034080F39A9002908B400D0
:100D88000A30A9002908A0002D080A168A1143254F
:100D98000A128A11831203133407AA002508840053
:100DA8002A08831380003708A90004300310A90C0F
:100DB800FF3E031DDA2E29080339AA002A08AE00CF
:100DC80037080F39A9002908B7000A30A9002908EF
:100DD800A0002E080A168A1143250A128A118312C6
:100DE80003133707AA00260884002A088313800003
:100DF8003508A90004300310A90CFF3E031DFF2E7F
:100E080029080139AA002A08AF0035080F39A900B6
:100E18002908B5000A30A9002908A0002F080A16D9
:100E28008A1143250A128A11831203133507AA006F
:100E3800270884002A08831380003608A900043094
:100E48000310A90CFF3E031D242F29080F39AA00FF
:100E58002A08B00036080F39A9002908B6000A3058
:100E6800A9002908A00030080A168A114325831210
:100E780003133607AA00280884002A088313800071
:100E8800080083120313BA000430A0000030A10048
:100E98000530A2000030A3000A168A111F250A1285
:100EA8008A1183120313B801B90120300A128A1576
:100EB8005A220A128A110D3083120313B700FB302D
:100EC800B600B60B652FB70B652F6A2F0E300A16C2
:100ED8008A11CD250A128A11023883120313B6002B
:100EE8003608A7000E300A168A1199250A128A11A7
:100EF80040300A128A155A220A128A110E300A162E
:100F08008A11CD250A128A110239031D952F8312E1
:100F1800031359080319822F0A128A150A270A127D
:100F28008A1180300A128A155A220A128A11A630AA
:100F380083120313B600B60B9F2F000053300A1616
:100F48008A11DA240A128A1159300A168A11DA2407
:100F58000A128A114E300A168A11DA240A128A11E4
:100F680043300A168A11DA240A128A112C300A161A
:100F78008A11DA240A128A11831203133A080A160C
:100F88008A11DA240A128A118312031335080A1601
:100F98008A11DA240A128A1137300A168A11DA24D9
:100FA8000A128A1183120313061ADF2F83120313FE
:100FB80059080319D62F0330B600B60BE12F0030BD
:100FC8000A128A155A220A128A114130831203130F
:100FD800B700EE30B600B60BEF2FB70BEF2F0000BF
:100FE80008008312031308090739A0002008A1008C
:040FF80001300800BC
:10100200F301F4017408803AFF0080307F02031D6F
:101012000C2805307302031808007308F0007007EB
:10102200C23E840083130008F100840A0008F20023
:101032007208803AFF0080307F02031D22280130AF
:101042007102031C36287308F0007007C23E840048
:10105200FF3083138007840F00080318000AFF0083
:10106200FF307F07800084033C287308553E8400CC
:1010720083138001800A0130F3070318F40A003059
:10108200F407032883120313B2007E282E08AF0050
:101092002F08A8002E080A168A11F5260A128A15A8
:1010A200831203132108AA002008A90032080A1695
:1010B2008A11BC270A128A158312031328082904ED
:1010C200031D6528320808002E0884000A168A11BA
:1010D20000200A128A15AF00B0012F08A0003008C4
:1010E200A1003208013E0A168A116A250A128A15DF
:1010F20083120313B1003108B200320803198728A2
:101102003208840083130008031D472800300800BA
:101112008312031323082204210420040319CE2876
:10112200A901A90AA31BA3280130A8000310A00D3E
:10113200A10DA20DA30DA80B97280130A800280825
:10114200A907932823082702031DB1282208260293
:10115200031DB12821082502031DB12820082402FD
:10116200031CC1282008A4022108031C210FA50288
:101172002208031C220FA6022308031C230FA70226
:1011820001300310A30CA20CA10CA00CFF3E031D06
:10119200C2280130A902031DA3282708A30026089C
:1011A200A2002508A1002408A0000800831203134E
:1011B200AB000130A9000030AA0020298610F228D5
:1011C2008714F2280715F228831203132B08013A19
:1011D2000319DF28033A0319E128013A0319E32826
:1011E200F2280230A0000030A1000A168A110B2654
:1011F2000A128A15022986140F2987100F2907114E
:101202000F29831203132B08013A0319FC28033A0E
:101212000319FE28013A031900290F290630A000FC
:101222000030A1000A168A110B260A128A15013013
:1012320083120313A9070318AA0A0030AA07270872
:10124200803AA8002A08803A2802031D2A29290880
:101252002602031C0800E528023083120313A000B3
:101262000030A1000530A2000030A3000A168A1146
:101272001F250A128A1520300A128A155A220A12CA
:101282008A150D3083120313B600FB30B500B50B7F
:101292004829B60B48294D290E300A168A11CD2548
:1012A2000A128A15023883120313B5003508A70003
:1012B2000E300A168A1199250A128A1540300A122E
:1012C2008A155A220A128A150E300A168A11CD255B
:1012D2000A128A150239031D78298312031357084B
:1012E200031965290A128A150A270A128A1560301B
:1012F2000A128A155A220A128A15A6308312031379
:10130200B500B50B8229000083120313E901E90A33
:101312000800831603130F178F160F120F14831270
:101322000313850186018701880189010B30831629
:10133200031385003D308600103087000730880097
:10134200073089008316031788018901081488155C
:1013520088160817881709148316031381131514A6
:101362008312061CB1298316031395168312861E57
:10137200B729F0309405141283160313141794132B
:10138200831203139416831603138C11831203130F
:10139200851605160816881586148B150B178316E5
:1013A20003130C148B17961630308312031390001C
:1013B2000B308F00DB308E0010141F139F13831627
:1013C20003139F139F121F1283120313E401E501FB
:1013D200E001E101E201E30108000330831203139B
:1013E200A0000030A1000530A2000030A3000A16C0
:1013F2008A111F250A128A1520300A128A155A22CA
:101402000A128A1583120313E90183160313BE011C
:10141200BF01C001C1014108803AFF0080307F0254
:10142200031D152A1E30400203183F2A8316031398
:101432004008A03E8400831380010130C0070318D6
:10144200C10A0030C1070C2A0A168A1101250A12A4
:101452008A1583120313D100831603133E08A03E9C
:101462008400831203135108831380000130831612
:101472000313BE070318BF0A0030BF07831203130A
:10148200861D462A58080319252A0D30D200FB3042
:10149200D100D10B4A2AD20B4A2A4F2A00300A1213
:1014A2008A155A220A128A15A0300A128A119C221F
:1014B200080083120313AC00051200300A168A11C9
:1014C200CD250A128A1583120313AB002B08AD0037
:1014D200B22A2D081F398038AB002B08A700003034
:1014E2000A168A1199250A128A15C52A831203132C
:1014F2002D081F396038AB002B08A70000300A16F0
:101502008A1199250A128A15C52A831203132D08F6
:101512001F394038AB002B08A70000300A168A1189
:1015220099250A128A15C52A831203132D081F3919
:101532002038AB002B08A70000300A168A11992523
:101542000A128A15C52A831203132D081F39AB000C
:101552002B08A70000300A168A1199250A128A154B
:10156200C52A831203132C08003A0319A42A203A2D
:101572000319952A603A0319862A203A0319772A11
:10158200E03A03196A2AC52A8312031305160800D2
:1015920083120313AD0088112D080319D22A0330D8
:1015A200E02A06300A168A11F3240A128A158312D7
:1015B20003138815000083120313881102300A16E0
:1015C2008A11F3240A128A158312031327080A16B2
:1015D2008A11F3240A128A158312031328080A16A1
:1015E2008A11F3240A128A158312031329080A1690
:1015F2008A11F3240A128A1583120313AE01AF0172
:1016020026082F02031D072B25082E020318322B52
:101612002D0803191D2B0A168A11C1240A128A15D4
:1016220083120313AB002E082A07AC002C08840097
:101632002B0883138000292B2E082A07AB002B08C6
:101642008400831300080A168A11F3240A128A15E9
:10165200013083120313AE070318AF0A0030AF073D
:10166200012B881500000A168A1156250A128A15BE
:10167200033903190800F93083120313AB00000089
:10168200AB0B402B442B0000342B831203130812A4
:1016920012300A168A11F3240A128A1501300A1628
:1016A2008A11F3240A128A1500300A168A11F324C9
:1016B2000A128A158312031308160D30A300A30B16
:1016C200602B83120313081212300A168A11F324B4
:1016D2000A128A1502300A168A11F3240A128A158E
:1016E20000300A168A11F3240A128A158312031390
:1016F20008160D30A300A30B7C2B831203130812D0
:1017020012300A168A11F3240A128A1508300A16B0
:101712008A11F3240A128A1500300A168A11F32458
:101722000A128A158312031308160D30A300A30BA5
:10173200982B83120313081212300A168A11F3240B
:101742000A128A1501300A168A11F3240A128A151E
:1017520080300A168A11F3240A128A15831203139F
:101762000816A401643024020318D32B0812133084
:101772000A168A11F3240A128A1504300A168A11EB
:10178200F3240A128A150A168A11C1240A128A152A
:101792002039031DD32B013083120313A300230826
:1017A200A407B32B83120313081608000A128A1522
:1017B2008A210A128A150A128A1532250A128A15F4
:1017C2000A128A1546230A128A150A128A11F52765
:1017D2000A128A15033A031DF82BB430831203133D
:1017E200EC000030ED00B430EA000030EB000A12E9
:1017F2008A11F5270A128A1583120313D300D40122
:101802005308A6005408A70001300A128A15D720EF
:101812000A128A150A128A11F5270A128A15003A43
:10182200031D182C0A168A11B8240A128A150A12E4
:101832008A11F5270A128A15013A031D252C0A1668
:101842008A117F250A128A150A128A11F5270A12AD
:101852008A15023A031D322C0A168A11E6240A124C
:101862008A150A128A11F5270A128A15043A031DEB
:101872003F2C0A168A110F250A128A150A128A119A
:10188200F5270A128A15053A031D4C2C0A168A11ED
:1018920031250A128A15831203136908031D562C77
:1018A2000A128A152D210A128A1583120313061EA3
:1018B200622C69080319622C0A128A15EE210A1297
:1018C2008A1583120313680803190B2C0A128A1152
:1018D20051200A128A1583120313E8010B2C861A6F
:1018E200882C5C085D04031D882C0A168A11D124F9
:1018F2000A128A15F500023075020318882C01308D
:1019020083120313DC000030DD00FC01FD018312B1
:1019120003130C1C252D10100B308F00DB308E00B2
:101922005C035D04031DB72C6D08F6006C08F5001E
:101932000310F50DF60D7D08803AF7007608803A1F
:101942007702031DA62C75087C020318B72C013000
:10195200FC070318FD0A0030FD07831203138718E2
:10196200B42C8714D52C871CD52CD42C83120313AA
:101972005C035D04031DD52C6D08F6006C08F500B0
:101982000310F50DF60D7D08803AF7007608803ACF
:101992007702031DCE2C75087C02031CD52C831202
:1019A2000313DC01DD018710013083120313E0070A
:1019B2000318E10A0030E1076108803AFF00803035
:1019C2007F02031DE62C02306002031CF72C8312F7
:1019D2000313E001E1010130E4070318E50A0030D6
:1019E200E5070A128A1501200A128A1583120313C7
:1019F2006508803AFF0080307F02031D022D3C30D3
:101A02006402031C102D83120313E401E50101306B
:101A1200E2070318E30A0030E307E801E80A831249
:101A220003136308803AFF0080307F02031D1B2DE1
:101A32003C306202031C212D83120313E201E301F5
:101A42008312031310140C100B108B177B08FF006A
:101A52007A088A0079088400780E8300FE0E7E0ED2
:101A62000900303083120313B5003508A700003097
:101A72000A168A1199250A128A15A83083120313AD
:101A8200B5003508A70001300A168A1199250A12F5
:101A92008A15093083120313B5003508A7000230F6
:101AA2000A168A1199250A128A150730831203131E
:101AB200B5003508A70003300A168A1199250A12C3
:101AC2008A150A3083120313B5003508A7000530C2
:101AD2000A168A1199250A128A15B930831203133C
:101AE200B5003508A7000D300A168A1199250A1289
:101AF2008A15113083120313B5003508A7000E3082
:101B02000A168A1199250A128A15A3308312031321
:101B1200B5003508A70010300A168A1199250A1255
:101B22008A153E3083120313B5003508A700123020
:101B32000A168A1199250A128A1553308312031341
:101B4200B5003508A70016300A168A1199250A121F
:101B52008A15593083120313B5003508A7001730D0
:101B62000A168A1199250A128A154E308312031316
:101B7200B5003508A70018300A168A1199250A12ED
:101B82008A15433083120313B5003508A7001930B4
:101B92000A168A1199250A128A15723083120313C2
:101BA200B5003508A7001A300A168A1199250A12BB
:101BB2008A153C3083120313B5003508A7001B3089
:101BC2000A168A1199250A128A1580308312031384
:101BD200B5003508A7001F300A168A1199250A1286
:101BE2008A1500300A168A11CD250A128A15013883
:101BF20083120313B5003508A70000300A168A11B4
:101C020099250A128A150A128A150A270A128A15B2
:101C1200013A031D182E013083120313A60000306F
:101C2200A70002300A128A15D7200A128A1500303C
:101C32000A128A155A220800003083120313B500D3
:101C42000030B4000030B3000030B2003030A700E2
:101C52002708A2002F30A8002808A30031300A1656
:101C62008A11C9260A128A15831203133108A700A2
:101C7200A801A901AA012A08B5002908B400280868
:101C8200B3002708B2003008A700A801A901AA01E1
:101C92003208AB003308AC003408AD003508AE00A2
:101CA20008300310AB0DAC0DAD0DAE0DFF3E031DA4
:101CB200522E2B08A7072C0803182C0F612E622E18
:101CC200A8072D0803182D0F672E682EA9072E08C6
:101CD20003182E0AAA072A08B5002908B400280802
:101CE200B3002708B2002F08A700A801A901AA0182
:101CF2003208AB003308AC003408AD003508AE0042
:101D020008300310AB0DAC0DAD0DAE0DFF3E031D43
:101D1200822E2B08A7072C0803182C0F912E922E27
:101D2200A8072D0803182D0F972E982EA9072E0805
:101D320003182E0AAA072A08B5002908B4002808A1
:101D4200B3002708B2003508AA003408A9003308F6
:101D5200A8003208A7000130B2070030B307031809
:101D6200B40AB4070318B50AB5072A08031DC72E1B
:101D72001F302902031DC52EFF302802031DC52E68
:101D8200FF302702031DC52E031CCF2E0030B500E5
:101D92001F30B400FF30B300FF30B2003208A7009A
:101DA2002708AF003208A7003308A8003408A900AA
:101DB2003508AA0008300310AA0CA90CA80CA70C1D
:101DC200FF3E031DDC2E2708AB002B08B0003208B3
:101DD200A7003308A8003408A9003508AA0010306B
:101DE2000310AA0CA90CA80CA70CFF3E031DF12E90
:101DF2002708AB002B08B1003008A7002708A30072
:101E02002F08A8002808A40031080A168A115326B0
:101E1200080083120313B101B201E601DA01DB010A
:101E22000630B0001330AF00B130AE00AE0B172F4A
:101E3200AF0B172FB00B172F1E2F83120313B301F3
:101E4200B4013408803AFF0080307F02031D2B2F3B
:101E52000D3033020318FE2F8312031333080E3E94
:101E620084000A168A1100200A128A15AE002E0872
:101E7200A70006300A168A1199250A128A158312BA
:101E820003133308013E84000A168A1100200A1245
:101E92008A15AE002E08A70007300A168A11992566
:101EA2000A128A158312031333081B3E84000A1692
:101EB2008A1100200A128A15AE002E08A7000830E7
:101EC2000A168A1199250A128A15831203133308F6
:101ED2000E3E84000A168A1100200A128A15AE00EC
:101EE2002E08A70009300A168A1199250A128A15A6
:101EF200831203133308013E84000A168A1100205C
:101F02000A128A15AE002E08A7000A300A168A1194
:101F120099250A128A158312031333081B3E840083
:101F22000A168A1100200A128A15AE002E08A7008E
:101F32000B300A168A1199250A128A150E300A16D2
:101F42008A11CD250A128A15023883120313AE00B4
:101F52002E08A7000E300A168A1199250A128A1530
:101F620040300A128A155A220A128A158312031362
:101F7200B101B201831203133208803AFF008030AC
:101F82007F02031DC62F053031020318EB2F0E30DE
:101F92000A168A11CD250A128A1502390319DB2F76
:101FA20083120313E601E60A3408DB003308DA0081
:101FB20001300800013083120313B1070318B20A7B
:101FC2000030B207F930AE000000AE0BE52FE92F6A
:101FD2000000BB2F013083120313B3070318B40AA6
:101FE2000030B4073408803AFF0080307F02031DBE
:101FF200FC2F0D303302031C2D2F0030080010304F
:102002008A000408840A820700343F3447344F347C
:1020120057345F3477347E347F34863487343734B0
:1020220067346F344F34593463346D3477349534B4
:102032009F349F34A934A934453481348B34183405
:102042001B341E34213424342D347B3430347E341A
:102052003334153427342A344E34313442344C3438
:1020620049344E344B3400344E34323442344C34DE
:0820720049344E344B340034B4
:102970000A168A117D27080058340234583402346C
:10298000013400300A168A11F3248312031313084A
:10299000080064008001840A040603190034040658
:1029A000CA2C8312031308090739F0007008F100DC
:1029B0000130080083120313A300851223080A16AE
:1029C0008A11F32483120313851608000A168A114C
:1029D0007D270A168A1183120313071DF12C871411
:1029E00008008710080083120313A2001308A00038
:1029F0002008A1008C11220893008C1DFD2C8C1145
:102A000008008312031385120A168A11C124831247
:102A10000313A3002308A4008516240808008312CA
:102A20000313861A1B2DB501B50A02300A128A114A
:102A300045270A168A110A168A117D270800831273
:102A400003132008A4002407C23E84002208831335
:102A50008000840A230880002008553E84008001FD
:102A6000080083120313861A3F2D0230BB003B0877
:102A7000B50002300A128A1145270A168A110A1671
:102A80008A117D27080083120313A300A201231CCF
:102A90004D2D2008A1002108A2070310A00D03104E
:102AA000A30C2308031D472D2208080083120313DB
:102AB000881105300A168A11F3240A168A110A169B
:102AC0008A11C12483120313A3002308A4008815CC
:102AD0002408080083120313A20022088400831331
:102AE00000082006031D762D220808002208840015
:102AF0000130A2070008031D6D2D003008001E30B4
:102B00008312031364066504031907198C2D0A1632
:102B10008A1177260A168A11831203135C035D0457
:102B2000031D972D6703031D972D07150800071137
:102B3000080083120313AA0005122A08A800280718
:102B4000A9002908AA002A080A168A11F3240A16DD
:102B50008A118312031327080A168A11F324831299
:102B600003130516080083120313A00103300A168D
:102B70008A114D270A168A1183120313A00102300D
:102B80000A168A114D270A168A1183120313A0010F
:102B900001300A168A114D27080083120313A6007C
:102BA00005122608A30023074038A4002408A60025
:102BB00026080A168A11F3240A168A110A168A119F
:102BC000C12483120313A3002308A50005162508BA
:102BD000080083120313881106300A168A11F324A1
:102BE0000A168A1183120313881500008312031337
:102BF0008811C7300A168A11F3240A168A11831223
:102C0000031388150A168A1156250A168A11003AE6
:102C100003190800022E83120313A401A50125083D
:102C2000803AA2002108803A2202031D192E2008B2
:102C3000240203180800823083120313A300DD303E
:102C4000A200A20B212EA30B212E262E01308312CF
:102C50000313A4070318A50A0030A5070F2E83123B
:102C60000313A100352E8312031364008316031788
:102C70008C18332E831203132108831203178D003F
:102C80003F3083120313A0002008831603178C051E
:102C90000C1403100C1803140030031801308312B5
:102CA00003170C08080083120313A6002608A500CA
:102CB0002508A00001300A168A114D270A168A112C
:102CC000831203132308A5002508A00002300A166A
:102CD0008A114D270A168A11831203132408A500AE
:102CE0002508A00003300A168A114D270800831218
:102CF00003136E03031D832E03300A168A119E26CA
:102D00000A168A11892E00300A168A112F260A16F1
:102D10008A1183120313A8002808A90000300A169C
:102D20008A119E260A168A11831203132902031898
:102D30009C2EE701E70A0800E7010800831203134D
:102D4000A70007102708A600A60DA60D1F08260637
:102D5000C33926069F001F140130A0000030A100D7
:102D60000A168A110B260A168A11831203139F145E
:102D70000130A0000030A1000A168A110B260A16A5
:102D80008A11831203139F18C12E1F1007141E08E7
:102D9000080083120313A50001300A168A112F269A
:102DA0000A168A1183120313A4002508840024083C
:102DB0008313800002300A168A112F260A168A1100
:102DC00083120313A40022088400240883138000C4
:102DD00003300A168A112F2683120313A400230836
:102DE0008400240883138000080083120313A600C4
:102DF0002608A2002208A700270884000A168A11C4
:102E000000200A168A11003A03190B2F0130A20084
:102E10002208A707FC2E2608A2008030A300A209E2
:102E2000A309A20A0319A30A2708A4008030A50059
:102E300022082407A00023080318230A2507A1005D
:102E4000080083120313A500881106300A168A11A0
:102E5000F3240A168A118312031388152F2F831265
:102E60000313881101300A168A11F3240A168A11F5
:102E70008312031325080A168A11F3240A168A11ED
:102E8000831203138815442F0A168A1156250A1631
:102E90008A11013903190800442F83120313A20079
:102EA000831603178C18502F8312031322088312E2
:102EB00003178D00831203132008831203178C005D
:102EC0003F3083120313A1002108831603178C05DA
:102ED0008312031303108B1B03148B138316031726
:102EE0000C1555308D00AA308D008C140C118312F6
:102EF0000313031C08008B1708001E3083120313F2
:102F000064066504031907198A2F0A168A117726A1
:102F10000A168A118312031367030319851C9F2F56
:102F200007199F2F07150030A000A1006B08A30010
:102F30006A08A2000A168A111F250A168A1183122E
:102F400003135508031908000A168A1177260A1672
:102F50008A11831203136708031D851CBA2F0030E2
:102F6000A000A1006B08A3006A08A2000A168A113B
:102F70001F2508000711080083120313AD0001305C
:102F8000A9020030031CAA03AA02290A03192A0A6B
:102F90000319FD2F2D088400831300080319DE2F69
:102FA000280884000A168A1100200A168A11AB002C
:102FB0002D08840000082B060319F42F280884002C
:102FC0000A168A110020AB00AC01AB09AC09AB0AB0
:102FD0000319AC0A2D08840000082B07A8002C0850
:102FE00003182C0AA90008000130AB002B08AD071C
:102FF0000130AB002B08A807BF2FA801A9010800CA
:02400E0014E0BC
:00000001FF
