:060000000A128A11122809
:10000800FE00030EF8000408F9000A08FA0083123B
:1000180003137F08FB000A128A11A92C0A128A11FD
:100028001528831603130A128A151D240A128A1129
:10003800D7000A128A151E240A128A11D8008312C0
:1000480003130A128A11FF250A128A11EF00831777
:1000580090308400B8300A128A1527240A128A11AF
:100068008313A0308400D7300A128A152724E801A8
:10007800E901EA01EB01EC01ED01EE01FC01FD01F2
:1000880083010A128A11AB2E553083120313BC0068
:100098003C08AE00B9300A128A150B270A128A11D9
:1000A800003A031973280A128A1538240A128A1189
:1000B800063A031D7328013083120313E800003049
:1000C800E90083160313B101B201643083120313EC
:1000D800A0000030A1000A128A151F2508005D3013
:1000E80083120313BC003C08AE00B9300A128A150B
:1000F8000B270A128A11003A03199E280A128A1538
:1001080038240A128A11073A031D9E2801308312E7
:100118000313E8000030E90083160313B101B201AC
:10012800643083120313A0000030A1000A128A155C
:100138001F250800823083120313BC003C08AE0060
:10014800B9300A128A150B270A128A11003A0319C4
:10015800C4288312031307150A30A0000030A10039
:100168000A128A151F250A128A118312031307110E
:100178000530A0000030A1000A128A151F250800CA
:10018800743083120313BC003C08AE00B9300A1265
:100198008A150B270A128A11003A0319EA288312D2
:1001A800031387140A30A0000030A1000A128A1530
:1001B8001F250A128A118312031387100530A00025
:1001C8000030A1000A128A151F2508006530831225
:1001D8000313BC003C08AE00B9300A128A150B277D
:1001E8000A128A11003A03190C2900300A128A15DA
:1001F80065250A128A1183120313BC003C08BD004E
:100208003D30B5000030B6000A128A11D723080025
:100218007B3083120313BC003C08AE00B9300A12CD
:100228008A150B270A128A11003A03192E2903305E
:100238000A128A1565250A128A1183120313BC0053
:100248003C08C5004530B5000030B6000A128A11D6
:10025800D7230800443083120313BC003C08AE00C7
:10026800B9300A128A150B270A128A11003A0319A3
:1002780059290A128A158E250A128A118312031324
:100288006D0803194F293630B5008030B6000A12C0
:100298008A11D7230800283083120313B500803051
:1002A800B6000A128A11D72308006D30831203138F
:1002B800BC003C08AE00B9300A128A150B270A1296
:1002C8008A11003A03197F29831203136F03031D50
:1002D80075299830B5008030B6000A128A11D723E4
:1002E8000800943083120313B5008030B6000A1258
:1002F8008A11D72308004D3083120313BC003C0831
:10030800AE00B9300A128A150B270A128A11003A70
:1003180003199829831203136F03031D9529EF010D
:100328000800EF01EF0A08008F3083120313BC00A6
:100338003C08AE00B9300A128A150B270A128A1136
:10034800003A0319BA297C080A128A11DB250A1215
:100358008A1183120313BC003C08CD004D30B50050
:100368000030B6000A128A11D72308008930831298
:100378000313BC003C08AE00B9300A128A150B27DB
:100388000A128A11003A03190800BF300A128A11AA
:100398001C270A128A11831203132708DE00260875
:1003A800DD005D08BC003C08D5005530B5000030C4
:1003B800B6000A128A11D7230A128A11831203136C
:1003C8005D08BC003C08A0007C080A128A15E325D9
:1003D800080083120313B101B201EC018316031361
:1003E800AF01B001063083120313B0001330AF0021
:1003F800AD30AE00AE0BFE29AF0BFE29B00BFE29C7
:1004080083120313B301B4013408803AFF0080302B
:100418007F02031D112A0D3033020318EB2A8312C1
:10042800031333080E3E84000A128A110A260A12A0
:100438008A11AE002E08A70006300A128A15E92490
:100448000A128A11831203133308013E84000A1228
:100458008A110A260A128A11AE002E08A700073050
:100468000A128A15E9240A128A118312031333081F
:100478001B3E84000A128A110A260A128A11AE004B
:100488002E08A70008300A128A15E9240A128A11D0
:100498008312031333080E3E84000A128A110A26B7
:1004A8000A128A11AE002E08A70009300A128A150E
:1004B800E9240A128A11831203133308013E8400C7
:1004C8000A128A110A260A128A11AE002E08A700FB
:1004D8000A300A128A15E9240A128A1183120313B0
:1004E80033081B3E84000A128A110A260A128A114E
:1004F800AE002E08A7000B300A128A15E9240A124A
:100508008A110E300A128A1503250A128A11023836
:1005180083120313AE002E08A7000E300A128A15A4
:10052800E9240A128A1140300A128A118D270A1208
:100538008A1183120313B101B20183120313320823
:10054800803AFF0080307F02031DAC2A053031025B
:100558000318D82A0E300A128A1503250A128A119E
:1005680002390319C72A83120313EC01EC0A340871
:1005780083160313B000831203133308831603137F
:10058800AF0001300800013083120313B1070318CC
:10059800B20A0030B207C73083120313AE00D42A60
:1005A800AE0BD32AD72AA12A013083120313B3072B
:1005B8000318B40A0030B4073408803AFF008030CA
:1005C8007F02031DE92A0D303302031C132A003071
:1005D8000800303083120313B5003508A700003037
:1005E8000A128A15E9240A128A11A8308312031301
:1005F800B5003508A70001300A128A15E9240A1245
:100608008A11093083120313B5003508A700023098
:100618000A128A15E9240A128A1107308312031371
:10062800B5003508A70003300A128A15E9240A1212
:100638008A110A3083120313B5003508A700053064
:100648000A128A15E9240A128A11B930831203138F
:10065800B5003508A7000D300A128A15E9240A12D8
:100668008A11113083120313B5003508A7000E3024
:100678000A128A15E9240A128A11A3308312031375
:10068800B5003508A70010300A128A15E9240A12A5
:100698008A113E3083120313B5003508A7001230C3
:1006A8000A128A15E9240A128A1153308312031395
:1006B800B5003508A70016300A128A15E9240A126F
:1006C8008A11593083120313B5003508A700173073
:1006D8000A128A15E9240A128A114E30831203136A
:1006E800B5003508A70018300A128A15E9240A123D
:1006F8008A11433083120313B5003508A700193057
:100708000A128A15E9240A128A1172308312031315
:10071800B5003508A7001A300A128A15E9240A120A
:100728008A113C3083120313B5003508A7001B302B
:100738000A128A15E9240A128A11803083120313D7
:10074800B5003508A7001F300A128A15E9240A12D5
:100758008A1100300A128A1503250A128A110138F3
:1007680083120313B5003508A70000300A128A1552
:10077800E9240A128A110A128A11ED210A128A1131
:10078800013A031DD22B013083120313A600003057
:10079800A7000A128A1513260A128A1100300A12B3
:1007A8008A118D270800043083120313A00000303B
:1007B800A1000530A2000030A3000A128A15A8245F
:1007C8000A128A1183120313BA01BB0120300A12DC
:1007D8008A118D270A128A110D3083120313B8006B
:1007E800FB30B700B70BF62BB80BF62B0E300A12FE
:1007F8008A1503250A128A11023883120313B700D7
:100808003708A7000E300A128A15E9240A128A113D
:1008180040300A128A118D270A128A110E300A12E4
:100828008A1503250A128A110239031D252C8316FD
:1008380003132E080319122C0A128A11ED210A1229
:100848008A1180300A128A118D270A128A11A5305E
:1008580083120313B700B70B2F2C322C53300A1214
:100868008A1541240A128A1159300A128A1541241C
:100878000A128A114E300A128A1541240A128A1164
:1008880043300A128A1541240A128A11831203136B
:100898003A083507B8003608B7000318B70ABA1B74
:1008A800B703831203133708B9003908FF00380863
:1008B80084000A128A1100260A128A11003A0319C2
:1008C800902C831203133A083507B8003608B7008E
:1008D8000318B70ABA1BB703831203133708B90002
:1008E8003908FF00380884000A128A1100260A1203
:1008F8008A110A128A1541240A128A1101308312B8
:100908000313BA070318BB0A0030BB074A2C831627
:1009180003132E08031D932C8312061E8B2C023002
:1009280083120313B700B70B972C000000300A128C
:100938008A118D270A128A11C73083120313B70050
:10094800A52CB70BA42CA82C0800861AC32C680861
:100958006904031DC32C0A128A152F240A128A114E
:10096800F500023075020318C32C013083120313FB
:10097800E8000030E90083160313B101B2018312C5
:1009880003130C1C682D10100B308F00DB308E0009
:1009980068036904031DF62C831603135808F60030
:1009A8005708F5000310F50DF60D3208803AF700E8
:1009B8007608803A7702031DE32C75083102031884
:1009C800F62C013083160313B1070318B20A00305E
:1009D800B207831203138718F32C8714162D871C6C
:1009E800162D152D8312031368036904031D162D94
:1009F800831603135808F6005708F5000310F50D81
:100A0800F60D3208803AF7007608803A7702031D1F
:100A18000F2D75083102031C162D83120313E801EC
:100A2800E9018710013083160313B5070318B60AC6
:100A38000030B6073608803AFF0080307F02031D79
:100A4800272D02303502031C3A2D83160313B501F6
:100A5800B601013083120313EA070318EB0A0030CA
:100A6800EB070A128A1585260A128A1183120313C4
:100A78006B08803AFF0080307F02031D452D3C3013
:100A88006A02031C532D83120313EA01EB010130A0
:100A980083160313B7070318B80A0030B80783167C
:100AA80003133808803AFF0080307F02031D5E2D53
:100AB8003C303702031C642D83160313B701B801B9
:100AC8008312031310140C100B108B177B08FF00F4
:100AD8007A088A0079088400780E8300FE0E7E0E5C
:100AE8000900033083120313A0000030A100053071
:100AF800A2000030A3000A128A15A8240A128A113B
:100B080020300A128A118D270A128A1183120313C0
:100B1800EE01E101E201E301E4016408803AFF002B
:100B280080307F02031D9A2D1E3063020318BE2DEC
:100B3800831203136308B93E8400831380010130D4
:100B4800E3070318E40A0030E407912D0A128A1516
:100B580068240A128A1183120313DF006108B93E60
:100B680084005F08831380000130E1070318E20A5C
:100B78000030E20783120313861DC72D8316031363
:100B88002D080319AA2D0D3083120313E000FB3042
:100B9800DF00DF0BCD2DE00BCD2D00300A128A11BE
:100BA8008D270A128A110A128A1148200800831216
:100BB8000313A100E12D83120313640083160317A6
:100BC8008C18DF2D831203132108831203178D005D
:100BD8003F3083120313A0002008831603178C05E7
:100BE8000C1403100C18031400300318013083127E
:100BF80003170C0808000134FF1B0A2E83137F1803
:100C080083170008840A0319FF0A080006308A00BF
:100C18000408840A820700343F3447344F34573479
:100C28005F3477347E347F3486348734373467349E
:100C38006F344F34593463346D34773495349F347A
:100C48009F34A934A934453481348B3418341B3487
:100C58001E34213424342D347B3430347E34333400
:100C6800153427342A344E346F34743420344434E1
:100C7800613472346B3420342034203420342034EE
:100C880000344934743427347334203444346134A0
:100C980072346B342034203420342034003444340B
:100CA800413452344B34433441344C3443340034AB
:100CB8004334483453345434413454344534003480
:100CC8004E34313442344C3449344E344B3400348D
:100CD8004E34323442344C3449344E344B3400347C
:100CE800533445344E345334563441344C34003440
:100CF800533454344134543445343F340034463446
:100D08004C344134533448344234003450344F3432
:100D18005434563441344C34003446344C34413421
:100D2800533448344C340034533445345434443404
:100D38005634003452344D3444345634003450342C
:100D480049344334003450346F34743400340A1254
:100D58008A1551270A128A11053083120313E700F6
:100D68000F30E600F030E500E50BB82EE60BB82EA4
:100D7800E70BB82E00000A128A11ED220A128A1116
:100D88000A128A1538240A128A11003A031DD12E34
:100D98000A128A11FC270A128A110A128A153824A3
:100DA8000A128A11013A031DDE2E0A128A15CF246F
:100DB8000A128A110A128A1538240A128A11023A6A
:100DC800031DEB2E0A128A154D240A128A110A12E3
:100DD8008A1538240A128A11043A031DF82E0A12B9
:100DE8008A1586240A128A110A128A1538240A12C8
:100DF8008A11053A031D052F0A128A1597240A122B
:100E08008A11831203136E08031D0F2F0A128A1505
:100E1800A4270A128A1183120313061EC42E6E0811
:100E28000319C42E0A128A1175250A128A11C42EB2
:100E380083120313AD002D088400203083130006AD
:100E4800031D2B2F0130A8002808AD071F2F2D08E0
:100E58008400093000060319262FAB01AC01AA0152
:100E68002D0884002D300006031D3F2F0130A800F7
:100E78002808AA07452F2D0884002B300006031DDB
:100E8800492F0130A8002808AD072D088400000864
:100E98000A128A1576240A128A11031C772F8312E4
:100EA80003132C08A1002B08A0000A30A200003070
:100EB800A3000A128A1542250A128A118312031303
:100EC8002D088400831300082007A80021080318B0
:100ED800210AA9002808D03EAB0029080318013EC2
:100EE800FF3EAC00452F831203132A080319882FED
:100EF8002B09A8002C09A900A80A0319A90A28087F
:100F0800A6002908A70008002C08A7002B08A6009F
:100F1800080083120313AC00051200300A128A1568
:100F280003250A128A1183120313AB002B08AD00A4
:100F3800E52F2D081F398038AB002B08A70000309B
:100F48000A128A15E9240A128A11F82F8312031348
:100F58002D081F396038AB002B08A70000300A1293
:100F68008A15E9240A128A11F82F831203132D080F
:100F78001F394038AB002B08A70000300A128A1529
:100F8800E9240A128A11F82F831203132D081F3936
:100F98002038AB002B08A70000300A128A15E92474
:100FA8000A128A11F82F831203132D081F39AB0078
:100FB8002B08A70000300A128A15E9240A128A11A0
:100FC800F82F831203132C08003A0319D72F203A5D
:100FD8000319C82F603A0319B92F203A0319AA2F09
:100FE800E03A03199D2FF82F831203130516080002
:080FF8000A128A1546260800C2
:10183A005834023400300A128A155A2483120313C8
:10184A001308080064008001840A0406031900349E
:10185A000406282C8312031306090739F0007008BE
:10186A00F100710808008312031306090739A00062
:10187A002008A1002108080083120313A30085127F
:10188A0023080A128A155A2483120313851608009C
:10189A000A128A1546260A128A1583120313071D8D
:1018AA00582C871408008710080083120313A2001B
:1018BA001308A0002008A1008C11220893008C1D97
:1018CA00642C8C1108008312031385120A128A15DC
:1018DA001F2483120313A3002308A40085162408D7
:1018EA00080083120313A100A0013A302102031851
:1018FA00842C30302102031C842CA001A00A200C65
:10190A00080083120313861A932C5530B5008030D1
:10191A00B6000A128A11D7230A128A150A128A15E0
:10192A004626080083120313861AA42C5D30B500DC
:10193A008030B6000A128A11D7230A128A150A12AF
:10194A008A1546260800831203132008A4002407D8
:10195A00A03E8400220883138000840A23088000A2
:10196A002008AA3E84008001080083120313A20003
:10197A0022088400831300082006031DC62C2208AF
:10198A000800220884000130A2070008031DBD2CAC
:10199A00003008001E30831203136A066B04031911
:1019AA000719DC2C0A128A158E250A128A15831247
:1019BA00031368036904031DE72C6D03031DE72C59
:1019CA00071508000711080083120313AA0005125D
:1019DA002A08A8002807A9002908AA002A080A1222
:1019EA008A155A240A128A158312031327080A121F
:1019FA008A155A2483120313051608008312031347
:101A0A00A60005122608A30023074038A4002408CC
:101A1A00A60026080A128A155A240A128A150A12D8
:101A2A008A151F2483120313A3002308A500051691
:101A3A002508080083120313A401A5012508803A8A
:101A4A00A2002108803A2202031D2D2D200824021B
:101A5A0003180800823083120313A300DD30A200AA
:101A6A00A20B352DA30B352D013083120313A407C6
:101A7A000318A50A0030A507232D83120313A40116
:101A8A00A501201C4E2D2208A4070318A50A230825
:101A9A00A50701300310A20DA30DFF3E031D4F2D14
:101AAA0001300310A10CA00CFF3E031D562D200887
:101ABA002104031D462D2508A1002408A0000800C2
:101ACA0083120313A7002708A600A60DA60D1F0858
:101ADA002606C33926069F001F140130A0000030D5
:101AEA00A1000A128A151F250A128A1583120313E6
:101AFA009F140130A0000030A1000A128A151F2588
:101B0A000A128A15831203139F18872D1F101E08A5
:101B1A0008008312031307106F03031D9B2D033064
:101B2A000A128A1565250A128A15A12D7C080A123D
:101B3A008A11DB250A128A1583120313A8002808C2
:101B4A00A90000300A128A1565250A128A1583121D
:101B5A00031329020318B42DED01ED0AB52DED0189
:101B6A000710080083120313A6002608A200220801
:101B7A00A700270884000A128A110A260A128A155F
:101B8A00003A0319CD2D0130A2002208A707BE2D65
:101B9A002608A2008030A300A209A309A20A0319F9
:101BAA00A30A2708A4008030A50022082407A00061
:101BBA0023080318230A2507A10008008312031328
:101BCA00A200831603178C18E62D8312031322082A
:101BDA00831203178D00831203132008831203173D
:101BEA008C003F3083120313A100210883160317C8
:101BFA008C058312031303108B1B03148B13831698
:101C0A0003170C1555308D00AA308D008C140C1159
:101C1A0083120313031C08008B1708000130831278
:101C2A000313A9000030AA002708803AA8002A084E
:101C3A00803A2802031D232E29082602031C0800C5
:101C4A008312031387140230A0000030A1000A1285
:101C5A008A151F250A128A15831203138710063064
:101C6A00A0000030A1000A128A151F250A128A153F
:101C7A00013083120313A9070318AA0A0030AA071E
:101C8A00192E1E30831203136A066B0403190719EF
:101C9A00532E0A128A158E250A128A1583120313E5
:101CAA006D030319851C682E0719682E0715003065
:101CBA00A000A1007830A2000030A3000A128A1501
:101CCA00A8240A128A15831603132A08031908007E
:101CDA000A128A158E250A128A15831203136D08B1
:101CEA00031D851C832E0030A000A1007830A200BD
:101CFA000030A3000A128A15A82408000711080058
:101D0A00F301F4017408803AFF0080307F02031D5A
:101D1A00902E05307302031808007308F00070074C
:101D2A00A03E840083130008F100840A0008F20030
:101D3A007208803AFF0080307F02031DA62E013010
:101D4A007102031CBA2E7308F0007007A03E8400CB
:101D5A00FF3083138007840F00080318000AFF006E
:101D6A00FF307F0780008403C02E7308AA3E8400D8
:101D7A0083138001800A0130F3070318F40A003044
:101D8A00F407872E83120313AD000130A902003035
:101D9A00031CAA03AA02290A03192A0A0319082FEB
:101DAA002D088400831300080319E92E28088400EB
:101DBA000A128A110A260A128A15AB002D08840013
:101DCA0000082B060319FF2E280884000A128A111C
:101DDA000A26AB00AC01AB09AC09AB0A0319AC0A81
:101DEA002D08840000082B07A8002C0803182C0AC9
:101DFA00A90008000130AB002B08AD070130AB0089
:101E0A002B08A807CA2EA801A901080083120313E8
:101E1A00B200462F2E08AF002F08A8002E080A127B
:101E2A008A15B7250A128A15831203132108AA00F4
:101E3A002008A90032080A128A15C7260A128A152A
:101E4A008312031328082904031D2D2F32080800C2
:101E5A002E0884000A128A110A260A128A15AF006D
:101E6A00B0012F08A0003008A1003208013E0A1272
:101E7A008A15BA240A128A1583120313B10031088B
:101E8A00B200320803194F2F320884008313000866
:101E9A00031D0F2F00300800831603130F178F1628
:101EAA000F120F14831203138501860187010B3069
:101EBA008316031385003F3086001030870083168F
:101ECA0003178801890108148815831603138113DF
:101EDA0095128312861E6E2FF03094051412831603
:101EEA0003131417941383120313941683160313FC
:101EFA008C1183120313851605168B150B1783167F
:101F0A0003130C148B1796163030831203139000A8
:101F1A000B308F00DB308E0010141F139F138316B3
:101F2A0003139F139F121F1283120313EA01EB017B
:101F3A0083160313B501B601B701B80108000230D0
:101F4A0083120313A0000030A1000530A200003064
:101F5A00A3000A128A15A8240A128A1520300A1226
:101F6A008A118D270A128A150D3083120313B600BF
:101F7A00FB30B500B50BBF2FB60BBF2F0E300A12C0
:101F8A008A1503250A128A15023883120313B5002B
:101F9A003508A7000E300A128A15E9240A128A1592
:101FAA0040300A128A118D270A128A150E300A1237
:101FBA008A1503250A128A150239031DEE2F831684
:101FCA0003132C080319DB2F0A128A11ED210A12B6
:101FDA008A1560300A128A118D270A128A15A530CD
:101FEA0083120313B500B50BF82FFB2F83120313CB
:061FFA00EE01EE0A0800F2
:02400E0014E0BC
:00000001FF
